Archive member included to satisfy reference by file (symbol)

c:/rt-threadstudio/repo/extract/toolchain_support_packages/arm/gnu_tools_for_arm_embedded_processors/5.4.1/bin/../lib/gcc/arm-none-eabi/5.4.1/../../../../arm-none-eabi/lib/armv7e-m/fpu\libc.a(lib_a-atoi.o)
                              ./rt-thread/components/drivers/misc/rt_drv_pwm.o (atoi)
c:/rt-threadstudio/repo/extract/toolchain_support_packages/arm/gnu_tools_for_arm_embedded_processors/5.4.1/bin/../lib/gcc/arm-none-eabi/5.4.1/../../../../arm-none-eabi/lib/armv7e-m/fpu\libc.a(lib_a-exit.o)
                              c:/rt-threadstudio/repo/extract/toolchain_support_packages/arm/gnu_tools_for_arm_embedded_processors/5.4.1/bin/../lib/gcc/arm-none-eabi/5.4.1/../../../../arm-none-eabi/lib/armv7e-m/fpu/crt0.o (exit)
c:/rt-threadstudio/repo/extract/toolchain_support_packages/arm/gnu_tools_for_arm_embedded_processors/5.4.1/bin/../lib/gcc/arm-none-eabi/5.4.1/../../../../arm-none-eabi/lib/armv7e-m/fpu\libc.a(lib_a-fclose.o)
                              ./rt-thread/components/libc/compilers/gcc/newlib/stdio.o (fclose)
c:/rt-threadstudio/repo/extract/toolchain_support_packages/arm/gnu_tools_for_arm_embedded_processors/5.4.1/bin/../lib/gcc/arm-none-eabi/5.4.1/../../../../arm-none-eabi/lib/armv7e-m/fpu\libc.a(lib_a-fflush.o)
                              c:/rt-threadstudio/repo/extract/toolchain_support_packages/arm/gnu_tools_for_arm_embedded_processors/5.4.1/bin/../lib/gcc/arm-none-eabi/5.4.1/../../../../arm-none-eabi/lib/armv7e-m/fpu\libc.a(lib_a-fclose.o) (__sflush_r)
c:/rt-threadstudio/repo/extract/toolchain_support_packages/arm/gnu_tools_for_arm_embedded_processors/5.4.1/bin/../lib/gcc/arm-none-eabi/5.4.1/../../../../arm-none-eabi/lib/armv7e-m/fpu\libc.a(lib_a-fileno.o)
                              ./rt-thread/components/libc/compilers/gcc/newlib/stdio.o (fileno)
c:/rt-threadstudio/repo/extract/toolchain_support_packages/arm/gnu_tools_for_arm_embedded_processors/5.4.1/bin/../lib/gcc/arm-none-eabi/5.4.1/../../../../arm-none-eabi/lib/armv7e-m/fpu\libc.a(lib_a-findfp.o)
                              c:/rt-threadstudio/repo/extract/toolchain_support_packages/arm/gnu_tools_for_arm_embedded_processors/5.4.1/bin/../lib/gcc/arm-none-eabi/5.4.1/../../../../arm-none-eabi/lib/armv7e-m/fpu\libc.a(lib_a-fclose.o) (__sinit)
c:/rt-threadstudio/repo/extract/toolchain_support_packages/arm/gnu_tools_for_arm_embedded_processors/5.4.1/bin/../lib/gcc/arm-none-eabi/5.4.1/../../../../arm-none-eabi/lib/armv7e-m/fpu\libc.a(lib_a-fopen.o)
                              ./rt-thread/components/libc/compilers/gcc/newlib/stdio.o (fopen)
c:/rt-threadstudio/repo/extract/toolchain_support_packages/arm/gnu_tools_for_arm_embedded_processors/5.4.1/bin/../lib/gcc/arm-none-eabi/5.4.1/../../../../arm-none-eabi/lib/armv7e-m/fpu\libc.a(lib_a-fseek.o)
                              c:/rt-threadstudio/repo/extract/toolchain_support_packages/arm/gnu_tools_for_arm_embedded_processors/5.4.1/bin/../lib/gcc/arm-none-eabi/5.4.1/../../../../arm-none-eabi/lib/armv7e-m/fpu\libc.a(lib_a-fopen.o) (_fseek_r)
c:/rt-threadstudio/repo/extract/toolchain_support_packages/arm/gnu_tools_for_arm_embedded_processors/5.4.1/bin/../lib/gcc/arm-none-eabi/5.4.1/../../../../arm-none-eabi/lib/armv7e-m/fpu\libc.a(lib_a-fseeko.o)
                              c:/rt-threadstudio/repo/extract/toolchain_support_packages/arm/gnu_tools_for_arm_embedded_processors/5.4.1/bin/../lib/gcc/arm-none-eabi/5.4.1/../../../../arm-none-eabi/lib/armv7e-m/fpu\libc.a(lib_a-fseek.o) (_fseeko_r)
c:/rt-threadstudio/repo/extract/toolchain_support_packages/arm/gnu_tools_for_arm_embedded_processors/5.4.1/bin/../lib/gcc/arm-none-eabi/5.4.1/../../../../arm-none-eabi/lib/armv7e-m/fpu\libc.a(lib_a-fwalk.o)
                              c:/rt-threadstudio/repo/extract/toolchain_support_packages/arm/gnu_tools_for_arm_embedded_processors/5.4.1/bin/../lib/gcc/arm-none-eabi/5.4.1/../../../../arm-none-eabi/lib/armv7e-m/fpu\libc.a(lib_a-findfp.o) (_fwalk)
c:/rt-threadstudio/repo/extract/toolchain_support_packages/arm/gnu_tools_for_arm_embedded_processors/5.4.1/bin/../lib/gcc/arm-none-eabi/5.4.1/../../../../arm-none-eabi/lib/armv7e-m/fpu\libc.a(lib_a-impure.o)
                              ./rt-thread/components/libc/compilers/gcc/newlib/stdio.o (_global_impure_ptr)
c:/rt-threadstudio/repo/extract/toolchain_support_packages/arm/gnu_tools_for_arm_embedded_processors/5.4.1/bin/../lib/gcc/arm-none-eabi/5.4.1/../../../../arm-none-eabi/lib/armv7e-m/fpu\libc.a(lib_a-makebuf.o)
                              c:/rt-threadstudio/repo/extract/toolchain_support_packages/arm/gnu_tools_for_arm_embedded_processors/5.4.1/bin/../lib/gcc/arm-none-eabi/5.4.1/../../../../arm-none-eabi/lib/armv7e-m/fpu\libc.a(lib_a-fseeko.o) (__smakebuf_r)
c:/rt-threadstudio/repo/extract/toolchain_support_packages/arm/gnu_tools_for_arm_embedded_processors/5.4.1/bin/../lib/gcc/arm-none-eabi/5.4.1/../../../../arm-none-eabi/lib/armv7e-m/fpu\libc.a(lib_a-memcmp.o)
                              ./rt-thread/components/finsh/shell.o (memcmp)
c:/rt-threadstudio/repo/extract/toolchain_support_packages/arm/gnu_tools_for_arm_embedded_processors/5.4.1/bin/../lib/gcc/arm-none-eabi/5.4.1/../../../../arm-none-eabi/lib/armv7e-m/fpu\libc.a(lib_a-memcpy.o)
                              ./rt-thread/components/finsh/shell.o (memcpy)
c:/rt-threadstudio/repo/extract/toolchain_support_packages/arm/gnu_tools_for_arm_embedded_processors/5.4.1/bin/../lib/gcc/arm-none-eabi/5.4.1/../../../../arm-none-eabi/lib/armv7e-m/fpu\libc.a(lib_a-memset.o)
                              c:/rt-threadstudio/repo/extract/toolchain_support_packages/arm/gnu_tools_for_arm_embedded_processors/5.4.1/bin/../lib/gcc/arm-none-eabi/5.4.1/../../../../arm-none-eabi/lib/armv7e-m/fpu/crt0.o (memset)
c:/rt-threadstudio/repo/extract/toolchain_support_packages/arm/gnu_tools_for_arm_embedded_processors/5.4.1/bin/../lib/gcc/arm-none-eabi/5.4.1/../../../../arm-none-eabi/lib/armv7e-m/fpu\libc.a(lib_a-refill.o)
                              c:/rt-threadstudio/repo/extract/toolchain_support_packages/arm/gnu_tools_for_arm_embedded_processors/5.4.1/bin/../lib/gcc/arm-none-eabi/5.4.1/../../../../arm-none-eabi/lib/armv7e-m/fpu\libc.a(lib_a-fseeko.o) (__srefill_r)
c:/rt-threadstudio/repo/extract/toolchain_support_packages/arm/gnu_tools_for_arm_embedded_processors/5.4.1/bin/../lib/gcc/arm-none-eabi/5.4.1/../../../../arm-none-eabi/lib/armv7e-m/fpu\libc.a(lib_a-setvbuf.o)
                              ./rt-thread/components/libc/compilers/gcc/newlib/stdio.o (setvbuf)
c:/rt-threadstudio/repo/extract/toolchain_support_packages/arm/gnu_tools_for_arm_embedded_processors/5.4.1/bin/../lib/gcc/arm-none-eabi/5.4.1/../../../../arm-none-eabi/lib/armv7e-m/fpu\libc.a(lib_a-snprintf.o)
                              ./rt-thread/components/libc/compilers/gcc/newlib/stdio.o (snprintf)
c:/rt-threadstudio/repo/extract/toolchain_support_packages/arm/gnu_tools_for_arm_embedded_processors/5.4.1/bin/../lib/gcc/arm-none-eabi/5.4.1/../../../../arm-none-eabi/lib/armv7e-m/fpu\libc.a(lib_a-sprintf.o)
                              ./packages/CmBacktrace-v1.4.0/cm_backtrace.o (sprintf)
c:/rt-threadstudio/repo/extract/toolchain_support_packages/arm/gnu_tools_for_arm_embedded_processors/5.4.1/bin/../lib/gcc/arm-none-eabi/5.4.1/../../../../arm-none-eabi/lib/armv7e-m/fpu\libc.a(lib_a-stdio.o)
                              c:/rt-threadstudio/repo/extract/toolchain_support_packages/arm/gnu_tools_for_arm_embedded_processors/5.4.1/bin/../lib/gcc/arm-none-eabi/5.4.1/../../../../arm-none-eabi/lib/armv7e-m/fpu\libc.a(lib_a-findfp.o) (__sread)
c:/rt-threadstudio/repo/extract/toolchain_support_packages/arm/gnu_tools_for_arm_embedded_processors/5.4.1/bin/../lib/gcc/arm-none-eabi/5.4.1/../../../../arm-none-eabi/lib/armv7e-m/fpu\libc.a(lib_a-strcmp.o)
                              ./packages/CmBacktrace-v1.4.0/cmb_port.o (strcmp)
c:/rt-threadstudio/repo/extract/toolchain_support_packages/arm/gnu_tools_for_arm_embedded_processors/5.4.1/bin/../lib/gcc/arm-none-eabi/5.4.1/../../../../arm-none-eabi/lib/armv7e-m/fpu\libc.a(lib_a-strcpy.o)
                              ./rt-thread/components/finsh/shell.o (strcpy)
c:/rt-threadstudio/repo/extract/toolchain_support_packages/arm/gnu_tools_for_arm_embedded_processors/5.4.1/bin/../lib/gcc/arm-none-eabi/5.4.1/../../../../arm-none-eabi/lib/armv7e-m/fpu\libc.a(lib_a-strlen.o)
                              ./rt-thread/components/finsh/msh.o (strlen)
c:/rt-threadstudio/repo/extract/toolchain_support_packages/arm/gnu_tools_for_arm_embedded_processors/5.4.1/bin/../lib/gcc/arm-none-eabi/5.4.1/../../../../arm-none-eabi/lib/armv7e-m/fpu\libc.a(lib_a-strncmp.o)
                              ./rt-thread/components/finsh/cmd.o (strncmp)
c:/rt-threadstudio/repo/extract/toolchain_support_packages/arm/gnu_tools_for_arm_embedded_processors/5.4.1/bin/../lib/gcc/arm-none-eabi/5.4.1/../../../../arm-none-eabi/lib/armv7e-m/fpu\libc.a(lib_a-strncpy.o)
                              ./rt-thread/components/finsh/shell.o (strncpy)
c:/rt-threadstudio/repo/extract/toolchain_support_packages/arm/gnu_tools_for_arm_embedded_processors/5.4.1/bin/../lib/gcc/arm-none-eabi/5.4.1/../../../../arm-none-eabi/lib/armv7e-m/fpu\libc.a(lib_a-strtol.o)
                              c:/rt-threadstudio/repo/extract/toolchain_support_packages/arm/gnu_tools_for_arm_embedded_processors/5.4.1/bin/../lib/gcc/arm-none-eabi/5.4.1/../../../../arm-none-eabi/lib/armv7e-m/fpu\libc.a(lib_a-atoi.o) (_strtol_r)
c:/rt-threadstudio/repo/extract/toolchain_support_packages/arm/gnu_tools_for_arm_embedded_processors/5.4.1/bin/../lib/gcc/arm-none-eabi/5.4.1/../../../../arm-none-eabi/lib/armv7e-m/fpu\libc.a(lib_a-svfprintf.o)
                              c:/rt-threadstudio/repo/extract/toolchain_support_packages/arm/gnu_tools_for_arm_embedded_processors/5.4.1/bin/../lib/gcc/arm-none-eabi/5.4.1/../../../../arm-none-eabi/lib/armv7e-m/fpu\libc.a(lib_a-snprintf.o) (_svfprintf_r)
c:/rt-threadstudio/repo/extract/toolchain_support_packages/arm/gnu_tools_for_arm_embedded_processors/5.4.1/bin/../lib/gcc/arm-none-eabi/5.4.1/../../../../arm-none-eabi/lib/armv7e-m/fpu\libc.a(lib_a-__call_atexit.o)
                              c:/rt-threadstudio/repo/extract/toolchain_support_packages/arm/gnu_tools_for_arm_embedded_processors/5.4.1/bin/../lib/gcc/arm-none-eabi/5.4.1/../../../../arm-none-eabi/lib/armv7e-m/fpu\libc.a(lib_a-exit.o) (__call_exitprocs)
c:/rt-threadstudio/repo/extract/toolchain_support_packages/arm/gnu_tools_for_arm_embedded_processors/5.4.1/bin/../lib/gcc/arm-none-eabi/5.4.1/../../../../arm-none-eabi/lib/armv7e-m/fpu\libc.a(lib_a-atexit.o)
                              c:/rt-threadstudio/repo/extract/toolchain_support_packages/arm/gnu_tools_for_arm_embedded_processors/5.4.1/bin/../lib/gcc/arm-none-eabi/5.4.1/../../../../arm-none-eabi/lib/armv7e-m/fpu\libc.a(lib_a-__call_atexit.o) (atexit)
c:/rt-threadstudio/repo/extract/toolchain_support_packages/arm/gnu_tools_for_arm_embedded_processors/5.4.1/bin/../lib/gcc/arm-none-eabi/5.4.1/../../../../arm-none-eabi/lib/armv7e-m/fpu\libc.a(lib_a-dtoa.o)
                              c:/rt-threadstudio/repo/extract/toolchain_support_packages/arm/gnu_tools_for_arm_embedded_processors/5.4.1/bin/../lib/gcc/arm-none-eabi/5.4.1/../../../../arm-none-eabi/lib/armv7e-m/fpu\libc.a(lib_a-svfprintf.o) (_dtoa_r)
c:/rt-threadstudio/repo/extract/toolchain_support_packages/arm/gnu_tools_for_arm_embedded_processors/5.4.1/bin/../lib/gcc/arm-none-eabi/5.4.1/../../../../arm-none-eabi/lib/armv7e-m/fpu\libc.a(lib_a-fini.o)
                              c:/rt-threadstudio/repo/extract/toolchain_support_packages/arm/gnu_tools_for_arm_embedded_processors/5.4.1/bin/../lib/gcc/arm-none-eabi/5.4.1/../../../../arm-none-eabi/lib/armv7e-m/fpu\libc.a(lib_a-__call_atexit.o) (__libc_fini_array)
c:/rt-threadstudio/repo/extract/toolchain_support_packages/arm/gnu_tools_for_arm_embedded_processors/5.4.1/bin/../lib/gcc/arm-none-eabi/5.4.1/../../../../arm-none-eabi/lib/armv7e-m/fpu\libc.a(lib_a-flags.o)
                              c:/rt-threadstudio/repo/extract/toolchain_support_packages/arm/gnu_tools_for_arm_embedded_processors/5.4.1/bin/../lib/gcc/arm-none-eabi/5.4.1/../../../../arm-none-eabi/lib/armv7e-m/fpu\libc.a(lib_a-fopen.o) (__sflags)
c:/rt-threadstudio/repo/extract/toolchain_support_packages/arm/gnu_tools_for_arm_embedded_processors/5.4.1/bin/../lib/gcc/arm-none-eabi/5.4.1/../../../../arm-none-eabi/lib/armv7e-m/fpu\libc.a(lib_a-locale.o)
                              c:/rt-threadstudio/repo/extract/toolchain_support_packages/arm/gnu_tools_for_arm_embedded_processors/5.4.1/bin/../lib/gcc/arm-none-eabi/5.4.1/../../../../arm-none-eabi/lib/armv7e-m/fpu\libc.a(lib_a-strtol.o) (__locale_ctype_ptr_l)
c:/rt-threadstudio/repo/extract/toolchain_support_packages/arm/gnu_tools_for_arm_embedded_processors/5.4.1/bin/../lib/gcc/arm-none-eabi/5.4.1/../../../../arm-none-eabi/lib/armv7e-m/fpu\libc.a(lib_a-localeconv.o)
                              c:/rt-threadstudio/repo/extract/toolchain_support_packages/arm/gnu_tools_for_arm_embedded_processors/5.4.1/bin/../lib/gcc/arm-none-eabi/5.4.1/../../../../arm-none-eabi/lib/armv7e-m/fpu\libc.a(lib_a-svfprintf.o) (_localeconv_r)
c:/rt-threadstudio/repo/extract/toolchain_support_packages/arm/gnu_tools_for_arm_embedded_processors/5.4.1/bin/../lib/gcc/arm-none-eabi/5.4.1/../../../../arm-none-eabi/lib/armv7e-m/fpu\libc.a(lib_a-malloc.o)
                              c:/rt-threadstudio/repo/extract/toolchain_support_packages/arm/gnu_tools_for_arm_embedded_processors/5.4.1/bin/../lib/gcc/arm-none-eabi/5.4.1/../../../../arm-none-eabi/lib/armv7e-m/fpu\libc.a(lib_a-setvbuf.o) (malloc)
c:/rt-threadstudio/repo/extract/toolchain_support_packages/arm/gnu_tools_for_arm_embedded_processors/5.4.1/bin/../lib/gcc/arm-none-eabi/5.4.1/../../../../arm-none-eabi/lib/armv7e-m/fpu\libc.a(lib_a-mbtowc_r.o)
                              c:/rt-threadstudio/repo/extract/toolchain_support_packages/arm/gnu_tools_for_arm_embedded_processors/5.4.1/bin/../lib/gcc/arm-none-eabi/5.4.1/../../../../arm-none-eabi/lib/armv7e-m/fpu\libc.a(lib_a-locale.o) (__ascii_mbtowc)
c:/rt-threadstudio/repo/extract/toolchain_support_packages/arm/gnu_tools_for_arm_embedded_processors/5.4.1/bin/../lib/gcc/arm-none-eabi/5.4.1/../../../../arm-none-eabi/lib/armv7e-m/fpu\libc.a(lib_a-memchr.o)
                              c:/rt-threadstudio/repo/extract/toolchain_support_packages/arm/gnu_tools_for_arm_embedded_processors/5.4.1/bin/../lib/gcc/arm-none-eabi/5.4.1/../../../../arm-none-eabi/lib/armv7e-m/fpu\libc.a(lib_a-svfprintf.o) (memchr)
c:/rt-threadstudio/repo/extract/toolchain_support_packages/arm/gnu_tools_for_arm_embedded_processors/5.4.1/bin/../lib/gcc/arm-none-eabi/5.4.1/../../../../arm-none-eabi/lib/armv7e-m/fpu\libc.a(lib_a-mprec.o)
                              c:/rt-threadstudio/repo/extract/toolchain_support_packages/arm/gnu_tools_for_arm_embedded_processors/5.4.1/bin/../lib/gcc/arm-none-eabi/5.4.1/../../../../arm-none-eabi/lib/armv7e-m/fpu\libc.a(lib_a-dtoa.o) (_Balloc)
c:/rt-threadstudio/repo/extract/toolchain_support_packages/arm/gnu_tools_for_arm_embedded_processors/5.4.1/bin/../lib/gcc/arm-none-eabi/5.4.1/../../../../arm-none-eabi/lib/armv7e-m/fpu\libc.a(lib_a-svfiprintf.o)
                              c:/rt-threadstudio/repo/extract/toolchain_support_packages/arm/gnu_tools_for_arm_embedded_processors/5.4.1/bin/../lib/gcc/arm-none-eabi/5.4.1/../../../../arm-none-eabi/lib/armv7e-m/fpu\libc.a(lib_a-svfprintf.o) (__ssprint_r)
c:/rt-threadstudio/repo/extract/toolchain_support_packages/arm/gnu_tools_for_arm_embedded_processors/5.4.1/bin/../lib/gcc/arm-none-eabi/5.4.1/../../../../arm-none-eabi/lib/armv7e-m/fpu\libc.a(lib_a-wctomb_r.o)
                              c:/rt-threadstudio/repo/extract/toolchain_support_packages/arm/gnu_tools_for_arm_embedded_processors/5.4.1/bin/../lib/gcc/arm-none-eabi/5.4.1/../../../../arm-none-eabi/lib/armv7e-m/fpu\libc.a(lib_a-locale.o) (__ascii_wctomb)
c:/rt-threadstudio/repo/extract/toolchain_support_packages/arm/gnu_tools_for_arm_embedded_processors/5.4.1/bin/../lib/gcc/arm-none-eabi/5.4.1/../../../../arm-none-eabi/lib/armv7e-m/fpu\libc.a(lib_a-__atexit.o)
                              c:/rt-threadstudio/repo/extract/toolchain_support_packages/arm/gnu_tools_for_arm_embedded_processors/5.4.1/bin/../lib/gcc/arm-none-eabi/5.4.1/../../../../arm-none-eabi/lib/armv7e-m/fpu\libc.a(lib_a-atexit.o) (__register_exitproc)
c:/rt-threadstudio/repo/extract/toolchain_support_packages/arm/gnu_tools_for_arm_embedded_processors/5.4.1/bin/../lib/gcc/arm-none-eabi/5.4.1/../../../../arm-none-eabi/lib/armv7e-m/fpu\libc.a(lib_a-ctype_.o)
                              c:/rt-threadstudio/repo/extract/toolchain_support_packages/arm/gnu_tools_for_arm_embedded_processors/5.4.1/bin/../lib/gcc/arm-none-eabi/5.4.1/../../../../arm-none-eabi/lib/armv7e-m/fpu\libc.a(lib_a-locale.o) (_ctype_)
c:/rt-threadstudio/repo/extract/toolchain_support_packages/arm/gnu_tools_for_arm_embedded_processors/5.4.1/bin/../lib/gcc/arm-none-eabi/5.4.1/../../../../arm-none-eabi/lib/armv7e-m/fpu\libc.a(lib_a-memmove.o)
                              c:/rt-threadstudio/repo/extract/toolchain_support_packages/arm/gnu_tools_for_arm_embedded_processors/5.4.1/bin/../lib/gcc/arm-none-eabi/5.4.1/../../../../arm-none-eabi/lib/armv7e-m/fpu\libc.a(lib_a-svfiprintf.o) (memmove)
c:/rt-threadstudio/repo/extract/toolchain_support_packages/arm/gnu_tools_for_arm_embedded_processors/5.4.1/bin/../lib/gcc/arm-none-eabi/5.4.1/armv7e-m/fpu\libgcc.a(_arm_addsubdf3.o)
                              c:/rt-threadstudio/repo/extract/toolchain_support_packages/arm/gnu_tools_for_arm_embedded_processors/5.4.1/bin/../lib/gcc/arm-none-eabi/5.4.1/../../../../arm-none-eabi/lib/armv7e-m/fpu\libc.a(lib_a-dtoa.o) (__aeabi_dsub)
c:/rt-threadstudio/repo/extract/toolchain_support_packages/arm/gnu_tools_for_arm_embedded_processors/5.4.1/bin/../lib/gcc/arm-none-eabi/5.4.1/armv7e-m/fpu\libgcc.a(_arm_muldivdf3.o)
                              ./rt-thread/components/drivers/misc/rt_drv_pwm.o (__aeabi_dmul)
c:/rt-threadstudio/repo/extract/toolchain_support_packages/arm/gnu_tools_for_arm_embedded_processors/5.4.1/bin/../lib/gcc/arm-none-eabi/5.4.1/armv7e-m/fpu\libgcc.a(_arm_cmpdf2.o)
                              c:/rt-threadstudio/repo/extract/toolchain_support_packages/arm/gnu_tools_for_arm_embedded_processors/5.4.1/bin/../lib/gcc/arm-none-eabi/5.4.1/../../../../arm-none-eabi/lib/armv7e-m/fpu\libc.a(lib_a-svfprintf.o) (__aeabi_dcmpeq)
c:/rt-threadstudio/repo/extract/toolchain_support_packages/arm/gnu_tools_for_arm_embedded_processors/5.4.1/bin/../lib/gcc/arm-none-eabi/5.4.1/armv7e-m/fpu\libgcc.a(_arm_unorddf2.o)
                              c:/rt-threadstudio/repo/extract/toolchain_support_packages/arm/gnu_tools_for_arm_embedded_processors/5.4.1/bin/../lib/gcc/arm-none-eabi/5.4.1/../../../../arm-none-eabi/lib/armv7e-m/fpu\libc.a(lib_a-svfprintf.o) (__aeabi_dcmpun)
c:/rt-threadstudio/repo/extract/toolchain_support_packages/arm/gnu_tools_for_arm_embedded_processors/5.4.1/bin/../lib/gcc/arm-none-eabi/5.4.1/armv7e-m/fpu\libgcc.a(_arm_fixdfsi.o)
                              ./rt-thread/components/drivers/misc/rt_drv_pwm.o (__aeabi_d2iz)
c:/rt-threadstudio/repo/extract/toolchain_support_packages/arm/gnu_tools_for_arm_embedded_processors/5.4.1/bin/../lib/gcc/arm-none-eabi/5.4.1/armv7e-m/fpu\libgcc.a(_aeabi_uldivmod.o)
                              c:/rt-threadstudio/repo/extract/toolchain_support_packages/arm/gnu_tools_for_arm_embedded_processors/5.4.1/bin/../lib/gcc/arm-none-eabi/5.4.1/../../../../arm-none-eabi/lib/armv7e-m/fpu\libc.a(lib_a-svfprintf.o) (__aeabi_uldivmod)
c:/rt-threadstudio/repo/extract/toolchain_support_packages/arm/gnu_tools_for_arm_embedded_processors/5.4.1/bin/../lib/gcc/arm-none-eabi/5.4.1/armv7e-m/fpu\libgcc.a(_udivmoddi4.o)
                              c:/rt-threadstudio/repo/extract/toolchain_support_packages/arm/gnu_tools_for_arm_embedded_processors/5.4.1/bin/../lib/gcc/arm-none-eabi/5.4.1/armv7e-m/fpu\libgcc.a(_aeabi_uldivmod.o) (__udivmoddi4)
c:/rt-threadstudio/repo/extract/toolchain_support_packages/arm/gnu_tools_for_arm_embedded_processors/5.4.1/bin/../lib/gcc/arm-none-eabi/5.4.1/armv7e-m/fpu\libgcc.a(_dvmd_tls.o)
                              c:/rt-threadstudio/repo/extract/toolchain_support_packages/arm/gnu_tools_for_arm_embedded_processors/5.4.1/bin/../lib/gcc/arm-none-eabi/5.4.1/armv7e-m/fpu\libgcc.a(_aeabi_uldivmod.o) (__aeabi_ldiv0)

Allocating common symbols
Common symbol       size              file

rt_interrupt_to_thread
                    0x4               ./rt-thread/libcpu/arm/cortex-m4/cpuport.o
DMAPTPRxDescToGet   0x4               ./Libraries/N32_Std_Driver/n32g45x_std_periph_driver/src/n32g45x_eth.o
rt_interrupt_from_thread
                    0x4               ./rt-thread/libcpu/arm/cortex-m4/cpuport.o
shell               0x4               ./rt-thread/components/finsh/shell.o
DMARxDescToGet      0x4               ./Libraries/N32_Std_Driver/n32g45x_std_periph_driver/src/n32g45x_eth.o
rt_thread_switch_interrupt_flag
                    0x4               ./rt-thread/libcpu/arm/cortex-m4/cpuport.o
DMATxDescToSet      0x4               ./Libraries/N32_Std_Driver/n32g45x_std_periph_driver/src/n32g45x_eth.o
rt_thread_priority_table
                    0x100             ./rt-thread/src/scheduler.o
serial1             0x54              ./Libraries/rt_drivers/drv_usart.o
rt_object_put_hook  0x4               ./rt-thread/src/object.o
rt_current_priority
                    0x1               ./rt-thread/src/scheduler.o
rt_assert_hook      0x4               ./rt-thread/src/kservice.o
serial3             0x54              ./Libraries/rt_drivers/drv_usart.o
rt_object_take_hook
                    0x4               ./rt-thread/src/object.o
rt_thread_ready_priority_group
                    0x4               ./rt-thread/src/scheduler.o
rt_object_trytake_hook
                    0x4               ./rt-thread/src/object.o
serial2             0x54              ./Libraries/rt_drivers/drv_usart.o
DMAPTPTxDescToSet   0x4               ./Libraries/N32_Std_Driver/n32g45x_std_periph_driver/src/n32g45x_eth.o

Discarded input sections

 .text          0x00000000        0x0 c:/rt-threadstudio/repo/extract/toolchain_support_packages/arm/gnu_tools_for_arm_embedded_processors/5.4.1/bin/../lib/gcc/arm-none-eabi/5.4.1/armv7e-m/fpu/crti.o
 .data          0x00000000        0x0 c:/rt-threadstudio/repo/extract/toolchain_support_packages/arm/gnu_tools_for_arm_embedded_processors/5.4.1/bin/../lib/gcc/arm-none-eabi/5.4.1/armv7e-m/fpu/crti.o
 .bss           0x00000000        0x0 c:/rt-threadstudio/repo/extract/toolchain_support_packages/arm/gnu_tools_for_arm_embedded_processors/5.4.1/bin/../lib/gcc/arm-none-eabi/5.4.1/armv7e-m/fpu/crti.o
 .data          0x00000000        0x4 c:/rt-threadstudio/repo/extract/toolchain_support_packages/arm/gnu_tools_for_arm_embedded_processors/5.4.1/bin/../lib/gcc/arm-none-eabi/5.4.1/armv7e-m/fpu/crtbegin.o
 .fini_array    0x00000000        0x4 c:/rt-threadstudio/repo/extract/toolchain_support_packages/arm/gnu_tools_for_arm_embedded_processors/5.4.1/bin/../lib/gcc/arm-none-eabi/5.4.1/armv7e-m/fpu/crtbegin.o
 .text          0x00000000       0x74 c:/rt-threadstudio/repo/extract/toolchain_support_packages/arm/gnu_tools_for_arm_embedded_processors/5.4.1/bin/../lib/gcc/arm-none-eabi/5.4.1/../../../../arm-none-eabi/lib/armv7e-m/fpu/crt0.o
 .data          0x00000000        0x0 c:/rt-threadstudio/repo/extract/toolchain_support_packages/arm/gnu_tools_for_arm_embedded_processors/5.4.1/bin/../lib/gcc/arm-none-eabi/5.4.1/../../../../arm-none-eabi/lib/armv7e-m/fpu/crt0.o
 .bss           0x00000000        0x0 c:/rt-threadstudio/repo/extract/toolchain_support_packages/arm/gnu_tools_for_arm_embedded_processors/5.4.1/bin/../lib/gcc/arm-none-eabi/5.4.1/../../../../arm-none-eabi/lib/armv7e-m/fpu/crt0.o
 .ARM.extab     0x00000000        0x0 c:/rt-threadstudio/repo/extract/toolchain_support_packages/arm/gnu_tools_for_arm_embedded_processors/5.4.1/bin/../lib/gcc/arm-none-eabi/5.4.1/../../../../arm-none-eabi/lib/armv7e-m/fpu/crt0.o
 .ARM.exidx     0x00000000        0x8 c:/rt-threadstudio/repo/extract/toolchain_support_packages/arm/gnu_tools_for_arm_embedded_processors/5.4.1/bin/../lib/gcc/arm-none-eabi/5.4.1/../../../../arm-none-eabi/lib/armv7e-m/fpu/crt0.o
 .ARM.attributes
                0x00000000       0x20 c:/rt-threadstudio/repo/extract/toolchain_support_packages/arm/gnu_tools_for_arm_embedded_processors/5.4.1/bin/../lib/gcc/arm-none-eabi/5.4.1/../../../../arm-none-eabi/lib/armv7e-m/fpu/crt0.o
 .text          0x00000000        0x0 ./rt-thread/src/clock.o
 .data          0x00000000        0x0 ./rt-thread/src/clock.o
 .bss           0x00000000        0x0 ./rt-thread/src/clock.o
 .text.rt_tick_set
                0x00000000       0x28 ./rt-thread/src/clock.o
 .text.rt_tick_get_millisecond
Memory Configuration

Name             Origin             Length             Attributes
CODE             0x08000000         0x00040000         xr
DATA             0x20000000         0x00010000         rw
*default*        0x00000000         0xffffffff

Linker script and memory map

LOAD c:/rt-threadstudio/repo/extract/toolchain_support_packages/arm/gnu_tools_for_arm_embedded_processors/5.4.1/bin/../lib/gcc/arm-none-eabi/5.4.1/armv7e-m/fpu/crti.o
LOAD c:/rt-threadstudio/repo/extract/toolchain_support_packages/arm/gnu_tools_for_arm_embedded_processors/5.4.1/bin/../lib/gcc/arm-none-eabi/5.4.1/armv7e-m/fpu/crtbegin.o
LOAD c:/rt-threadstudio/repo/extract/toolchain_support_packages/arm/gnu_tools_for_arm_embedded_processors/5.4.1/bin/../lib/gcc/arm-none-eabi/5.4.1/../../../../arm-none-eabi/lib/armv7e-m/fpu/crt0.o
LOAD ./rt-thread/src/clock.o
LOAD ./rt-thread/src/components.o
LOAD ./rt-thread/src/device.o
LOAD ./rt-thread/src/idle.o
LOAD ./rt-thread/src/ipc.o
LOAD ./rt-thread/src/irq.o
LOAD ./rt-thread/src/kservice.o
LOAD ./rt-thread/src/mem.o
LOAD ./rt-thread/src/mempool.o
LOAD ./rt-thread/src/object.o
LOAD ./rt-thread/src/scheduler.o
LOAD ./rt-thread/src/thread.o
LOAD ./rt-thread/src/timer.o
LOAD ./rt-thread/libcpu/arm/cortex-m4/context_gcc.o
LOAD ./rt-thread/libcpu/arm/cortex-m4/cpuport.o
LOAD ./rt-thread/libcpu/arm/common/backtrace.o
LOAD ./rt-thread/libcpu/arm/common/div0.o
LOAD ./rt-thread/libcpu/arm/common/showmem.o
LOAD ./rt-thread/components/utilities/ulog/backend/console_be.o
LOAD ./rt-thread/components/utilities/ulog/ulog.o
LOAD ./rt-thread/components/libc/compilers/gcc/newlib/libc.o
LOAD ./rt-thread/components/libc/compilers/gcc/newlib/stdio.o
LOAD ./rt-thread/components/libc/compilers/gcc/newlib/syscalls.o
LOAD ./rt-thread/components/libc/compilers/common/stdlib.o
LOAD ./rt-thread/components/libc/compilers/common/time.o
LOAD ./rt-thread/components/finsh/cmd.o
LOAD ./rt-thread/components/finsh/msh.o
LOAD ./rt-thread/components/finsh/shell.o
LOAD ./rt-thread/components/drivers/usb/usbdevice/core/usbdevice.o
LOAD ./rt-thread/components/drivers/usb/usbdevice/core/usbdevice_core.o
LOAD ./rt-thread/components/drivers/usb/usbdevice/class/cdc_vcom.o
LOAD ./rt-thread/components/drivers/src/completion.o
LOAD ./rt-thread/components/drivers/src/dataqueue.o
LOAD ./rt-thread/components/drivers/src/pipe.o
LOAD ./rt-thread/components/drivers/src/ringblk_buf.o
LOAD ./rt-thread/components/drivers/src/ringbuffer.o
LOAD ./rt-thread/components/drivers/src/waitqueue.o
LOAD ./rt-thread/components/drivers/src/workqueue.o
LOAD ./rt-thread/components/drivers/serial/serial.o
LOAD ./rt-thread/components/drivers/misc/pin.o
LOAD ./rt-thread/components/drivers/misc/rt_drv_pwm.o
LOAD ./rt-thread/components/drivers/hwtimer/hwtimer.o
LOAD ./rt-thread/components/drivers/cputime/cputime.o
LOAD ./packages/peripheral_samples-latest/led_blink_sample.o
LOAD ./packages/peripheral_samples-latest/uart_dma_sample.o
LOAD ./packages/button-v1.0.1/button.o
LOAD ./packages/CmBacktrace-v1.4.0/cm_backtrace.o
LOAD ./packages/CmBacktrace-v1.4.0/cmb_flash_log.o
LOAD ./packages/CmBacktrace-v1.4.0/cmb_port.o
LOAD ./board/msp/n32_msp.o
LOAD ./board/board.o
LOAD ./applications/main.o
LOAD ./Libraries/rt_drivers/drv_common.o
LOAD ./Libraries/rt_drivers/drv_gpio.o
LOAD ./Libraries/rt_drivers/drv_usart.o
LOAD ./Libraries/N32_Std_Driver/n32g45x_std_periph_driver/src/misc.o
LOAD ./Libraries/N32_Std_Driver/n32g45x_std_periph_driver/src/n32g45x_adc.o
LOAD ./Libraries/N32_Std_Driver/n32g45x_std_periph_driver/src/n32g45x_bkp.o
LOAD ./Libraries/N32_Std_Driver/n32g45x_std_periph_driver/src/n32g45x_can.o
LOAD ./Libraries/N32_Std_Driver/n32g45x_std_periph_driver/src/n32g45x_comp.o
LOAD ./Libraries/N32_Std_Driver/n32g45x_std_periph_driver/src/n32g45x_crc.o
LOAD ./Libraries/N32_Std_Driver/n32g45x_std_periph_driver/src/n32g45x_dac.o
LOAD ./Libraries/N32_Std_Driver/n32g45x_std_periph_driver/src/n32g45x_dbg.o
LOAD ./Libraries/N32_Std_Driver/n32g45x_std_periph_driver/src/n32g45x_dma.o
LOAD ./Libraries/N32_Std_Driver/n32g45x_std_periph_driver/src/n32g45x_dvp.o
LOAD ./Libraries/N32_Std_Driver/n32g45x_std_periph_driver/src/n32g45x_eth.o
LOAD ./Libraries/N32_Std_Driver/n32g45x_std_periph_driver/src/n32g45x_exti.o
LOAD ./Libraries/N32_Std_Driver/n32g45x_std_periph_driver/src/n32g45x_flash.o
LOAD ./Libraries/N32_Std_Driver/n32g45x_std_periph_driver/src/n32g45x_gpio.o
LOAD ./Libraries/N32_Std_Driver/n32g45x_std_periph_driver/src/n32g45x_i2c.o
LOAD ./Libraries/N32_Std_Driver/n32g45x_std_periph_driver/src/n32g45x_iwdg.o
LOAD ./Libraries/N32_Std_Driver/n32g45x_std_periph_driver/src/n32g45x_opamp.o
LOAD ./Libraries/N32_Std_Driver/n32g45x_std_periph_driver/src/n32g45x_pwr.o
LOAD ./Libraries/N32_Std_Driver/n32g45x_std_periph_driver/src/n32g45x_qspi.o
LOAD ./Libraries/N32_Std_Driver/n32g45x_std_periph_driver/src/n32g45x_rcc.o
LOAD ./Libraries/N32_Std_Driver/n32g45x_std_periph_driver/src/n32g45x_rtc.o
LOAD ./Libraries/N32_Std_Driver/n32g45x_std_periph_driver/src/n32g45x_sdio.o
LOAD ./Libraries/N32_Std_Driver/n32g45x_std_periph_driver/src/n32g45x_spi.o
LOAD ./Libraries/N32_Std_Driver/n32g45x_std_periph_driver/src/n32g45x_tim.o
LOAD ./Libraries/N32_Std_Driver/n32g45x_std_periph_driver/src/n32g45x_tsc.o
LOAD ./Libraries/N32_Std_Driver/n32g45x_std_periph_driver/src/n32g45x_usart.o
LOAD ./Libraries/N32_Std_Driver/n32g45x_std_periph_driver/src/n32g45x_wwdg.o
LOAD ./Libraries/N32_Std_Driver/n32g45x_std_periph_driver/src/n32g45x_xfmc.o
LOAD ./Libraries/N32_Std_Driver/CMSIS/device/startup/startup_n32g45x_gcc.o
LOAD ./Libraries/N32_Std_Driver/CMSIS/device/system_n32g45x.o
LOAD c:/rt-threadstudio/repo/extract/toolchain_support_packages/arm/gnu_tools_for_arm_embedded_processors/5.4.1/bin/../lib/gcc/arm-none-eabi/5.4.1/../../../../arm-none-eabi/lib/armv7e-m/fpu\libm.a
LOAD c:/rt-threadstudio/repo/extract/toolchain_support_packages/arm/gnu_tools_for_arm_embedded_processors/5.4.1/bin/../lib/gcc/arm-none-eabi/5.4.1/../../../../arm-none-eabi/lib/armv7e-m/fpu\libc.a
START GROUP
LOAD c:/rt-threadstudio/repo/extract/toolchain_support_packages/arm/gnu_tools_for_arm_embedded_processors/5.4.1/bin/../lib/gcc/arm-none-eabi/5.4.1/armv7e-m/fpu\libgcc.a
LOAD c:/rt-threadstudio/repo/extract/toolchain_support_packages/arm/gnu_tools_for_arm_embedded_processors/5.4.1/bin/../lib/gcc/arm-none-eabi/5.4.1/../../../../arm-none-eabi/lib/armv7e-m/fpu\libc.a
END GROUP
LOAD c:/rt-threadstudio/repo/extract/toolchain_support_packages/arm/gnu_tools_for_arm_embedded_processors/5.4.1/bin/../lib/gcc/arm-none-eabi/5.4.1/armv7e-m/fpu/crtend.o
LOAD c:/rt-threadstudio/repo/extract/toolchain_support_packages/arm/gnu_tools_for_arm_embedded_processors/5.4.1/bin/../lib/gcc/arm-none-eabi/5.4.1/armv7e-m/fpu/crtn.o
                0x00000200                _system_stack_size = 0x200

.text           0x08000000    0x17d68
                0x08000000                . = ALIGN (0x4)
                0x08000000                _stext = .
 *(.isr_vector)
 .isr_vector    0x08000000      0x188 ./Libraries/N32_Std_Driver/CMSIS/device/startup/startup_n32g45x_gcc.o
                0x08000000                g_pfnVectors
                0x08000188                . = ALIGN (0x4)
 *(.text)
 .text          0x08000188       0x5c c:/rt-threadstudio/repo/extract/toolchain_support_packages/arm/gnu_tools_for_arm_embedded_processors/5.4.1/bin/../lib/gcc/arm-none-eabi/5.4.1/armv7e-m/fpu/crtbegin.o
 .text          0x080001e4      0x13c ./rt-thread/libcpu/arm/cortex-m4/context_gcc.o
                0x080001e4                rt_hw_interrupt_disable
                0x080001ec                rt_hw_interrupt_enable
                0x080001f2                rt_hw_context_switch_interrupt
                0x080001f2                rt_hw_context_switch
                0x08000212                PendSV_Handler
                0x0800027e                rt_hw_context_switch_to
                0x080002c4                rt_hw_interrupt_thread_switch
                0x080002c8                HardFault_Handler
 .text          0x08000320      0x134 c:/rt-threadstudio/repo/extract/toolchain_support_packages/arm/gnu_tools_for_arm_embedded_processors/5.4.1/bin/../lib/gcc/arm-none-eabi/5.4.1/../../../../arm-none-eabi/lib/armv7e-m/fpu\libc.a(lib_a-memcpy.o)
                0x08000320                memcpy
 *fill*         0x08000454        0xc 00000000
 .text          0x08000460      0x2dc c:/rt-threadstudio/repo/extract/toolchain_support_packages/arm/gnu_tools_for_arm_embedded_processors/5.4.1/bin/../lib/gcc/arm-none-eabi/5.4.1/../../../../arm-none-eabi/lib/armv7e-m/fpu\libc.a(lib_a-strcmp.o)
                0x08000468                strcmp
 *fill*         0x0800073c        0x4 00000000
 .text          0x08000740       0xdc c:/rt-threadstudio/repo/extract/toolchain_support_packages/arm/gnu_tools_for_arm_embedded_processors/5.4.1/bin/../lib/gcc/arm-none-eabi/5.4.1/../../../../arm-none-eabi/lib/armv7e-m/fpu\libc.a(lib_a-strlen.o)
                0x08000740                strlen
 *fill*         0x0800081c        0x4 00000000
 .text          0x08000820       0xa0 c:/rt-threadstudio/repo/extract/toolchain_support_packages/arm/gnu_tools_for_arm_embedded_processors/5.4.1/bin/../lib/gcc/arm-none-eabi/5.4.1/../../../../arm-none-eabi/lib/armv7e-m/fpu\libc.a(lib_a-memchr.o)
                0x08000820                memchr
 .text          0x080008c0      0x370 c:/rt-threadstudio/repo/extract/toolchain_support_packages/arm/gnu_tools_for_arm_embedded_processors/5.4.1/bin/../lib/gcc/arm-none-eabi/5.4.1/armv7e-m/fpu\libgcc.a(_arm_addsubdf3.o)
                0x080008c0                __aeabi_drsub
                0x080008c8                __aeabi_dsub
                0x080008c8                __subdf3
                0x080008cc                __aeabi_dadd
                0x080008cc                __adddf3
                0x08000b44                __floatunsidf
                0x08000b44                __aeabi_ui2d
                0x08000b64                __floatsidf
                0x08000b64                __aeabi_i2d
                0x08000b88                __aeabi_f2d
                0x08000b88                __extendsfdf2
                0x08000bc4                __floatundidf
                0x08000bc4                __aeabi_ul2d
                0x08000bd4                __floatdidf
                0x08000bd4                __aeabi_l2d
 .text          0x08000c30      0x424 c:/rt-threadstudio/repo/extract/toolchain_support_packages/arm/gnu_tools_for_arm_embedded_processors/5.4.1/bin/../lib/gcc/arm-none-eabi/5.4.1/armv7e-m/fpu\libgcc.a(_arm_muldivdf3.o)
                0x08000c30                __aeabi_dmul
                0x08000c30                __muldf3
                0x08000e84                __divdf3
                0x08000e84                __aeabi_ddiv
 .text          0x08001054      0x110 c:/rt-threadstudio/repo/extract/toolchain_support_packages/arm/gnu_tools_for_arm_embedded_processors/5.4.1/bin/../lib/gcc/arm-none-eabi/5.4.1/armv7e-m/fpu\libgcc.a(_arm_cmpdf2.o)
                0x08001054                __gtdf2
                0x08001054                __gedf2
                0x0800105c                __ltdf2
                0x0800105c                __ledf2
                0x08001064                __nedf2
                0x08001064                __eqdf2
                0x08001064                __cmpdf2
                0x080010e0                __aeabi_cdrcmple
                0x080010f0                __aeabi_cdcmpeq
                0x080010f0                __aeabi_cdcmple
                0x08001100                __aeabi_dcmpeq
                0x08001114                __aeabi_dcmplt
                0x08001128                __aeabi_dcmple
                0x0800113c                __aeabi_dcmpge
                0x08001150                __aeabi_dcmpgt
 .text          0x08001164       0x2c c:/rt-threadstudio/repo/extract/toolchain_support_packages/arm/gnu_tools_for_arm_embedded_processors/5.4.1/bin/../lib/gcc/arm-none-eabi/5.4.1/armv7e-m/fpu\libgcc.a(_arm_unorddf2.o)
                0x08001164                __unorddf2
                0x08001164                __aeabi_dcmpun
 .text          0x08001190       0x50 c:/rt-threadstudio/repo/extract/toolchain_support_packages/arm/gnu_tools_for_arm_embedded_processors/5.4.1/bin/../lib/gcc/arm-none-eabi/5.4.1/armv7e-m/fpu\libgcc.a(_arm_fixdfsi.o)
                0x08001190                __aeabi_d2iz
                0x08001190                __fixdfsi
 .text          0x080011e0       0x30 c:/rt-threadstudio/repo/extract/toolchain_support_packages/arm/gnu_tools_for_arm_embedded_processors/5.4.1/bin/../lib/gcc/arm-none-eabi/5.4.1/armv7e-m/fpu\libgcc.a(_aeabi_uldivmod.o)
                0x080011e0                __aeabi_uldivmod
 .text          0x08001210      0x2e4 c:/rt-threadstudio/repo/extract/toolchain_support_packages/arm/gnu_tools_for_arm_embedded_processors/5.4.1/bin/../lib/gcc/arm-none-eabi/5.4.1/armv7e-m/fpu\libgcc.a(_udivmoddi4.o)
                0x08001210                __udivmoddi4
 .text          0x080014f4        0x4 c:/rt-threadstudio/repo/extract/toolchain_support_packages/arm/gnu_tools_for_arm_embedded_processors/5.4.1/bin/../lib/gcc/arm-none-eabi/5.4.1/armv7e-m/fpu\libgcc.a(_dvmd_tls.o)
                0x080014f4                __aeabi_idiv0
                0x080014f4                __aeabi_ldiv0
 *(.text.*)
 .text.rt_tick_get
                0x080014f8       0x18 ./rt-thread/src/clock.o
                0x080014f8                rt_tick_get
 .text.rt_tick_increase
                0x08001510       0x6c ./rt-thread/src/clock.o
                0x08001510                rt_tick_increase
 .text.rt_tick_from_millisecond
                0x0800157c       0x74 ./rt-thread/src/clock.o
                0x0800157c                rt_tick_from_millisecond
 .text.rti_start
                0x080015f0       0x10 ./rt-thread/src/components.o
 .text.rti_board_start
                0x08001600       0x10 ./rt-thread/src/components.o
 .text.rti_board_end
                0x08001610       0x10 ./rt-thread/src/components.o
 .text.rti_end  0x08001620       0x10 ./rt-thread/src/components.o
 .text.rt_components_board_init
                0x08001630       0x30 ./rt-thread/src/components.o
                0x08001630                rt_components_board_init
 .text.rt_components_init
                0x08001660       0x30 ./rt-thread/src/components.o
                0x08001660                rt_components_init
 .text.entry    0x08001690       0x10 ./rt-thread/src/components.o
                0x08001690                entry
 .text.main_thread_entry
                0x080016a0       0x18 ./rt-thread/src/components.o
                0x080016a0                main_thread_entry
 .text.rt_application_init
                0x080016b8       0x4c ./rt-thread/src/components.o
                0x080016b8                rt_application_init
 .text.rtthread_startup
                0x08001704       0x30 ./rt-thread/src/components.o
                0x08001704                rtthread_startup
 .text.rt_device_register
                0x08001734       0x54 ./rt-thread/src/device.o
                0x08001734                rt_device_register
 .text.rt_device_find
                0x08001788       0x1c ./rt-thread/src/device.o
                0x08001788                rt_device_find
 .text.rt_device_open
                0x080017a4      0x118 ./rt-thread/src/device.o
                0x080017a4                rt_device_open
 .text.rt_device_close
                0x080018bc       0x9c ./rt-thread/src/device.o
                0x080018bc                rt_device_close
 .text.rt_device_read
                0x08001958       0x88 ./rt-thread/src/device.o
                0x08001958                rt_device_read
 .text.rt_device_write
                0x080019e0       0x88 ./rt-thread/src/device.o
                0x080019e0                rt_device_write
 .text.rt_device_control
                0x08001a68       0x68 ./rt-thread/src/device.o
                0x08001a68                rt_device_control
 .text.rt_device_set_rx_indicate
                0x08001ad0       0x54 ./rt-thread/src/device.o
                0x08001ad0                rt_device_set_rx_indicate
 .text.rt_list_insert_after
                0x08001b24       0x34 ./rt-thread/src/idle.o
 .text.rt_list_remove
                0x08001b58       0x38 ./rt-thread/src/idle.o
 .text.rt_thread_defunct_enqueue
                0x08001b90       0x20 ./rt-thread/src/idle.o
                0x08001b90                rt_thread_defunct_enqueue
 .text.rt_thread_defunct_dequeue
                0x08001bb0       0x38 ./rt-thread/src/idle.o
                0x08001bb0                rt_thread_defunct_dequeue
 .text.rt_defunct_execute
                0x08001be8       0xac ./rt-thread/src/idle.o
 .text.rt_thread_idle_entry
                0x08001c94       0x38 ./rt-thread/src/idle.o
 .text.rt_thread_idle_init
                0x08001ccc       0x74 ./rt-thread/src/idle.o
                0x08001ccc                rt_thread_idle_init
 .text.rt_list_init
                0x08001d40       0x24 ./rt-thread/src/ipc.o
 .text.rt_list_insert_before
                0x08001d64       0x34 ./rt-thread/src/ipc.o
 .text.rt_list_isempty
                0x08001d98       0x24 ./rt-thread/src/ipc.o
 .text._ipc_object_init
                0x08001dbc       0x1c ./rt-thread/src/ipc.o
 .text._ipc_list_suspend
                0x08001dd8       0xa4 ./rt-thread/src/ipc.o
 .text._ipc_list_resume
                0x08001e7c       0x20 ./rt-thread/src/ipc.o
 .text.rt_sem_init
                0x08001e9c       0x6c ./rt-thread/src/ipc.o
                0x08001e9c                rt_sem_init
 .text.rt_sem_take
                0x08001f08      0x160 ./rt-thread/src/ipc.o
                0x08001f08                rt_sem_take
 .text.rt_sem_release
                0x08002068       0xbc ./rt-thread/src/ipc.o
                0x08002068                rt_sem_release
 .text.rt_event_init
                0x08002124       0x54 ./rt-thread/src/ipc.o
                0x08002124                rt_event_init
 .text.rt_event_send
                0x08002178      0x158 ./rt-thread/src/ipc.o
                0x08002178                rt_event_send
 .text.rt_event_recv
                0x080022d0      0x21c ./rt-thread/src/ipc.o
                0x080022d0                rt_event_recv
 .text.rt_mq_init
                0x080024ec       0xcc ./rt-thread/src/ipc.o
                0x080024ec                rt_mq_init
 .text.rt_mq_send_wait
                0x080025b8      0x284 ./rt-thread/src/ipc.o
                0x080025b8                rt_mq_send_wait
 .text.rt_mq_send
                0x0800283c       0x24 ./rt-thread/src/ipc.o
                0x0800283c                rt_mq_send
 .text.rt_mq_recv
                0x08002860      0x290 ./rt-thread/src/ipc.o
                0x08002860                rt_mq_recv
 .text.rt_interrupt_enter
                0x08002af0       0x40 ./rt-thread/src/irq.o
                0x08002af0                rt_interrupt_enter
 .text.rt_interrupt_leave
                0x08002b30       0x40 ./rt-thread/src/irq.o
                0x08002b30                rt_interrupt_leave
 .text.rt_interrupt_get_nest
                0x08002b70       0x28 ./rt-thread/src/irq.o
                0x08002b70                rt_interrupt_get_nest
 .text.rt_set_errno
                0x08002b98       0x40 ./rt-thread/src/kservice.o
                0x08002b98                rt_set_errno
 .text.rt_memset
                0x08002bd8       0xb8 ./rt-thread/src/kservice.o
                0x08002bd8                rt_memset
 .text.rt_memcpy
                0x08002c90       0xd4 ./rt-thread/src/kservice.o
                0x08002c90                rt_memcpy
 .text.rt_memmove
                0x08002d64       0x84 ./rt-thread/src/kservice.o
                0x08002d64                rt_memmove
 .text.rt_strncpy
                0x08002de8       0x64 ./rt-thread/src/kservice.o
                0x08002de8                rt_strncpy
 .text.rt_strncmp
                0x08002e4c       0x4c ./rt-thread/src/kservice.o
                0x08002e4c                rt_strncmp
 .text.rt_strlen
                0x08002e98       0x30 ./rt-thread/src/kservice.o
                0x08002e98                rt_strlen
 .text.rt_show_version
                0x08002ec8       0x4c ./rt-thread/src/kservice.o
                0x08002ec8                rt_show_version
 .text.divide   0x08002f14       0x68 ./rt-thread/src/kservice.o
 .text.skip_atoi
                0x08002f7c       0x40 ./rt-thread/src/kservice.o
 .text.print_number
                0x08002fbc      0x1dc ./rt-thread/src/kservice.o
 .text.rt_vsnprintf
                0x08003198      0x560 ./rt-thread/src/kservice.o
                0x08003198                rt_vsnprintf
 .text.rt_vsprintf
                0x080036f8       0x24 ./rt-thread/src/kservice.o
                0x080036f8                rt_vsprintf
 .text.rt_sprintf
                0x0800371c       0x2c ./rt-thread/src/kservice.o
                0x0800371c                rt_sprintf
 .text.rt_console_get_device
                0x08003748       0x18 ./rt-thread/src/kservice.o
                0x08003748                rt_console_get_device
 .text.rt_console_set_device
                0x08003760       0x58 ./rt-thread/src/kservice.o
                0x08003760                rt_console_set_device
 .text.rt_hw_console_output
                0x080037b8       0x14 ./rt-thread/src/kservice.o
                0x080037b8                rt_hw_console_output
 .text.rt_kprintf
                0x080037cc       0x64 ./rt-thread/src/kservice.o
                0x080037cc                rt_kprintf
 .text.__rt_ffs
                0x08003830       0x70 ./rt-thread/src/kservice.o
                0x08003830                __rt_ffs
 .text.rt_assert_set_hook
                0x080038a0       0x20 ./rt-thread/src/kservice.o
                0x080038a0                rt_assert_set_hook
 .text.rt_assert_handler
                0x080038c0       0x4c ./rt-thread/src/kservice.o
                0x080038c0                rt_assert_handler
 .text.plug_holes
                0x0800390c      0x100 ./rt-thread/src/mem.o
 .text.rt_system_heap_init
                0x08003a0c      0x118 ./rt-thread/src/mem.o
                0x08003a0c                rt_system_heap_init
 .text.rt_malloc
                0x08003b24      0x294 ./rt-thread/src/mem.o
                0x08003b24                rt_malloc
 .text.rt_realloc
                0x08003db8      0x1ac ./rt-thread/src/mem.o
                0x08003db8                rt_realloc
 .text.rt_calloc
                0x08003f64       0x3c ./rt-thread/src/mem.o
                0x08003f64                rt_calloc
 .text.rt_free  0x08003fa0      0x188 ./rt-thread/src/mem.o
                0x08003fa0                rt_free
 .text.list_mem
                0x08004128       0x44 ./rt-thread/src/mem.o
                0x08004128                list_mem
 .text.rt_list_insert_after
                0x0800416c       0x34 ./rt-thread/src/object.o
 .text.rt_list_remove
                0x080041a0       0x38 ./rt-thread/src/object.o
 .text.rt_object_get_information
                0x080041d8       0x48 ./rt-thread/src/object.o
                0x080041d8                rt_object_get_information
 .text.rt_object_init
                0x08004220       0xcc ./rt-thread/src/object.o
                0x08004220                rt_object_init
 .text.rt_object_detach
                0x080042ec       0x5c ./rt-thread/src/object.o
                0x080042ec                rt_object_detach
 .text.rt_object_allocate
                0x08004348       0xd8 ./rt-thread/src/object.o
                0x08004348                rt_object_allocate
 .text.rt_object_delete
                0x08004420       0x7c ./rt-thread/src/object.o
                0x08004420                rt_object_delete
 .text.rt_object_is_systemobject
                0x0800449c       0x3c ./rt-thread/src/object.o
                0x0800449c                rt_object_is_systemobject
 .text.rt_object_get_type
                0x080044d8       0x34 ./rt-thread/src/object.o
                0x080044d8                rt_object_get_type
 .text.rt_object_find
                0x0800450c       0xb4 ./rt-thread/src/object.o
                0x0800450c                rt_object_find
 .text.rt_list_init
                0x080045c0       0x24 ./rt-thread/src/scheduler.o
 .text.rt_list_insert_before
                0x080045e4       0x34 ./rt-thread/src/scheduler.o
 .text.rt_list_remove
                0x08004618       0x38 ./rt-thread/src/scheduler.o
 .text.rt_list_isempty
                0x08004650       0x24 ./rt-thread/src/scheduler.o
 .text._rt_scheduler_stack_check
                0x08004674       0x94 ./rt-thread/src/scheduler.o
 .text._scheduler_get_highest_priority_thread
                0x08004708       0x38 ./rt-thread/src/scheduler.o
 .text.rt_system_scheduler_init
                0x08004740       0x38 ./rt-thread/src/scheduler.o
                0x08004740                rt_system_scheduler_init
 .text.rt_system_scheduler_start
                0x08004778       0x38 ./rt-thread/src/scheduler.o
                0x08004778                rt_system_scheduler_start
 .text.rt_schedule
                0x080047b0      0x19c ./rt-thread/src/scheduler.o
                0x080047b0                rt_schedule
 .text.rt_schedule_insert_thread
                0x0800494c       0xac ./rt-thread/src/scheduler.o
                0x0800494c                rt_schedule_insert_thread
 .text.rt_schedule_remove_thread
                0x080049f8       0x70 ./rt-thread/src/scheduler.o
                0x080049f8                rt_schedule_remove_thread
 .text.rt_enter_critical
                0x08004a68       0x2c ./rt-thread/src/scheduler.o
                0x08004a68                rt_enter_critical
 .text.rt_exit_critical
                0x08004a94       0x54 ./rt-thread/src/scheduler.o
                0x08004a94                rt_exit_critical
 .text.rt_list_init
                0x08004ae8       0x24 ./rt-thread/src/thread.o
 .text.rt_list_remove
                0x08004b0c       0x38 ./rt-thread/src/thread.o
 .text._thread_cleanup_execute
                0x08004b44       0x2c ./rt-thread/src/thread.o
 .text._thread_exit
                0x08004b70       0x5c ./rt-thread/src/thread.o
 .text._thread_init
                0x08004bcc       0xf8 ./rt-thread/src/thread.o
 .text.rt_thread_init
                0x08004cc4       0x70 ./rt-thread/src/thread.o
                0x08004cc4                rt_thread_init
 .text.rt_thread_self
                0x08004d34       0x18 ./rt-thread/src/thread.o
                0x08004d34                rt_thread_self
 .text.rt_thread_startup
                0x08004d4c       0xa0 ./rt-thread/src/thread.o
                0x08004d4c                rt_thread_startup
 .text.rt_thread_create
                0x08004dec       0x64 ./rt-thread/src/thread.o
                0x08004dec                rt_thread_create
 .text.rt_thread_sleep
                0x08004e50       0x8c ./rt-thread/src/thread.o
                0x08004e50                rt_thread_sleep
 .text.rt_thread_delay
                0x08004edc       0x18 ./rt-thread/src/thread.o
                0x08004edc                rt_thread_delay
 .text.rt_thread_mdelay
                0x08004ef4       0x20 ./rt-thread/src/thread.o
                0x08004ef4                rt_thread_mdelay
 .text.rt_thread_suspend
                0x08004f14       0xcc ./rt-thread/src/thread.o
                0x08004f14                rt_thread_suspend
 .text.rt_thread_resume
                0x08004fe0       0x98 ./rt-thread/src/thread.o
                0x08004fe0                rt_thread_resume
 .text.rt_thread_timeout
                0x08005078       0x90 ./rt-thread/src/thread.o
                0x08005078                rt_thread_timeout
 .text.rt_list_init
                0x08005108       0x24 ./rt-thread/src/timer.o
 .text.rt_list_insert_after
                0x0800512c       0x34 ./rt-thread/src/timer.o
 .text.rt_list_remove
                0x08005160       0x38 ./rt-thread/src/timer.o
 .text.rt_list_isempty
                0x08005198       0x24 ./rt-thread/src/timer.o
 .text._timer_init
                0x080051bc       0x68 ./rt-thread/src/timer.o
 .text._timer_list_next_timeout
                0x08005224       0x40 ./rt-thread/src/timer.o
 .text._timer_remove
                0x08005264       0x34 ./rt-thread/src/timer.o
 .text.rt_timer_init
                0x08005298       0x4c ./rt-thread/src/timer.o
                0x08005298                rt_timer_init
 .text.rt_timer_detach
                0x080052e4       0x90 ./rt-thread/src/timer.o
                0x080052e4                rt_timer_detach
 .text.rt_timer_start
                0x08005374      0x244 ./rt-thread/src/timer.o
                0x08005374                rt_timer_start
 .text.rt_timer_stop
                0x080055b8       0x94 ./rt-thread/src/timer.o
                0x080055b8                rt_timer_stop
 .text.rt_timer_control
                0x0800564c       0xd0 ./rt-thread/src/timer.o
                0x0800564c                rt_timer_control
 .text.rt_timer_check
                0x0800571c      0x108 ./rt-thread/src/timer.o
                0x0800571c                rt_timer_check
 .text.rt_soft_timer_check
                0x08005824      0x120 ./rt-thread/src/timer.o
                0x08005824                rt_soft_timer_check
 .text._timer_thread_entry
                0x08005944       0x58 ./rt-thread/src/timer.o
 .text.rt_system_timer_init
                0x0800599c       0x34 ./rt-thread/src/timer.o
                0x0800599c                rt_system_timer_init
 .text.rt_system_timer_thread_init
                0x080059d0       0x68 ./rt-thread/src/timer.o
                0x080059d0                rt_system_timer_thread_init
 .text.rt_hw_stack_init
                0x08005a38       0x90 ./rt-thread/libcpu/arm/cortex-m4/cpuport.o
                0x08005a38                rt_hw_stack_init
 .text.rt_hw_exception_install
                0x08005ac8       0x20 ./rt-thread/libcpu/arm/cortex-m4/cpuport.o
                0x08005ac8                rt_hw_exception_install
 .text.usage_fault_track
                0x08005ae8       0xc4 ./rt-thread/libcpu/arm/cortex-m4/cpuport.o
 .text.bus_fault_track
                0x08005bac       0xcc ./rt-thread/libcpu/arm/cortex-m4/cpuport.o
 .text.mem_manage_fault_track
                0x08005c78       0xb4 ./rt-thread/libcpu/arm/cortex-m4/cpuport.o
 .text.hard_fault_track
                0x08005d2c       0x78 ./rt-thread/libcpu/arm/cortex-m4/cpuport.o
 .text.rt_hw_hard_fault_exception
                0x08005da4      0x184 ./rt-thread/libcpu/arm/cortex-m4/cpuport.o
                0x08005da4                rt_hw_hard_fault_exception
 .text.rt_hw_cpu_reset
                0x08005f28       0x1c ./rt-thread/libcpu/arm/cortex-m4/cpuport.o
                0x08005f28                rt_hw_cpu_reset
 .text.ulog_console_backend_output
                0x08005f44       0x50 ./rt-thread/components/utilities/ulog/backend/console_be.o
                0x08005f44                ulog_console_backend_output
 .text.ulog_console_backend_init
                0x08005f94       0x2c ./rt-thread/components/utilities/ulog/backend/console_be.o
                0x08005f94                ulog_console_backend_init
 .text.rt_slist_init
                0x08005fc0       0x1c ./rt-thread/components/utilities/ulog/ulog.o
 .text.rt_slist_append
                0x08005fdc       0x38 ./rt-thread/components/utilities/ulog/ulog.o
 .text.rt_slist_first
                0x08006014       0x18 ./rt-thread/components/utilities/ulog/ulog.o
 .text.rt_slist_next
                0x0800602c       0x18 ./rt-thread/components/utilities/ulog/ulog.o
 .text.ulog_strcpy
                0x08006044       0x74 ./rt-thread/components/utilities/ulog/ulog.o
                0x08006044                ulog_strcpy
 .text.ulog_ultoa
                0x080060b8       0xb0 ./rt-thread/components/utilities/ulog/ulog.o
                0x080060b8                ulog_ultoa
 .text.output_unlock
                0x08006168       0x2c ./rt-thread/components/utilities/ulog/ulog.o
 .text.output_lock
                0x08006194       0x30 ./rt-thread/components/utilities/ulog/ulog.o
 .text.get_log_buf
                0x080061c4       0x28 ./rt-thread/components/utilities/ulog/ulog.o
 .text.ulog_formater
                0x080061ec      0x2cc ./rt-thread/components/utilities/ulog/ulog.o
                0x080061ec                ulog_formater
 .text.ulog_output_to_all_backend
                0x080064b8       0xe8 ./rt-thread/components/utilities/ulog/ulog.o
                0x080064b8                ulog_output_to_all_backend
 .text.do_output
                0x080065a0       0x48 ./rt-thread/components/utilities/ulog/ulog.o
 .text.ulog_voutput
                0x080065e8       0xa8 ./rt-thread/components/utilities/ulog/ulog.o
                0x080065e8                ulog_voutput
 .text.ulog_output
                0x08006690       0x34 ./rt-thread/components/utilities/ulog/ulog.o
                0x08006690                ulog_output
 .text.ulog_backend_register
                0x080066c4       0xc0 ./rt-thread/components/utilities/ulog/ulog.o
                0x080066c4                ulog_backend_register
 .text.ulog_flush
                0x08006784       0x50 ./rt-thread/components/utilities/ulog/ulog.o
                0x08006784                ulog_flush
 .text.ulog_init
                0x080067d4       0x44 ./rt-thread/components/utilities/ulog/ulog.o
                0x080067d4                ulog_init
 .text.libc_system_init
                0x08006818       0x10 ./rt-thread/components/libc/compilers/gcc/newlib/libc.o
                0x08006818                libc_system_init
 .text._malloc_r
                0x08006828       0x28 ./rt-thread/components/libc/compilers/gcc/newlib/syscalls.o
                0x08006828                _malloc_r
 .text._realloc_r
                0x08006850       0x2c ./rt-thread/components/libc/compilers/gcc/newlib/syscalls.o
                0x08006850                _realloc_r
 .text._calloc_r
                0x0800687c       0x2c ./rt-thread/components/libc/compilers/gcc/newlib/syscalls.o
                0x0800687c                _calloc_r
 .text._free_r  0x080068a8       0x18 ./rt-thread/components/libc/compilers/gcc/newlib/syscalls.o
                0x080068a8                _free_r
 .text.rt_list_isempty
                0x080068c0       0x24 ./rt-thread/components/finsh/cmd.o
 .text.rt_list_len
                0x080068e4       0x38 ./rt-thread/components/finsh/cmd.o
 .text.hello    0x0800691c       0x14 ./rt-thread/components/finsh/cmd.o
                0x0800691c                hello
 .text.clear    0x08006930       0x14 ./rt-thread/components/finsh/cmd.o
 .text.version  0x08006944       0x10 ./rt-thread/components/finsh/cmd.o
                0x08006944                version
 .text.object_split
                0x08006954       0x28 ./rt-thread/components/finsh/cmd.o
 .text.list_find_init
                0x0800697c       0x48 ./rt-thread/components/finsh/cmd.o
 .text.list_get_next
                0x080069c4       0xc8 ./rt-thread/components/finsh/cmd.o
 .text.list_thread
                0x08006a8c      0x208 ./rt-thread/components/finsh/cmd.o
                0x08006a8c                list_thread
 .text.show_wait_queue
                0x08006c94       0x50 ./rt-thread/components/finsh/cmd.o
 .text.list_sem
                0x08006ce4      0x12c ./rt-thread/components/finsh/cmd.o
                0x08006ce4                list_sem
 .text.list_event
                0x08006e10      0x118 ./rt-thread/components/finsh/cmd.o
                0x08006e10                list_event
 .text.list_mutex
                0x08006f28       0xe8 ./rt-thread/components/finsh/cmd.o
                0x08006f28                list_mutex
 .text.list_mailbox
                0x08007010      0x13c ./rt-thread/components/finsh/cmd.o
                0x08007010                list_mailbox
 .text.list_msgqueue
                0x0800714c      0x12c ./rt-thread/components/finsh/cmd.o
                0x0800714c                list_msgqueue
 .text.list_mempool
                0x08007278      0x144 ./rt-thread/components/finsh/cmd.o
                0x08007278                list_mempool
 .text.list_timer
                0x080073bc      0x108 ./rt-thread/components/finsh/cmd.o
                0x080073bc                list_timer
 .text.list_device
                0x080074c4       0xf0 ./rt-thread/components/finsh/cmd.o
                0x080074c4                list_device
 .text.list     0x080075b4       0x6c ./rt-thread/components/finsh/cmd.o
                0x080075b4                list
 .text.msh_help
                0x08007620       0x5c ./rt-thread/components/finsh/msh.o
                0x08007620                msh_help
 .text.cmd_ps   0x0800767c       0x18 ./rt-thread/components/finsh/msh.o
                0x0800767c                cmd_ps
 .text.cmd_free
                0x08007694       0x18 ./rt-thread/components/finsh/msh.o
                0x08007694                cmd_free
 .text.msh_split
                0x080076ac      0x170 ./rt-thread/components/finsh/msh.o
 .text.msh_get_cmd
                0x0800781c       0x64 ./rt-thread/components/finsh/msh.o
 .text._msh_exec_cmd
                0x08007880       0xd4 ./rt-thread/components/finsh/msh.o
 .text.msh_exec
                0x08007954       0x8c ./rt-thread/components/finsh/msh.o
                0x08007954                msh_exec
 .text.str_common
                0x080079e0       0x4c ./rt-thread/components/finsh/msh.o
 .text.msh_auto_complete
                0x08007a2c       0xb4 ./rt-thread/components/finsh/msh.o
                0x08007a2c                msh_auto_complete
 .text.finsh_get_prompt
                0x08007ae0       0x7c ./rt-thread/components/finsh/shell.o
                0x08007ae0                finsh_get_prompt
 .text.finsh_set_prompt_mode
                0x08007b5c       0x48 ./rt-thread/components/finsh/shell.o
                0x08007b5c                finsh_set_prompt_mode
 .text.finsh_getchar
                0x08007ba4       0x6c ./rt-thread/components/finsh/shell.o
                0x08007ba4                finsh_getchar
 .text.finsh_rx_ind
                0x08007c10       0x3c ./rt-thread/components/finsh/shell.o
 .text.finsh_set_device
                0x08007c4c       0xd8 ./rt-thread/components/finsh/shell.o
                0x08007c4c                finsh_set_device
 .text.shell_auto_complete
                0x08007d24       0x34 ./rt-thread/components/finsh/shell.o
 .text.shell_handle_history
                0x08007d58       0x34 ./rt-thread/components/finsh/shell.o
 .text.shell_push_history
                0x08007d8c      0x160 ./rt-thread/components/finsh/shell.o
 .text.finsh_thread_entry
                0x08007eec      0x5d0 ./rt-thread/components/finsh/shell.o
                0x08007eec                finsh_thread_entry
 .text.finsh_system_function_init
                0x080084bc       0x2c ./rt-thread/components/finsh/shell.o
                0x080084bc                finsh_system_function_init
 .text.finsh_system_init
                0x080084e8       0x9c ./rt-thread/components/finsh/shell.o
                0x080084e8                finsh_system_init
 .text.rt_list_init
                0x08008584       0x24 ./rt-thread/components/drivers/usb/usbdevice/core/usbdevice.o
 .text.rt_list_insert_before
                0x080085a8       0x34 ./rt-thread/components/drivers/usb/usbdevice/core/usbdevice.o
 .text.rt_usbd_class_list_init
                0x080085dc       0x14 ./rt-thread/components/drivers/usb/usbdevice/core/usbdevice.o
                0x080085dc                rt_usbd_class_list_init
 .text.rt_usbd_class_register
                0x080085f0       0x20 ./rt-thread/components/drivers/usb/usbdevice/core/usbdevice.o
                0x080085f0                rt_usbd_class_register
 .text.rt_list_init
                0x08008610       0x24 ./rt-thread/components/drivers/usb/usbdevice/core/usbdevice_core.o
 .text.rt_list_insert_before
                0x08008634       0x34 ./rt-thread/components/drivers/usb/usbdevice/core/usbdevice_core.o
 .text.dcd_ep_read_prepare
                0x08008668       0x68 ./rt-thread/components/drivers/usb/usbdevice/core/usbdevice_core.o
 .text.dcd_ep_write
                0x080086d0       0x74 ./rt-thread/components/drivers/usb/usbdevice/core/usbdevice_core.o
 .text.rt_usbd_ep_write
                0x08008744       0xd0 ./rt-thread/components/drivers/usb/usbdevice/core/usbdevice_core.o
 .text.rt_usbd_ep_read_prepare
                0x08008814       0xb4 ./rt-thread/components/drivers/usb/usbdevice/core/usbdevice_core.o
 .text.rt_usbd_device_set_interface_string
                0x080088c8       0x68 ./rt-thread/components/drivers/usb/usbdevice/core/usbdevice_core.o
                0x080088c8                rt_usbd_device_set_interface_string
 .text.rt_usbd_device_set_qualifier
                0x08008930       0x4c ./rt-thread/components/drivers/usb/usbdevice/core/usbdevice_core.o
                0x08008930                rt_usbd_device_set_qualifier
 .text.rt_usbd_interface_new
                0x0800897c       0x7c ./rt-thread/components/drivers/usb/usbdevice/core/usbdevice_core.o
                0x0800897c                rt_usbd_interface_new
 .text.rt_usbd_altsetting_new
                0x080089f8       0x88 ./rt-thread/components/drivers/usb/usbdevice/core/usbdevice_core.o
                0x080089f8                rt_usbd_altsetting_new
 .text.rt_usbd_altsetting_config_descriptor
                0x08008a80       0x64 ./rt-thread/components/drivers/usb/usbdevice/core/usbdevice_core.o
                0x08008a80                rt_usbd_altsetting_config_descriptor
 .text.rt_usbd_function_new
                0x08008ae4       0x84 ./rt-thread/components/drivers/usb/usbdevice/core/usbdevice_core.o
                0x08008ae4                rt_usbd_function_new
 .text.rt_usbd_endpoint_new
                0x08008b68       0x6c ./rt-thread/components/drivers/usb/usbdevice/core/usbdevice_core.o
                0x08008b68                rt_usbd_endpoint_new
 .text.rt_usbd_find_altsetting
                0x08008bd4       0x88 ./rt-thread/components/drivers/usb/usbdevice/core/usbdevice_core.o
                0x08008bd4                rt_usbd_find_altsetting
 .text.rt_usbd_function_add_interface
                0x08008c5c       0x54 ./rt-thread/components/drivers/usb/usbdevice/core/usbdevice_core.o
                0x08008c5c                rt_usbd_function_add_interface
 .text.rt_usbd_interface_add_altsetting
                0x08008cb0       0x5c ./rt-thread/components/drivers/usb/usbdevice/core/usbdevice_core.o
                0x08008cb0                rt_usbd_interface_add_altsetting
 .text.rt_usbd_altsetting_add_endpoint
                0x08008d0c       0x54 ./rt-thread/components/drivers/usb/usbdevice/core/usbdevice_core.o
                0x08008d0c                rt_usbd_altsetting_add_endpoint
 .text.rt_usbd_set_altsetting
                0x08008d60       0x44 ./rt-thread/components/drivers/usb/usbdevice/core/usbdevice_core.o
                0x08008d60                rt_usbd_set_altsetting
 .text.rt_usbd_io_request
                0x08008da4       0xb8 ./rt-thread/components/drivers/usb/usbdevice/core/usbdevice_core.o
                0x08008da4                rt_usbd_io_request
 .text.rt_usbd_ep0_write
                0x08008e5c       0xd0 ./rt-thread/components/drivers/usb/usbdevice/core/usbdevice_core.o
                0x08008e5c                rt_usbd_ep0_write
 .text.rt_usbd_ep0_read
                0x08008f2c       0xbc ./rt-thread/components/drivers/usb/usbdevice/core/usbdevice_core.o
                0x08008f2c                rt_usbd_ep0_read
 .text.dcd_ep0_send_status
                0x08008fe8       0x68 ./rt-thread/components/drivers/usb/usbdevice/class/cdc_vcom.o
 .text.vcom_get_stored_serno
                0x08009050       0x18 ./rt-thread/components/drivers/usb/usbdevice/class/cdc_vcom.o
                0x08009050                vcom_get_stored_serno
 .text._vcom_reset_state
                0x08009068       0x48 ./rt-thread/components/drivers/usb/usbdevice/class/cdc_vcom.o
 .text._ep_in_handler
                0x080090b0       0xa0 ./rt-thread/components/drivers/usb/usbdevice/class/cdc_vcom.o
 .text._ep_out_handler
                0x08009150       0xb4 ./rt-thread/components/drivers/usb/usbdevice/class/cdc_vcom.o
 .text._ep_cmd_handler
                0x08009204       0x30 ./rt-thread/components/drivers/usb/usbdevice/class/cdc_vcom.o
 .text._cdc_get_line_coding
                0x08009234       0x74 ./rt-thread/components/drivers/usb/usbdevice/class/cdc_vcom.o
 .text._cdc_set_line_coding_callback
                0x080092a8       0x20 ./rt-thread/components/drivers/usb/usbdevice/class/cdc_vcom.o
 .text._cdc_set_line_coding
                0x080092c8       0x58 ./rt-thread/components/drivers/usb/usbdevice/class/cdc_vcom.o
 .text._interface_handler
                0x08009320      0x160 ./rt-thread/components/drivers/usb/usbdevice/class/cdc_vcom.o
 .text._function_enable
                0x08009480       0x98 ./rt-thread/components/drivers/usb/usbdevice/class/cdc_vcom.o
 .text._function_disable
                0x08009518       0x58 ./rt-thread/components/drivers/usb/usbdevice/class/cdc_vcom.o
 .text._cdc_descriptor_config
                0x08009570       0x40 ./rt-thread/components/drivers/usb/usbdevice/class/cdc_vcom.o
 .text.rt_usbd_function_cdc_create
                0x080095b0      0x1cc ./rt-thread/components/drivers/usb/usbdevice/class/cdc_vcom.o
                0x080095b0                rt_usbd_function_cdc_create
 .text._vcom_configure
                0x0800977c       0x18 ./rt-thread/components/drivers/usb/usbdevice/class/cdc_vcom.o
 .text._vcom_control
                0x08009794       0x28 ./rt-thread/components/drivers/usb/usbdevice/class/cdc_vcom.o
 .text._vcom_getc
                0x080097bc       0x50 ./rt-thread/components/drivers/usb/usbdevice/class/cdc_vcom.o
 .text._vcom_rb_block_put
                0x0800980c       0x90 ./rt-thread/components/drivers/usb/usbdevice/class/cdc_vcom.o
 .text._vcom_tx
                0x0800989c      0x13c ./rt-thread/components/drivers/usb/usbdevice/class/cdc_vcom.o
 .text._vcom_putc
                0x080099d8       0xb0 ./rt-thread/components/drivers/usb/usbdevice/class/cdc_vcom.o
 .text.vcom_tx_thread_entry
                0x08009a88      0x154 ./rt-thread/components/drivers/usb/usbdevice/class/cdc_vcom.o
 .text.rt_usb_vcom_init
                0x08009bdc      0x10c ./rt-thread/components/drivers/usb/usbdevice/class/cdc_vcom.o
 .text.rt_usbd_vcom_class_register
                0x08009ce8       0x14 ./rt-thread/components/drivers/usb/usbdevice/class/cdc_vcom.o
                0x08009ce8                rt_usbd_vcom_class_register
 .text.rt_list_init
                0x08009cfc       0x24 ./rt-thread/components/drivers/src/completion.o
 .text.rt_list_insert_before
                0x08009d20       0x34 ./rt-thread/components/drivers/src/completion.o
 .text.rt_list_isempty
                0x08009d54       0x24 ./rt-thread/components/drivers/src/completion.o
 .text.rt_completion_init
                0x08009d78       0x44 ./rt-thread/components/drivers/src/completion.o
                0x08009d78                rt_completion_init
 .text.rt_completion_wait
                0x08009dbc       0xfc ./rt-thread/components/drivers/src/completion.o
                0x08009dbc                rt_completion_wait
 .text.rt_completion_done
                0x08009eb8       0x70 ./rt-thread/components/drivers/src/completion.o
                0x08009eb8                rt_completion_done
 .text.rt_list_init
                0x08009f28       0x24 ./rt-thread/components/drivers/src/dataqueue.o
 .text.rt_list_insert_before
                0x08009f4c       0x34 ./rt-thread/components/drivers/src/dataqueue.o
 .text.rt_list_isempty
                0x08009f80       0x24 ./rt-thread/components/drivers/src/dataqueue.o
 .text.rt_data_queue_init
                0x08009fa4       0xc0 ./rt-thread/components/drivers/src/dataqueue.o
                0x08009fa4                rt_data_queue_init
 .text.rt_data_queue_push
                0x0800a064      0x1ec ./rt-thread/components/drivers/src/dataqueue.o
                0x0800a064                rt_data_queue_push
 .text.rt_data_queue_pop
                0x0800a250      0x248 ./rt-thread/components/drivers/src/dataqueue.o
                0x0800a250                rt_data_queue_pop
 .text.rt_data_queue_peek
                0x0800a498       0xa4 ./rt-thread/components/drivers/src/dataqueue.o
                0x0800a498                rt_data_queue_peek
 .text.rt_data_queue_reset
                0x0800a53c       0xfc ./rt-thread/components/drivers/src/dataqueue.o
                0x0800a53c                rt_data_queue_reset
 .text.rt_data_queue_deinit
                0x0800a638       0x70 ./rt-thread/components/drivers/src/dataqueue.o
                0x0800a638                rt_data_queue_deinit
 .text.rt_data_queue_len
                0x0800a6a8       0xc8 ./rt-thread/components/drivers/src/dataqueue.o
                0x0800a6a8                rt_data_queue_len
 .text.rt_ringbuffer_status
                0x0800a770       0x50 ./rt-thread/components/drivers/src/ringbuffer.o
 .text.rt_ringbuffer_init
                0x0800a7c0       0xa4 ./rt-thread/components/drivers/src/ringbuffer.o
                0x0800a7c0                rt_ringbuffer_init
 .text.rt_ringbuffer_put
                0x0800a864      0x16c ./rt-thread/components/drivers/src/ringbuffer.o
                0x0800a864                rt_ringbuffer_put
 .text.rt_ringbuffer_get
                0x0800a9d0      0x15c ./rt-thread/components/drivers/src/ringbuffer.o
                0x0800a9d0                rt_ringbuffer_get
 .text.rt_ringbuffer_putchar_force
                0x0800ab2c      0x100 ./rt-thread/components/drivers/src/ringbuffer.o
                0x0800ab2c                rt_ringbuffer_putchar_force
 .text.rt_ringbuffer_getchar
                0x0800ac2c       0xb4 ./rt-thread/components/drivers/src/ringbuffer.o
                0x0800ac2c                rt_ringbuffer_getchar
 .text.rt_ringbuffer_data_len
                0x0800ace0       0x68 ./rt-thread/components/drivers/src/ringbuffer.o
                0x0800ace0                rt_ringbuffer_data_len
 .text._serial_poll_rx
                0x0800ad48       0x80 ./rt-thread/components/drivers/serial/serial.o
 .text._serial_poll_tx
                0x0800adc8       0x7c ./rt-thread/components/drivers/serial/serial.o
 .text._serial_int_rx
                0x0800ae44       0xd8 ./rt-thread/components/drivers/serial/serial.o
 .text._serial_int_tx
                0x0800af1c       0xc4 ./rt-thread/components/drivers/serial/serial.o
 .text._serial_check_buffer_size
                0x0800afe0       0x20 ./rt-thread/components/drivers/serial/serial.o
 .text._serial_fifo_calc_recved_len
                0x0800b000       0x88 ./rt-thread/components/drivers/serial/serial.o
 .text.rt_dma_calc_recved_len
                0x0800b088       0x18 ./rt-thread/components/drivers/serial/serial.o
 .text.rt_dma_recv_update_get_index
                0x0800b0a0       0xa4 ./rt-thread/components/drivers/serial/serial.o
 .text.rt_dma_recv_update_put_index
                0x0800b144       0xf8 ./rt-thread/components/drivers/serial/serial.o
 .text._serial_dma_rx
                0x0800b23c      0x198 ./rt-thread/components/drivers/serial/serial.o
 .text._serial_dma_tx
                0x0800b3d4       0x70 ./rt-thread/components/drivers/serial/serial.o
 .text.rt_serial_init
                0x0800b444       0x5c ./rt-thread/components/drivers/serial/serial.o
 .text.rt_serial_open
                0x0800b4a0      0x36c ./rt-thread/components/drivers/serial/serial.o
 .text.rt_serial_close
                0x0800b80c      0x1e0 ./rt-thread/components/drivers/serial/serial.o
 .text.rt_serial_read
                0x0800b9ec       0x84 ./rt-thread/components/drivers/serial/serial.o
 .text.rt_serial_write
                0x0800ba70       0x84 ./rt-thread/components/drivers/serial/serial.o
 .text.rt_serial_control
                0x0800baf4       0xd0 ./rt-thread/components/drivers/serial/serial.o
 .text.rt_hw_serial_register
                0x0800bbc4       0x9c ./rt-thread/components/drivers/serial/serial.o
                0x0800bbc4                rt_hw_serial_register
 .text.rt_hw_serial_isr
                0x0800bc60      0x264 ./rt-thread/components/drivers/serial/serial.o
                0x0800bc60                rt_hw_serial_isr
 .text._pin_read
                0x0800bec4       0x60 ./rt-thread/components/drivers/misc/pin.o
 .text._pin_write
                0x0800bf24       0x5c ./rt-thread/components/drivers/misc/pin.o
 .text._pin_control
                0x0800bf80       0x58 ./rt-thread/components/drivers/misc/pin.o
 .text.rt_device_pin_register
                0x0800bfd8       0x74 ./rt-thread/components/drivers/misc/pin.o
                0x0800bfd8                rt_device_pin_register
 .text.rt_pin_mode
                0x0800c04c       0x40 ./rt-thread/components/drivers/misc/pin.o
                0x0800c04c                rt_pin_mode
 .text.rt_pin_write
                0x0800c08c       0x40 ./rt-thread/components/drivers/misc/pin.o
                0x0800c08c                rt_pin_write
 .text.rt_pin_get
                0x0800c0cc       0x60 ./rt-thread/components/drivers/misc/pin.o
                0x0800c0cc                rt_pin_get
 .text.rt_pwm_enable
                0x0800c12c       0x5c ./rt-thread/components/drivers/misc/rt_drv_pwm.o
                0x0800c12c                rt_pwm_enable
 .text.rt_pwm_disable
                0x0800c188       0x5c ./rt-thread/components/drivers/misc/rt_drv_pwm.o
                0x0800c188                rt_pwm_disable
 .text.rt_pwm_set
                0x0800c1e4       0x54 ./rt-thread/components/drivers/misc/rt_drv_pwm.o
                0x0800c1e4                rt_pwm_set
 .text.rt_pwm_get
                0x0800c238       0x34 ./rt-thread/components/drivers/misc/rt_drv_pwm.o
                0x0800c238                rt_pwm_get
 .text.pwm_enable
                0x0800c26c       0x74 ./rt-thread/components/drivers/misc/rt_drv_pwm.o
 .text.pwm_disable
                0x0800c2e0       0x74 ./rt-thread/components/drivers/misc/rt_drv_pwm.o
 .text.pwm_set  0x0800c354       0x94 ./rt-thread/components/drivers/misc/rt_drv_pwm.o
 .text.pwm_get  0x0800c3e8      0x120 ./rt-thread/components/drivers/misc/rt_drv_pwm.o
 .text.led_entry
                0x0800c508       0x6c ./packages/peripheral_samples-latest/led_blink_sample.o
 .text.led_sample
                0x0800c574       0x70 ./packages/peripheral_samples-latest/led_blink_sample.o
 .text.uart_input
                0x0800c5e4       0x44 ./packages/peripheral_samples-latest/uart_dma_sample.o
 .text.serial_thread_entry
                0x0800c628       0x70 ./packages/peripheral_samples-latest/uart_dma_sample.o
 .text.uart_dma_sample
                0x0800c698      0x114 ./packages/peripheral_samples-latest/uart_dma_sample.o
 .text.cm_backtrace_init
                0x0800c7ac       0xac ./packages/CmBacktrace-v1.4.0/cm_backtrace.o
                0x0800c7ac                cm_backtrace_init
 .text.cm_backtrace_firmware_info
                0x0800c858       0x40 ./packages/CmBacktrace-v1.4.0/cm_backtrace.o
                0x0800c858                cm_backtrace_firmware_info
 .text.get_cur_thread_stack_info
                0x0800c898       0x84 ./packages/CmBacktrace-v1.4.0/cm_backtrace.o
 .text.get_cur_thread_name
                0x0800c91c       0x10 ./packages/CmBacktrace-v1.4.0/cm_backtrace.o
 .text.dump_stack
                0x0800c92c       0xe4 ./packages/CmBacktrace-v1.4.0/cm_backtrace.o
 .text.disassembly_ins_is_bl_blx
                0x0800ca10       0x50 ./packages/CmBacktrace-v1.4.0/cm_backtrace.o
 .text.cm_backtrace_call_stack
                0x0800ca60      0x1b8 ./packages/CmBacktrace-v1.4.0/cm_backtrace.o
                0x0800ca60                cm_backtrace_call_stack
 .text.print_call_stack
                0x0800cc18       0xd4 ./packages/CmBacktrace-v1.4.0/cm_backtrace.o
 .text.cm_backtrace_assert
                0x0800ccec       0xf8 ./packages/CmBacktrace-v1.4.0/cm_backtrace.o
                0x0800ccec                cm_backtrace_assert
 .text.fault_diagnosis
                0x0800cde4      0x428 ./packages/CmBacktrace-v1.4.0/cm_backtrace.o
 .text.statck_del_fpu_regs
                0x0800d20c       0x40 ./packages/CmBacktrace-v1.4.0/cm_backtrace.o
 .text.cm_backtrace_fault
                0x0800d24c      0x31c ./packages/CmBacktrace-v1.4.0/cm_backtrace.o
                0x0800d24c                cm_backtrace_fault
 .text.exception_hook
                0x0800d568       0xc8 ./packages/CmBacktrace-v1.4.0/cmb_port.o
                0x0800d568                exception_hook
 .text.assert_hook
                0x0800d630       0x8c ./packages/CmBacktrace-v1.4.0/cmb_port.o
                0x0800d630                assert_hook
 .text.rt_cm_backtrace_init
                0x0800d6bc       0x30 ./packages/CmBacktrace-v1.4.0/cmb_port.o
                0x0800d6bc                rt_cm_backtrace_init
 .text.cmb_test
                0x0800d6ec       0xf0 ./packages/CmBacktrace-v1.4.0/cmb_port.o
                0x0800d6ec                cmb_test
 .text.n32_msp_usart_init
                0x0800d7dc      0x104 ./board/msp/n32_msp.o
                0x0800d7dc                n32_msp_usart_init
 .text.uart_test_rw
                0x0800d8e0       0xc4 ./board/msp/n32_msp.o
 .text.uart_test
                0x0800d9a4       0x30 ./board/msp/n32_msp.o
 .text.pwm_set_test
                0x0800d9d4       0x4c ./board/msp/n32_msp.o
 .text.pwm_led_sample
                0x0800da20       0x64 ./board/msp/n32_msp.o
 .text.pwm_led_sample_off
                0x0800da84       0x40 ./board/msp/n32_msp.o
 .text.__NVIC_SetPriority
                0x0800dac4       0x54 ./board/board.o
 .text.SysTick_Config
                0x0800db18       0x44 ./board/board.o
 .text.SystemClock_Config
                0x0800db5c       0x2c ./board/board.o
                0x0800db5c                SystemClock_Config
 .text.SysTick_Handler
                0x0800db88       0x14 ./board/board.o
                0x0800db88                SysTick_Handler
 .text.rt_hw_board_init
                0x0800db9c       0x38 ./board/board.o
                0x0800db9c                rt_hw_board_init
 .text.main     0x0800dbd4       0xa0 ./applications/main.o
                0x0800dbd4                main
 .text.reboot   0x0800dc74       0x18 ./Libraries/rt_drivers/drv_common.o
 .text.get_pin  0x0800dc8c       0x48 ./Libraries/rt_drivers/drv_gpio.o
                0x0800dc8c                get_pin
 .text.n32_pin_write
                0x0800dcd4       0x54 ./Libraries/rt_drivers/drv_gpio.o
                0x0800dcd4                n32_pin_write
 .text.n32_pin_read
                0x0800dd28       0x50 ./Libraries/rt_drivers/drv_gpio.o
                0x0800dd28                n32_pin_read
 .text.n32_pin_mode
                0x0800dd78       0x94 ./Libraries/rt_drivers/drv_gpio.o
                0x0800dd78                n32_pin_mode
 .text.bit2bitno
                0x0800de0c       0x40 ./Libraries/rt_drivers/drv_gpio.o
 .text.get_pin_irq_map
                0x0800de4c       0x3c ./Libraries/rt_drivers/drv_gpio.o
 .text.n32_pin_attach_irq
                0x0800de88      0x14c ./Libraries/rt_drivers/drv_gpio.o
                0x0800de88                n32_pin_attach_irq
 .text.n32_pin_dettach_irq
                0x0800dfd4       0xd4 ./Libraries/rt_drivers/drv_gpio.o
                0x0800dfd4                n32_pin_dettach_irq
 .text.n32_pin_irq_enable
                0x0800e0a8      0x18c ./Libraries/rt_drivers/drv_gpio.o
                0x0800e0a8                n32_pin_irq_enable
 .text.n32_hw_pin_init
                0x0800e234       0x24 ./Libraries/rt_drivers/drv_gpio.o
                0x0800e234                n32_hw_pin_init
 .text.pin_irq_hdr
                0x0800e258       0x70 ./Libraries/rt_drivers/drv_gpio.o
 .text.EXTI0_IRQHandler
                0x0800e2c8       0x18 ./Libraries/rt_drivers/drv_gpio.o
                0x0800e2c8                EXTI0_IRQHandler
 .text.EXTI1_IRQHandler
                0x0800e2e0       0x18 ./Libraries/rt_drivers/drv_gpio.o
                0x0800e2e0                EXTI1_IRQHandler
 .text.EXTI2_IRQHandler
                0x0800e2f8       0x18 ./Libraries/rt_drivers/drv_gpio.o
                0x0800e2f8                EXTI2_IRQHandler
 .text.EXTI3_IRQHandler
                0x0800e310       0x18 ./Libraries/rt_drivers/drv_gpio.o
                0x0800e310                EXTI3_IRQHandler
 .text.EXTI4_IRQHandler
                0x0800e328       0x18 ./Libraries/rt_drivers/drv_gpio.o
                0x0800e328                EXTI4_IRQHandler
 .text.EXTI9_5_IRQHandler
                0x0800e340       0x70 ./Libraries/rt_drivers/drv_gpio.o
                0x0800e340                EXTI9_5_IRQHandler
 .text.EXTI15_10_IRQHandler
                0x0800e3b0       0x88 ./Libraries/rt_drivers/drv_gpio.o
                0x0800e3b0                EXTI15_10_IRQHandler
 .text.__NVIC_EnableIRQ
                0x0800e438       0x3c ./Libraries/rt_drivers/drv_usart.o
 .text.__NVIC_DisableIRQ
                0x0800e474       0x44 ./Libraries/rt_drivers/drv_usart.o
 .text.n32_uart_configure
                0x0800e4b8      0x140 ./Libraries/rt_drivers/drv_usart.o
 .text.n32_uart_control
                0x0800e5f8       0x94 ./Libraries/rt_drivers/drv_usart.o
 .text.n32_uart_putc
                0x0800e68c       0xa0 ./Libraries/rt_drivers/drv_usart.o
 .text.n32_uart_getc
                0x0800e72c       0x54 ./Libraries/rt_drivers/drv_usart.o
 .text.dma_uart_rx_idle_isr
                0x0800e780       0x78 ./Libraries/rt_drivers/drv_usart.o
 .text.dma_rx_done_isr
                0x0800e7f8       0x5c ./Libraries/rt_drivers/drv_usart.o
 .text.uart_isr
                0x0800e854       0xe4 ./Libraries/rt_drivers/drv_usart.o
 .text.USART1_IRQHandler
                0x0800e938       0x1c ./Libraries/rt_drivers/drv_usart.o
                0x0800e938                USART1_IRQHandler
 .text.DMA1_Channel5_IRQHandler
                0x0800e954       0x1c ./Libraries/rt_drivers/drv_usart.o
                0x0800e954                DMA1_Channel5_IRQHandler
 .text.USART2_IRQHandler
                0x0800e970       0x1c ./Libraries/rt_drivers/drv_usart.o
                0x0800e970                USART2_IRQHandler
 .text.DMA1_Channel6_IRQHandler
                0x0800e98c       0x1c ./Libraries/rt_drivers/drv_usart.o
                0x0800e98c                DMA1_Channel6_IRQHandler
 .text.USART3_IRQHandler
                0x0800e9a8       0x1c ./Libraries/rt_drivers/drv_usart.o
                0x0800e9a8                USART3_IRQHandler
 .text.DMA1_Channel3_IRQHandler
                0x0800e9c4       0x1c ./Libraries/rt_drivers/drv_usart.o
                0x0800e9c4                DMA1_Channel3_IRQHandler
 .text.NVIC_Configuration
                0x0800e9e0       0x30 ./Libraries/rt_drivers/drv_usart.o
 .text.DMA_Configuration
                0x0800ea10       0xf8 ./Libraries/rt_drivers/drv_usart.o
 .text.rt_hw_usart_init
                0x0800eb08       0xe0 ./Libraries/rt_drivers/drv_usart.o
                0x0800eb08                rt_hw_usart_init
 .text.NVIC_Init
                0x0800ebe8       0xc8 ./Libraries/N32_Std_Driver/n32g45x_std_periph_driver/src/misc.o
                0x0800ebe8                NVIC_Init
 .text.DMA_DeInit
                0x0800ecb0      0x1e0 ./Libraries/N32_Std_Driver/n32g45x_std_periph_driver/src/n32g45x_dma.o
                0x0800ecb0                DMA_DeInit
 .text.DMA_Init
                0x0800ee90       0x80 ./Libraries/N32_Std_Driver/n32g45x_std_periph_driver/src/n32g45x_dma.o
                0x0800ee90                DMA_Init
 .text.DMA_EnableChannel
                0x0800ef10       0x3c ./Libraries/N32_Std_Driver/n32g45x_std_periph_driver/src/n32g45x_dma.o
                0x0800ef10                DMA_EnableChannel
 .text.DMA_ConfigInt
                0x0800ef4c       0x3c ./Libraries/N32_Std_Driver/n32g45x_std_periph_driver/src/n32g45x_dma.o
                0x0800ef4c                DMA_ConfigInt
 .text.DMA_GetCurrDataCounter
                0x0800ef88       0x1c ./Libraries/N32_Std_Driver/n32g45x_std_periph_driver/src/n32g45x_dma.o
                0x0800ef88                DMA_GetCurrDataCounter
 .text.DMA_ClearFlag
                0x0800efa4       0x1c ./Libraries/N32_Std_Driver/n32g45x_std_periph_driver/src/n32g45x_dma.o
                0x0800efa4                DMA_ClearFlag
 .text.EXTI_InitPeripheral
                0x0800efc0       0xe4 ./Libraries/N32_Std_Driver/n32g45x_std_periph_driver/src/n32g45x_exti.o
                0x0800efc0                EXTI_InitPeripheral
 .text.EXTI_GetITStatus
                0x0800f0a4       0x48 ./Libraries/N32_Std_Driver/n32g45x_std_periph_driver/src/n32g45x_exti.o
                0x0800f0a4                EXTI_GetITStatus
 .text.EXTI_ClrITPendBit
                0x0800f0ec       0x20 ./Libraries/N32_Std_Driver/n32g45x_std_periph_driver/src/n32g45x_exti.o
                0x0800f0ec                EXTI_ClrITPendBit
 .text.GPIO_InitPeripheral
                0x0800f10c      0x17c ./Libraries/N32_Std_Driver/n32g45x_std_periph_driver/src/n32g45x_gpio.o
                0x0800f10c                GPIO_InitPeripheral
 .text.GPIO_InitStruct
                0x0800f288       0x28 ./Libraries/N32_Std_Driver/n32g45x_std_periph_driver/src/n32g45x_gpio.o
                0x0800f288                GPIO_InitStruct
 .text.GPIO_ReadInputDataBit
                0x0800f2b0       0x34 ./Libraries/N32_Std_Driver/n32g45x_std_periph_driver/src/n32g45x_gpio.o
                0x0800f2b0                GPIO_ReadInputDataBit
 .text.GPIO_SetBits
                0x0800f2e4       0x20 ./Libraries/N32_Std_Driver/n32g45x_std_periph_driver/src/n32g45x_gpio.o
                0x0800f2e4                GPIO_SetBits
 .text.GPIO_ResetBits
                0x0800f304       0x20 ./Libraries/N32_Std_Driver/n32g45x_std_periph_driver/src/n32g45x_gpio.o
                0x0800f304                GPIO_ResetBits
 .text.GPIO_ConfigEXTILine
                0x0800f324       0x84 ./Libraries/N32_Std_Driver/n32g45x_std_periph_driver/src/n32g45x_gpio.o
                0x0800f324                GPIO_ConfigEXTILine
 .text.RCC_GetClocksFreqValue
                0x0800f3a8      0x1a0 ./Libraries/N32_Std_Driver/n32g45x_std_periph_driver/src/n32g45x_rcc.o
                0x0800f3a8                RCC_GetClocksFreqValue
 .text.RCC_EnableAHBPeriphClk
                0x0800f548       0x40 ./Libraries/N32_Std_Driver/n32g45x_std_periph_driver/src/n32g45x_rcc.o
                0x0800f548                RCC_EnableAHBPeriphClk
 .text.RCC_EnableAPB2PeriphClk
                0x0800f588       0x40 ./Libraries/N32_Std_Driver/n32g45x_std_periph_driver/src/n32g45x_rcc.o
                0x0800f588                RCC_EnableAPB2PeriphClk
 .text.RCC_EnableAPB1PeriphClk
                0x0800f5c8       0x40 ./Libraries/N32_Std_Driver/n32g45x_std_periph_driver/src/n32g45x_rcc.o
                0x0800f5c8                RCC_EnableAPB1PeriphClk
 .text.USART_Init
                0x0800f608      0x140 ./Libraries/N32_Std_Driver/n32g45x_std_periph_driver/src/n32g45x_usart.o
                0x0800f608                USART_Init
 .text.USART_Enable
                0x0800f748       0x40 ./Libraries/N32_Std_Driver/n32g45x_std_periph_driver/src/n32g45x_usart.o
                0x0800f748                USART_Enable
 .text.USART_ConfigInt
                0x0800f788       0x90 ./Libraries/N32_Std_Driver/n32g45x_std_periph_driver/src/n32g45x_usart.o
                0x0800f788                USART_ConfigInt
 .text.USART_EnableDMA
                0x0800f818       0x48 ./Libraries/N32_Std_Driver/n32g45x_std_periph_driver/src/n32g45x_usart.o
                0x0800f818                USART_EnableDMA
 .text.USART_ReceiveData
                0x0800f860       0x20 ./Libraries/N32_Std_Driver/n32g45x_std_periph_driver/src/n32g45x_usart.o
                0x0800f860                USART_ReceiveData
 .text.USART_GetFlagStatus
                0x0800f880       0x38 ./Libraries/N32_Std_Driver/n32g45x_std_periph_driver/src/n32g45x_usart.o
                0x0800f880                USART_GetFlagStatus
 .text.USART_ClrFlag
                0x0800f8b8       0x24 ./Libraries/N32_Std_Driver/n32g45x_std_periph_driver/src/n32g45x_usart.o
                0x0800f8b8                USART_ClrFlag
 .text.USART_GetIntStatus
                0x0800f8dc       0xb8 ./Libraries/N32_Std_Driver/n32g45x_std_periph_driver/src/n32g45x_usart.o
                0x0800f8dc                USART_GetIntStatus
 .text.USART_ClrIntPendingBit
                0x0800f994       0x3c ./Libraries/N32_Std_Driver/n32g45x_std_periph_driver/src/n32g45x_usart.o
                0x0800f994                USART_ClrIntPendingBit
 .text.Reset_Handler
                0x0800f9d0       0x44 ./Libraries/N32_Std_Driver/CMSIS/device/startup/startup_n32g45x_gcc.o
                0x0800f9d0                Reset_Handler
 .text.Default_Handler
                0x0800fa14        0x2 ./Libraries/N32_Std_Driver/CMSIS/device/startup/startup_n32g45x_gcc.o
                0x0800fa14                TIM8_TRG_COM_IRQHandler
                0x0800fa14                TIM8_CC_IRQHandler
                0x0800fa14                DebugMon_Handler
                0x0800fa14                TIM1_CC_IRQHandler
                0x0800fa14                TSC_IRQHandler
                0x0800fa14                SAC_IRQHandler
                0x0800fa14                TIM6_IRQHandler
                0x0800fa14                PVD_IRQHandler
                0x0800fa14                SDIO_IRQHandler
                0x0800fa14                DMA2_Channel8_IRQHandler
                0x0800fa14                NMI_Handler
                0x0800fa14                CAN2_RX1_IRQHandler
                0x0800fa14                I2C3_ER_IRQHandler
                0x0800fa14                I2C2_EV_IRQHandler
                0x0800fa14                UsageFault_Handler
                0x0800fa14                CAN2_SCE_IRQHandler
                0x0800fa14                ADC1_2_IRQHandler
                0x0800fa14                SPI1_IRQHandler
                0x0800fa14                TAMPER_IRQHandler
                0x0800fa14                CAN2_RX0_IRQHandler
                0x0800fa14                TIM8_UP_IRQHandler
                0x0800fa14                DMA2_Channel2_IRQHandler
                0x0800fa14                DMA1_Channel4_IRQHandler
                0x0800fa14                DMA1_Channel7_IRQHandler
                0x0800fa14                CAN1_RX1_IRQHandler
                0x0800fa14                DVP_IRQHandler
                0x0800fa14                UART5_IRQHandler
                0x0800fa14                TIM4_IRQHandler
                0x0800fa14                DMA2_Channel1_IRQHandler
                0x0800fa14                I2C1_EV_IRQHandler
                0x0800fa14                UART4_IRQHandler
                0x0800fa14                DMA2_Channel4_IRQHandler
                0x0800fa14                TIM3_IRQHandler
                0x0800fa14                RCC_IRQHandler
                0x0800fa14                TIM1_TRG_COM_IRQHandler
                0x0800fa14                DMA1_Channel1_IRQHandler
                0x0800fa14                Default_Handler
                0x0800fa14                DMA2_Channel7_IRQHandler
                0x0800fa14                DMA1_Channel8_IRQHandler
                0x0800fa14                TIM7_IRQHandler
                0x0800fa14                CAN2_TX_IRQHandler
                0x0800fa14                TIM5_IRQHandler
                0x0800fa14                I2C3_EV_IRQHandler
                0x0800fa14                RTC_WKUP_IRQHandler
                0x0800fa14                MMU_IRQHandler
                0x0800fa14                ETH_WKUP_IRQHandler
                0x0800fa14                SPI2_IRQHandler
                0x0800fa14                MemManage_Handler
                0x0800fa14                SVC_Handler
                0x0800fa14                DMA2_Channel5_IRQHandler
                0x0800fa14                USB_LP_CAN1_RX0_IRQHandler
                0x0800fa14                USB_HP_CAN1_TX_IRQHandler
                0x0800fa14                ETH_IRQHandler
                0x0800fa14                TIM1_UP_IRQHandler
                0x0800fa14                WWDG_IRQHandler
                0x0800fa14                I2C4_EV_IRQHandler
                0x0800fa14                DMA2_Channel6_IRQHandler
                0x0800fa14                TIM2_IRQHandler
                0x0800fa14                TIM1_BRK_IRQHandler
                0x0800fa14                ADC3_4_IRQHandler
                0x0800fa14                RTCAlarm_IRQHandler
                0x0800fa14                UART7_IRQHandler
                0x0800fa14                UART6_IRQHandler
                0x0800fa14                XFMC_IRQHandler
                0x0800fa14                I2C2_ER_IRQHandler
                0x0800fa14                DMA1_Channel2_IRQHandler
                0x0800fa14                TIM8_BRK_IRQHandler
                0x0800fa14                CAN1_SCE_IRQHandler
                0x0800fa14                FLASH_IRQHandler
                0x0800fa14                BusFault_Handler
                0x0800fa14                SPI3_IRQHandler
                0x0800fa14                I2C1_ER_IRQHandler
                0x0800fa14                QSPI_IRQHandler
                0x0800fa14                I2C4_ER_IRQHandler
                0x0800fa14                USBWakeUp_IRQHandler
                0x0800fa14                DMA2_Channel3_IRQHandler
 *fill*         0x0800fa16        0x2 00000000
 .text.SystemInit
                0x0800fa18       0xc0 ./Libraries/N32_Std_Driver/CMSIS/device/system_n32g45x.o
                0x0800fa18                SystemInit
 .text.SetSysClock
                0x0800fad8      0x134 ./Libraries/N32_Std_Driver/CMSIS/device/system_n32g45x.o
 .text.atoi     0x0800fc0c        0x8 c:/rt-threadstudio/repo/extract/toolchain_support_packages/arm/gnu_tools_for_arm_embedded_processors/5.4.1/bin/../lib/gcc/arm-none-eabi/5.4.1/../../../../arm-none-eabi/lib/armv7e-m/fpu\libc.a(lib_a-atoi.o)
                0x0800fc0c                atoi
 .text.memcmp   0x0800fc14       0x64 c:/rt-threadstudio/repo/extract/toolchain_support_packages/arm/gnu_tools_for_arm_embedded_processors/5.4.1/bin/../lib/gcc/arm-none-eabi/5.4.1/../../../../arm-none-eabi/lib/armv7e-m/fpu\libc.a(lib_a-memcmp.o)
                0x0800fc14                memcmp
 .text.memset   0x0800fc78       0x9c c:/rt-threadstudio/repo/extract/toolchain_support_packages/arm/gnu_tools_for_arm_embedded_processors/5.4.1/bin/../lib/gcc/arm-none-eabi/5.4.1/../../../../arm-none-eabi/lib/armv7e-m/fpu\libc.a(lib_a-memset.o)
                0x0800fc78                memset
 .text.sprintf  0x0800fd14       0x4c c:/rt-threadstudio/repo/extract/toolchain_support_packages/arm/gnu_tools_for_arm_embedded_processors/5.4.1/bin/../lib/gcc/arm-none-eabi/5.4.1/../../../../arm-none-eabi/lib/armv7e-m/fpu\libc.a(lib_a-sprintf.o)
                0x0800fd14                sprintf
 .text.strncmp  0x0800fd60       0xa0 c:/rt-threadstudio/repo/extract/toolchain_support_packages/arm/gnu_tools_for_arm_embedded_processors/5.4.1/bin/../lib/gcc/arm-none-eabi/5.4.1/../../../../arm-none-eabi/lib/armv7e-m/fpu\libc.a(lib_a-strncmp.o)
                0x0800fd60                strncmp
 .text.strncpy  0x0800fe00       0x68 c:/rt-threadstudio/repo/extract/toolchain_support_packages/arm/gnu_tools_for_arm_embedded_processors/5.4.1/bin/../lib/gcc/arm-none-eabi/5.4.1/../../../../arm-none-eabi/lib/armv7e-m/fpu\libc.a(lib_a-strncpy.o)
                0x0800fe00                strncpy
 .text._strtol_l.isra.0
                0x0800fe68      0x138 c:/rt-threadstudio/repo/extract/toolchain_support_packages/arm/gnu_tools_for_arm_embedded_processors/5.4.1/bin/../lib/gcc/arm-none-eabi/5.4.1/../../../../arm-none-eabi/lib/armv7e-m/fpu\libc.a(lib_a-strtol.o)
 .text.strtol   0x0800ffa0       0x2c c:/rt-threadstudio/repo/extract/toolchain_support_packages/arm/gnu_tools_for_arm_embedded_processors/5.4.1/bin/../lib/gcc/arm-none-eabi/5.4.1/../../../../arm-none-eabi/lib/armv7e-m/fpu\libc.a(lib_a-strtol.o)
                0x0800ffa0                strtol
 *fill*         0x0800ffcc        0x4 00000000
 .text._svfprintf_r
                0x0800ffd0     0x16e4 c:/rt-threadstudio/repo/extract/toolchain_support_packages/arm/gnu_tools_for_arm_embedded_processors/5.4.1/bin/../lib/gcc/arm-none-eabi/5.4.1/../../../../arm-none-eabi/lib/armv7e-m/fpu\libc.a(lib_a-svfprintf.o)
                0x0800ffd0                _svfprintf_r
 .text.startup.register_fini
                0x080116b4       0x14 c:/rt-threadstudio/repo/extract/toolchain_support_packages/arm/gnu_tools_for_arm_embedded_processors/5.4.1/bin/../lib/gcc/arm-none-eabi/5.4.1/../../../../arm-none-eabi/lib/armv7e-m/fpu\libc.a(lib_a-__call_atexit.o)
 .text.atexit   0x080116c8        0xc c:/rt-threadstudio/repo/extract/toolchain_support_packages/arm/gnu_tools_for_arm_embedded_processors/5.4.1/bin/../lib/gcc/arm-none-eabi/5.4.1/../../../../arm-none-eabi/lib/armv7e-m/fpu\libc.a(lib_a-atexit.o)
                0x080116c8                atexit
 .text.quorem   0x080116d4      0x128 c:/rt-threadstudio/repo/extract/toolchain_support_packages/arm/gnu_tools_for_arm_embedded_processors/5.4.1/bin/../lib/gcc/arm-none-eabi/5.4.1/../../../../arm-none-eabi/lib/armv7e-m/fpu\libc.a(lib_a-dtoa.o)
 *fill*         0x080117fc        0x4 00000000
 .text._dtoa_r  0x08011800      0xe34 c:/rt-threadstudio/repo/extract/toolchain_support_packages/arm/gnu_tools_for_arm_embedded_processors/5.4.1/bin/../lib/gcc/arm-none-eabi/5.4.1/../../../../arm-none-eabi/lib/armv7e-m/fpu\libc.a(lib_a-dtoa.o)
                0x08011800                _dtoa_r
 .text.__libc_fini_array
                0x08012634       0x28 c:/rt-threadstudio/repo/extract/toolchain_support_packages/arm/gnu_tools_for_arm_embedded_processors/5.4.1/bin/../lib/gcc/arm-none-eabi/5.4.1/../../../../arm-none-eabi/lib/armv7e-m/fpu\libc.a(lib_a-fini.o)
                0x08012634                __libc_fini_array
 .text.__locale_ctype_ptr_l
                0x0801265c        0x8 c:/rt-threadstudio/repo/extract/toolchain_support_packages/arm/gnu_tools_for_arm_embedded_processors/5.4.1/bin/../lib/gcc/arm-none-eabi/5.4.1/../../../../arm-none-eabi/lib/armv7e-m/fpu\libc.a(lib_a-locale.o)
                0x0801265c                __locale_ctype_ptr_l
 .text._localeconv_r
                0x08012664       0x1c c:/rt-threadstudio/repo/extract/toolchain_support_packages/arm/gnu_tools_for_arm_embedded_processors/5.4.1/bin/../lib/gcc/arm-none-eabi/5.4.1/../../../../arm-none-eabi/lib/armv7e-m/fpu\libc.a(lib_a-localeconv.o)
                0x08012664                _localeconv_r
 .text.malloc   0x08012680       0x10 c:/rt-threadstudio/repo/extract/toolchain_support_packages/arm/gnu_tools_for_arm_embedded_processors/5.4.1/bin/../lib/gcc/arm-none-eabi/5.4.1/../../../../arm-none-eabi/lib/armv7e-m/fpu\libc.a(lib_a-malloc.o)
                0x08012680                malloc
 .text.__ascii_mbtowc
                0x08012690       0x2c c:/rt-threadstudio/repo/extract/toolchain_support_packages/arm/gnu_tools_for_arm_embedded_processors/5.4.1/bin/../lib/gcc/arm-none-eabi/5.4.1/../../../../arm-none-eabi/lib/armv7e-m/fpu\libc.a(lib_a-mbtowc_r.o)
                0x08012690                __ascii_mbtowc
 .text._Balloc  0x080126bc       0x4c c:/rt-threadstudio/repo/extract/toolchain_support_packages/arm/gnu_tools_for_arm_embedded_processors/5.4.1/bin/../lib/gcc/arm-none-eabi/5.4.1/../../../../arm-none-eabi/lib/armv7e-m/fpu\libc.a(lib_a-mprec.o)
                0x080126bc                _Balloc
 .text._Bfree   0x08012708       0x14 c:/rt-threadstudio/repo/extract/toolchain_support_packages/arm/gnu_tools_for_arm_embedded_processors/5.4.1/bin/../lib/gcc/arm-none-eabi/5.4.1/../../../../arm-none-eabi/lib/armv7e-m/fpu\libc.a(lib_a-mprec.o)
                0x08012708                _Bfree
 .text.__multadd
                0x0801271c       0x80 c:/rt-threadstudio/repo/extract/toolchain_support_packages/arm/gnu_tools_for_arm_embedded_processors/5.4.1/bin/../lib/gcc/arm-none-eabi/5.4.1/../../../../arm-none-eabi/lib/armv7e-m/fpu\libc.a(lib_a-mprec.o)
                0x0801271c                __multadd
 .text.__hi0bits
                0x0801279c       0x40 c:/rt-threadstudio/repo/extract/toolchain_support_packages/arm/gnu_tools_for_arm_embedded_processors/5.4.1/bin/../lib/gcc/arm-none-eabi/5.4.1/../../../../arm-none-eabi/lib/armv7e-m/fpu\libc.a(lib_a-mprec.o)
                0x0801279c                __hi0bits
 .text.__lo0bits
                0x080127dc       0x5c c:/rt-threadstudio/repo/extract/toolchain_support_packages/arm/gnu_tools_for_arm_embedded_processors/5.4.1/bin/../lib/gcc/arm-none-eabi/5.4.1/../../../../arm-none-eabi/lib/armv7e-m/fpu\libc.a(lib_a-mprec.o)
                0x080127dc                __lo0bits
 .text.__i2b    0x08012838       0x14 c:/rt-threadstudio/repo/extract/toolchain_support_packages/arm/gnu_tools_for_arm_embedded_processors/5.4.1/bin/../lib/gcc/arm-none-eabi/5.4.1/../../../../arm-none-eabi/lib/armv7e-m/fpu\libc.a(lib_a-mprec.o)
                0x08012838                __i2b
 .text.__multiply
                0x0801284c      0x130 c:/rt-threadstudio/repo/extract/toolchain_support_packages/arm/gnu_tools_for_arm_embedded_processors/5.4.1/bin/../lib/gcc/arm-none-eabi/5.4.1/../../../../arm-none-eabi/lib/armv7e-m/fpu\libc.a(lib_a-mprec.o)
                0x0801284c                __multiply
 .text.__pow5mult
                0x0801297c       0xa0 c:/rt-threadstudio/repo/extract/toolchain_support_packages/arm/gnu_tools_for_arm_embedded_processors/5.4.1/bin/../lib/gcc/arm-none-eabi/5.4.1/../../../../arm-none-eabi/lib/armv7e-m/fpu\libc.a(lib_a-mprec.o)
                0x0801297c                __pow5mult
 .text.__lshift
                0x08012a1c       0xb0 c:/rt-threadstudio/repo/extract/toolchain_support_packages/arm/gnu_tools_for_arm_embedded_processors/5.4.1/bin/../lib/gcc/arm-none-eabi/5.4.1/../../../../arm-none-eabi/lib/armv7e-m/fpu\libc.a(lib_a-mprec.o)
                0x08012a1c                __lshift
 .text.__mcmp   0x08012acc       0x44 c:/rt-threadstudio/repo/extract/toolchain_support_packages/arm/gnu_tools_for_arm_embedded_processors/5.4.1/bin/../lib/gcc/arm-none-eabi/5.4.1/../../../../arm-none-eabi/lib/armv7e-m/fpu\libc.a(lib_a-mprec.o)
                0x08012acc                __mcmp
 .text.__mdiff  0x08012b10      0x114 c:/rt-threadstudio/repo/extract/toolchain_support_packages/arm/gnu_tools_for_arm_embedded_processors/5.4.1/bin/../lib/gcc/arm-none-eabi/5.4.1/../../../../arm-none-eabi/lib/armv7e-m/fpu\libc.a(lib_a-mprec.o)
                0x08012b10                __mdiff
 .text.__d2b    0x08012c24       0xbc c:/rt-threadstudio/repo/extract/toolchain_support_packages/arm/gnu_tools_for_arm_embedded_processors/5.4.1/bin/../lib/gcc/arm-none-eabi/5.4.1/../../../../arm-none-eabi/lib/armv7e-m/fpu\libc.a(lib_a-mprec.o)
                0x08012c24                __d2b
 .text.__ssprint_r
                0x08012ce0      0x100 c:/rt-threadstudio/repo/extract/toolchain_support_packages/arm/gnu_tools_for_arm_embedded_processors/5.4.1/bin/../lib/gcc/arm-none-eabi/5.4.1/../../../../arm-none-eabi/lib/armv7e-m/fpu\libc.a(lib_a-svfiprintf.o)
                0x08012ce0                __ssprint_r
 .text.__ascii_wctomb
                0x08012de0       0x1c c:/rt-threadstudio/repo/extract/toolchain_support_packages/arm/gnu_tools_for_arm_embedded_processors/5.4.1/bin/../lib/gcc/arm-none-eabi/5.4.1/../../../../arm-none-eabi/lib/armv7e-m/fpu\libc.a(lib_a-wctomb_r.o)
                0x08012de0                __ascii_wctomb
 .text.__register_exitproc
                0x08012dfc       0xa4 c:/rt-threadstudio/repo/extract/toolchain_support_packages/arm/gnu_tools_for_arm_embedded_processors/5.4.1/bin/../lib/gcc/arm-none-eabi/5.4.1/../../../../arm-none-eabi/lib/armv7e-m/fpu\libc.a(lib_a-__atexit.o)
                0x08012dfc                __register_exitproc
 .text.memmove  0x08012ea0       0xc8 c:/rt-threadstudio/repo/extract/toolchain_support_packages/arm/gnu_tools_for_arm_embedded_processors/5.4.1/bin/../lib/gcc/arm-none-eabi/5.4.1/../../../../arm-none-eabi/lib/armv7e-m/fpu\libc.a(lib_a-memmove.o)
                0x08012ea0                memmove
 *(.rodata)
 .rodata        0x08012f68       0x17 ./rt-thread/src/components.o
 *fill*         0x08012f7f        0x1 00000000
 .rodata        0x08012f80       0xf4 ./rt-thread/src/device.o
 .rodata        0x08013074       0x34 ./rt-thread/src/idle.o
 .rodata        0x080130a8      0x476 ./rt-thread/src/ipc.o
 *fill*         0x0801351e        0x2 00000000
 .rodata        0x08013520       0xd7 ./rt-thread/src/kservice.o
 *fill*         0x080135f7        0x1 00000000
 .rodata        0x080135f8      0x2fa ./rt-thread/src/mem.o
 *fill*         0x080138f2        0x2 00000000
 .rodata        0x080138f4       0x91 ./rt-thread/src/object.o
 *fill*         0x08013985        0x3 00000000
 .rodata        0x08013988       0x65 ./rt-thread/src/scheduler.o
 *fill*         0x080139ed        0x3 00000000
 .rodata        0x080139f0      0x19e ./rt-thread/src/thread.o
 *fill*         0x08013b8e        0x2 00000000
 .rodata        0x08013b90       0xde ./rt-thread/src/timer.o
 *fill*         0x08013c6e        0x2 00000000
 .rodata        0x08013c70      0x2ce ./rt-thread/libcpu/arm/cortex-m4/cpuport.o
 *fill*         0x08013f3e        0x2 00000000
 .rodata        0x08013f40        0x8 ./rt-thread/components/utilities/ulog/backend/console_be.o
 .rodata        0x08013f48      0x126 ./rt-thread/components/utilities/ulog/ulog.o
 *fill*         0x0801406e        0x2 00000000
 .rodata        0x08014070      0x665 ./rt-thread/components/finsh/cmd.o
 *fill*         0x080146d5        0x3 00000000
 .rodata        0x080146d8       0x78 ./rt-thread/components/finsh/msh.o
 .rodata        0x08014750       0x91 ./rt-thread/components/finsh/shell.o
 *fill*         0x080147e1        0x3 00000000
 .rodata        0x080147e4      0x629 ./rt-thread/components/drivers/usb/usbdevice/core/usbdevice_core.o
 *fill*         0x08014e0d        0x3 00000000
 .rodata        0x08014e10      0x181 ./rt-thread/components/drivers/usb/usbdevice/class/cdc_vcom.o
 *fill*         0x08014f91        0x3 00000000
 .rodata        0x08014f94       0x72 ./rt-thread/components/drivers/src/completion.o
 *fill*         0x08015006        0x2 00000000
 .rodata        0x08015008       0x90 ./rt-thread/components/drivers/src/dataqueue.o
 .rodata        0x08015098       0x19 ./rt-thread/components/drivers/src/ringbuffer.o
 *fill*         0x080150b1        0x3 00000000
 .rodata        0x080150b4      0x126 ./rt-thread/components/drivers/serial/serial.o
 *fill*         0x080151da        0x2 00000000
 .rodata        0x080151dc       0x37 ./rt-thread/components/drivers/misc/pin.o
 *fill*         0x08015213        0x1 00000000
 .rodata        0x08015214      0x1ab ./rt-thread/components/drivers/misc/rt_drv_pwm.o
 *fill*         0x080153bf        0x1 00000000
 .rodata        0x080153c0       0x34 ./packages/peripheral_samples-latest/led_blink_sample.o
 .rodata        0x080153f4       0x5b ./packages/peripheral_samples-latest/uart_dma_sample.o
 *fill*         0x0801544f        0x1 00000000
 .rodata        0x08015450      0x9b4 ./packages/CmBacktrace-v1.4.0/cm_backtrace.o
 .rodata        0x08015e04       0xc3 ./packages/CmBacktrace-v1.4.0/cmb_port.o
 *fill*         0x08015ec7        0x1 00000000
 .rodata        0x08015ec8       0x89 ./board/msp/n32_msp.o
 *fill*         0x08015f51        0x3 00000000
 .rodata        0x08015f54        0x6 ./board/board.o
 *fill*         0x08015f5a        0x2 00000000
 .rodata        0x08015f5c       0x15 ./applications/main.o
 *fill*         0x08015f71        0x3 00000000
 .rodata        0x08015f74        0x4 ./Libraries/rt_drivers/drv_gpio.o
 .rodata        0x08015f78       0x74 ./Libraries/rt_drivers/drv_usart.o
 *(.rodata*)
 .rodata.__FUNCTION__.5160
                0x08015fec       0x14 ./rt-thread/src/components.o
 .rodata.__FUNCTION__.5069
                0x08016000        0xf ./rt-thread/src/device.o
 *fill*         0x0801600f        0x1 00000000
 .rodata.__FUNCTION__.5074
                0x08016010       0x10 ./rt-thread/src/device.o
 .rodata.__FUNCTION__.5081
                0x08016020        0xf ./rt-thread/src/device.o
 *fill*         0x0801602f        0x1 00000000
 .rodata.__FUNCTION__.5088
                0x08016030       0x10 ./rt-thread/src/device.o
 .rodata.__FUNCTION__.5094
                0x08016040       0x12 ./rt-thread/src/device.o
 *fill*         0x08016052        0x2 00000000
 .rodata.__FUNCTION__.5101
                0x08016054       0x1a ./rt-thread/src/device.o
 *fill*         0x0801606e        0x2 00000000
 .rodata.__FUNCTION__.5152
                0x08016070       0x13 ./rt-thread/src/idle.o
 *fill*         0x08016083        0x1 00000000
 .rodata.__FUNCTION__.5153
                0x08016084        0xc ./rt-thread/src/ipc.o
 .rodata.__FUNCTION__.5177
                0x08016090        0xc ./rt-thread/src/ipc.o
 .rodata.__FUNCTION__.5134
                0x0801609c       0x12 ./rt-thread/src/ipc.o
 *fill*         0x080160ae        0x2 00000000
 .rodata.__FUNCTION__.5188
                0x080160b0        0xf ./rt-thread/src/ipc.o
 *fill*         0x080160bf        0x1 00000000
 .rodata.__FUNCTION__.5251
                0x080160c0        0xe ./rt-thread/src/ipc.o
 *fill*         0x080160ce        0x2 00000000
 .rodata.__FUNCTION__.5277
                0x080160d0        0xe ./rt-thread/src/ipc.o
 *fill*         0x080160de        0x2 00000000
 .rodata.__FUNCTION__.5292
                0x080160e0        0xe ./rt-thread/src/ipc.o
 *fill*         0x080160ee        0x2 00000000
 .rodata.__FUNCTION__.5383
                0x080160f0        0xb ./rt-thread/src/ipc.o
 *fill*         0x080160fb        0x1 00000000
 .rodata.__FUNCTION__.5420
                0x080160fc       0x10 ./rt-thread/src/ipc.o
 .rodata.__FUNCTION__.5449
                0x0801610c        0xb ./rt-thread/src/ipc.o
 *fill*         0x08016117        0x1 00000000
 .rodata.__lowest_bit_bitmap
                0x08016118      0x100 ./rt-thread/src/kservice.o
                0x08016118                __lowest_bit_bitmap
 .rodata.large_digits.5285
                0x08016218       0x11 ./rt-thread/src/kservice.o
 *fill*         0x08016229        0x3 00000000
 .rodata.small_digits.5284
                0x0801622c       0x11 ./rt-thread/src/kservice.o
 *fill*         0x0801623d        0x3 00000000
 .rodata.__FUNCTION__.5142
                0x08016240        0xb ./rt-thread/src/mem.o
 *fill*         0x0801624b        0x1 00000000
 .rodata.__FUNCTION__.5151
                0x0801624c       0x14 ./rt-thread/src/mem.o
 .rodata.__FUNCTION__.5160
                0x08016260        0xa ./rt-thread/src/mem.o
 *fill*         0x0801626a        0x2 00000000
 .rodata.__FUNCTION__.5178
                0x0801626c        0xb ./rt-thread/src/mem.o
 *fill*         0x08016277        0x1 00000000
 .rodata.__FUNCTION__.5189
                0x08016278        0x8 ./rt-thread/src/mem.o
 .rodata.__FUNCTION__.5191
                0x08016280        0xf ./rt-thread/src/object.o
 *fill*         0x0801628f        0x1 00000000
 .rodata.__FUNCTION__.5200
                0x08016290       0x11 ./rt-thread/src/object.o
 *fill*         0x080162a1        0x3 00000000
 .rodata.__FUNCTION__.5209
                0x080162a4       0x13 ./rt-thread/src/object.o
 *fill*         0x080162b7        0x1 00000000
 .rodata.__FUNCTION__.5214
                0x080162b8       0x11 ./rt-thread/src/object.o
 *fill*         0x080162c9        0x3 00000000
 .rodata.__FUNCTION__.5218
                0x080162cc       0x1a ./rt-thread/src/object.o
 *fill*         0x080162e6        0x2 00000000
 .rodata.__FUNCTION__.5222
                0x080162e8       0x13 ./rt-thread/src/object.o
 *fill*         0x080162fb        0x1 00000000
 .rodata.__FUNCTION__.5231
                0x080162fc        0xf ./rt-thread/src/object.o
 *fill*         0x0801630b        0x1 00000000
 .rodata.__FUNCTION__.5134
                0x0801630c       0x1a ./rt-thread/src/scheduler.o
 *fill*         0x08016326        0x2 00000000
 .rodata.__FUNCTION__.5172
                0x08016328       0x1a ./rt-thread/src/scheduler.o
 *fill*         0x08016342        0x2 00000000
 .rodata.__FUNCTION__.5178
                0x08016344       0x1a ./rt-thread/src/scheduler.o
 *fill*         0x0801635e        0x2 00000000
 .rodata.__FUNCTION__.5149
                0x08016360        0xd ./rt-thread/src/thread.o
 *fill*         0x0801636d        0x3 00000000
 .rodata.__FUNCTION__.5161
                0x08016370        0xf ./rt-thread/src/thread.o
 *fill*         0x0801637f        0x1 00000000
 .rodata.__FUNCTION__.5170
                0x08016380       0x12 ./rt-thread/src/thread.o
 *fill*         0x08016392        0x2 00000000
 .rodata.__FUNCTION__.5202
                0x08016394       0x10 ./rt-thread/src/thread.o
 .rodata.__FUNCTION__.5237
                0x080163a4       0x12 ./rt-thread/src/thread.o
 *fill*         0x080163b6        0x2 00000000
 .rodata.__FUNCTION__.5242
                0x080163b8       0x11 ./rt-thread/src/thread.o
 *fill*         0x080163c9        0x3 00000000
 .rodata.__FUNCTION__.5248
                0x080163cc       0x12 ./rt-thread/src/thread.o
 *fill*         0x080163de        0x2 00000000
 .rodata.__FUNCTION__.5166
                0x080163e0        0xe ./rt-thread/src/timer.o
 *fill*         0x080163ee        0x2 00000000
 .rodata.__FUNCTION__.5171
                0x080163f0       0x10 ./rt-thread/src/timer.o
 .rodata.__FUNCTION__.5196
                0x08016400        0xf ./rt-thread/src/timer.o
 *fill*         0x0801640f        0x1 00000000
 .rodata.__FUNCTION__.5213
                0x08016410        0xe ./rt-thread/src/timer.o
 *fill*         0x0801641e        0x2 00000000
 .rodata.__FUNCTION__.5220
                0x08016420       0x11 ./rt-thread/src/timer.o
 *fill*         0x08016431        0x3 00000000
 .rodata.level_output_info
                0x08016434       0x20 ./rt-thread/components/utilities/ulog/ulog.o
 .rodata.color_output_info
                0x08016454       0x20 ./rt-thread/components/utilities/ulog/ulog.o
 .rodata.__FUNCTION__.5834
                0x08016474        0xc ./rt-thread/components/utilities/ulog/ulog.o
 .rodata.__FUNCTION__.5874
                0x08016480        0xe ./rt-thread/components/utilities/ulog/ulog.o
 *fill*         0x0801648e        0x2 00000000
 .rodata.__FUNCTION__.5917
                0x08016490        0xd ./rt-thread/components/utilities/ulog/ulog.o
 *fill*         0x0801649d        0x3 00000000
 .rodata.__FUNCTION__.5964
                0x080164a0       0x16 ./rt-thread/components/utilities/ulog/ulog.o
 *fill*         0x080164b6        0x2 00000000
 .rodata.name   0x080164b8      0x1e4 ./rt-thread/components/finsh/cmd.o
                0x080164b8                __fsym_hello_name
                0x080164c0                __fsym_hello_desc
                0x080164d0                __fsym_clear_name
                0x080164d8                __fsym_clear_desc
                0x080164f4                __fsym_version_name
                0x080164fc                __fsym_version_desc
                0x08016524                __fsym_list_thread_name
                0x08016530                __fsym_list_thread_desc
                0x0801653c                __fsym_list_sem_name
                0x08016548                __fsym_list_sem_desc
                0x08016564                __fsym_list_event_name
                0x08016570                __fsym_list_event_desc
                0x08016588                __fsym_list_mutex_name
                0x08016594                __fsym_list_mutex_desc
                0x080165ac                __fsym_list_mailbox_name
                0x080165bc                __fsym_list_mailbox_desc
                0x080165d4                __fsym_list_msgqueue_name
                0x080165e4                __fsym_list_msgqueue_desc
                0x08016604                __fsym_list_mempool_name
                0x08016614                __fsym_list_mempool_desc
                0x08016630                __fsym_list_timer_name
                0x0801663c                __fsym_list_timer_desc
                0x08016654                __fsym_list_device_name
                0x08016660                __fsym_list_device_desc
                0x08016678                __fsym_list_name
                0x08016680                __fsym_list_desc
 .rodata.device_type_str
                0x0801669c       0x64 ./rt-thread/components/finsh/cmd.o
 .rodata.name   0x08016700       0x6d ./rt-thread/components/finsh/msh.o
                0x08016700                __fsym_help_name
                0x08016708                __fsym_help_desc
                0x08016720                __fsym_ps_name
                0x08016724                __fsym_ps_desc
                0x08016740                __fsym_free_name
                0x08016748                __fsym_free_desc
 *fill*         0x0801676d        0x3 00000000
 .rodata.__FUNCTION__.5550
                0x08016770        0xe ./rt-thread/components/finsh/msh.o
 *fill*         0x0801677e        0x2 00000000
 .rodata.__FUNCTION__.6348
                0x08016780       0x16 ./rt-thread/components/finsh/shell.o
 *fill*         0x08016796        0x2 00000000
 .rodata.__FUNCTION__.6354
                0x08016798        0xe ./rt-thread/components/finsh/shell.o
 *fill*         0x080167a6        0x2 00000000
 .rodata.__FUNCTION__.6362
                0x080167a8        0xd ./rt-thread/components/finsh/shell.o
 *fill*         0x080167b5        0x3 00000000
 .rodata.__FUNCTION__.6367
                0x080167b8       0x11 ./rt-thread/components/finsh/shell.o
 *fill*         0x080167c9        0x3 00000000
 .rodata.__FUNCTION__.5563
                0x080167cc        0xd ./rt-thread/components/drivers/usb/usbdevice/core/usbdevice_core.o
 *fill*         0x080167d9        0x3 00000000
 .rodata.__FUNCTION__.5550
                0x080167dc       0x14 ./rt-thread/components/drivers/usb/usbdevice/core/usbdevice_core.o
 .rodata.__FUNCTION__.5849
                0x080167f0       0x11 ./rt-thread/components/drivers/usb/usbdevice/core/usbdevice_core.o
 *fill*         0x08016801        0x3 00000000
 .rodata.__FUNCTION__.5856
                0x08016804       0x18 ./rt-thread/components/drivers/usb/usbdevice/core/usbdevice_core.o
 .rodata.__FUNCTION__.5871
                0x0801681c       0x24 ./rt-thread/components/drivers/usb/usbdevice/core/usbdevice_core.o
 .rodata.__FUNCTION__.5881
                0x08016840       0x1d ./rt-thread/components/drivers/usb/usbdevice/core/usbdevice_core.o
 *fill*         0x0801685d        0x3 00000000
 .rodata.__FUNCTION__.5901
                0x08016860       0x16 ./rt-thread/components/drivers/usb/usbdevice/core/usbdevice_core.o
 *fill*         0x08016876        0x2 00000000
 .rodata.__FUNCTION__.5906
                0x08016878       0x17 ./rt-thread/components/drivers/usb/usbdevice/core/usbdevice_core.o
 *fill*         0x0801688f        0x1 00000000
 .rodata.__FUNCTION__.5912
                0x08016890       0x25 ./rt-thread/components/drivers/usb/usbdevice/core/usbdevice_core.o
 *fill*         0x080168b5        0x3 00000000
 .rodata.__FUNCTION__.5919
                0x080168b8       0x15 ./rt-thread/components/drivers/usb/usbdevice/core/usbdevice_core.o
 *fill*         0x080168cd        0x3 00000000
 .rodata.__FUNCTION__.5925
                0x080168d0       0x15 ./rt-thread/components/drivers/usb/usbdevice/core/usbdevice_core.o
 *fill*         0x080168e5        0x3 00000000
 .rodata.__FUNCTION__.5967
                0x080168e8       0x18 ./rt-thread/components/drivers/usb/usbdevice/core/usbdevice_core.o
 .rodata.__FUNCTION__.6026
                0x08016900       0x1f ./rt-thread/components/drivers/usb/usbdevice/core/usbdevice_core.o
 *fill*         0x0801691f        0x1 00000000
 .rodata.__FUNCTION__.6031
                0x08016920       0x21 ./rt-thread/components/drivers/usb/usbdevice/core/usbdevice_core.o
 *fill*         0x08016941        0x3 00000000
 .rodata.__FUNCTION__.6036
                0x08016944       0x20 ./rt-thread/components/drivers/usb/usbdevice/core/usbdevice_core.o
 .rodata.__FUNCTION__.6047
                0x08016964       0x17 ./rt-thread/components/drivers/usb/usbdevice/core/usbdevice_core.o
 *fill*         0x0801697b        0x1 00000000
 .rodata.__FUNCTION__.6060
                0x0801697c       0x13 ./rt-thread/components/drivers/usb/usbdevice/core/usbdevice_core.o
 *fill*         0x0801698f        0x1 00000000
 .rodata.__FUNCTION__.6172
                0x08016990       0x12 ./rt-thread/components/drivers/usb/usbdevice/core/usbdevice_core.o
 *fill*         0x080169a2        0x2 00000000
 .rodata.__FUNCTION__.6183
                0x080169a4       0x11 ./rt-thread/components/drivers/usb/usbdevice/core/usbdevice_core.o
 *fill*         0x080169b5        0x3 00000000
 .rodata._comm_desc
                0x080169b8       0x2b ./rt-thread/components/drivers/usb/usbdevice/class/cdc_vcom.o
 *fill*         0x080169e3        0x1 00000000
 .rodata._data_desc
                0x080169e4       0x17 ./rt-thread/components/drivers/usb/usbdevice/class/cdc_vcom.o
 *fill*         0x080169fb        0x1 00000000
 .rodata.usb_vcom_ops
                0x080169fc       0x14 ./rt-thread/components/drivers/usb/usbdevice/class/cdc_vcom.o
 .rodata.__FUNCTION__.6348
                0x08016a10       0x12 ./rt-thread/components/drivers/usb/usbdevice/class/cdc_vcom.o
 *fill*         0x08016a22        0x2 00000000
 .rodata.__FUNCTION__.6355
                0x08016a24        0xf ./rt-thread/components/drivers/usb/usbdevice/class/cdc_vcom.o
 *fill*         0x08016a33        0x1 00000000
 .rodata.__FUNCTION__.6362
                0x08016a34       0x10 ./rt-thread/components/drivers/usb/usbdevice/class/cdc_vcom.o
 .rodata.__FUNCTION__.6367
                0x08016a44       0x10 ./rt-thread/components/drivers/usb/usbdevice/class/cdc_vcom.o
 .rodata.__FUNCTION__.6374
                0x08016a54       0x15 ./rt-thread/components/drivers/usb/usbdevice/class/cdc_vcom.o
 *fill*         0x08016a69        0x3 00000000
 .rodata.__FUNCTION__.5917
                0x08016a6c       0x14 ./rt-thread/components/drivers/usb/usbdevice/class/cdc_vcom.o
 .rodata.__FUNCTION__.6383
                0x08016a80       0x15 ./rt-thread/components/drivers/usb/usbdevice/class/cdc_vcom.o
 *fill*         0x08016a95        0x3 00000000
 .rodata.__FUNCTION__.6389
                0x08016a98       0x13 ./rt-thread/components/drivers/usb/usbdevice/class/cdc_vcom.o
 *fill*         0x08016aab        0x1 00000000
 .rodata.__FUNCTION__.6405
                0x08016aac       0x11 ./rt-thread/components/drivers/usb/usbdevice/class/cdc_vcom.o
 *fill*         0x08016abd        0x3 00000000
 .rodata.__FUNCTION__.6410
                0x08016ac0       0x12 ./rt-thread/components/drivers/usb/usbdevice/class/cdc_vcom.o
 *fill*         0x08016ad2        0x2 00000000
 .rodata.__FUNCTION__.6429
                0x08016ad4       0x1c ./rt-thread/components/drivers/usb/usbdevice/class/cdc_vcom.o
 .rodata.__FUNCTION__.6474
                0x08016af0        0x9 ./rt-thread/components/drivers/usb/usbdevice/class/cdc_vcom.o
 *fill*         0x08016af9        0x3 00000000
 .rodata.__FUNCTION__.6492
                0x08016afc        0xb ./rt-thread/components/drivers/usb/usbdevice/class/cdc_vcom.o
 *fill*         0x08016b07        0x1 00000000
 .rodata.__FUNCTION__.6513
                0x08016b08       0x11 ./rt-thread/components/drivers/usb/usbdevice/class/cdc_vcom.o
 *fill*         0x08016b19        0x3 00000000
 .rodata.__FUNCTION__.6222
                0x08016b1c       0x13 ./rt-thread/components/drivers/src/completion.o
 *fill*         0x08016b2f        0x1 00000000
 .rodata.__FUNCTION__.6230
                0x08016b30       0x13 ./rt-thread/components/drivers/src/completion.o
 *fill*         0x08016b43        0x1 00000000
 .rodata.__FUNCTION__.6237
                0x08016b44       0x13 ./rt-thread/components/drivers/src/completion.o
 *fill*         0x08016b57        0x1 00000000
 .rodata.__FUNCTION__.6228
                0x08016b58       0x13 ./rt-thread/components/drivers/src/dataqueue.o
 *fill*         0x08016b6b        0x1 00000000
 .rodata.__FUNCTION__.6238
                0x08016b6c       0x13 ./rt-thread/components/drivers/src/dataqueue.o
 *fill*         0x08016b7f        0x1 00000000
 .rodata.__FUNCTION__.6253
                0x08016b80       0x12 ./rt-thread/components/drivers/src/dataqueue.o
 *fill*         0x08016b92        0x2 00000000
 .rodata.__FUNCTION__.6265
                0x08016b94       0x13 ./rt-thread/components/drivers/src/dataqueue.o
 *fill*         0x08016ba7        0x1 00000000
 .rodata.__FUNCTION__.6271
                0x08016ba8       0x14 ./rt-thread/components/drivers/src/dataqueue.o
 .rodata.__FUNCTION__.6282
                0x08016bbc       0x15 ./rt-thread/components/drivers/src/dataqueue.o
 *fill*         0x08016bd1        0x3 00000000
 .rodata.__FUNCTION__.6288
                0x08016bd4       0x12 ./rt-thread/components/drivers/src/dataqueue.o
 *fill*         0x08016be6        0x2 00000000
 .rodata.__FUNCTION__.6517
                0x08016be8       0x13 ./rt-thread/components/drivers/src/ringbuffer.o
 *fill*         0x08016bfb        0x1 00000000
 .rodata.__FUNCTION__.6524
                0x08016bfc       0x12 ./rt-thread/components/drivers/src/ringbuffer.o
 *fill*         0x08016c0e        0x2 00000000
 .rodata.__FUNCTION__.6538
                0x08016c10       0x12 ./rt-thread/components/drivers/src/ringbuffer.o
 *fill*         0x08016c22        0x2 00000000
 .rodata.__FUNCTION__.6555
                0x08016c24       0x1c ./rt-thread/components/drivers/src/ringbuffer.o
 .rodata.__FUNCTION__.6560
                0x08016c40       0x16 ./rt-thread/components/drivers/src/ringbuffer.o
 *fill*         0x08016c56        0x2 00000000
 .rodata.__FUNCTION__.6933
                0x08016c58       0x1d ./rt-thread/components/drivers/serial/serial.o
 *fill*         0x08016c75        0x3 00000000
 .rodata.__FUNCTION__.6942
                0x08016c78       0x1d ./rt-thread/components/drivers/serial/serial.o
 *fill*         0x08016c95        0x3 00000000
 .rodata.__FUNCTION__.6948
                0x08016c98       0x1d ./rt-thread/components/drivers/serial/serial.o
 *fill*         0x08016cb5        0x3 00000000
 .rodata.__FUNCTION__.6974
                0x08016cb8        0xf ./rt-thread/components/drivers/serial/serial.o
 *fill*         0x08016cc7        0x1 00000000
 .rodata.__FUNCTION__.6981
                0x08016cc8        0xf ./rt-thread/components/drivers/serial/serial.o
 *fill*         0x08016cd7        0x1 00000000
 .rodata.__FUNCTION__.6991
                0x08016cd8       0x10 ./rt-thread/components/drivers/serial/serial.o
 .rodata.__FUNCTION__.7004
                0x08016ce8        0xf ./rt-thread/components/drivers/serial/serial.o
 *fill*         0x08016cf7        0x1 00000000
 .rodata.__FUNCTION__.6908
                0x08016cf8        0xf ./rt-thread/components/drivers/serial/serial.o
 *fill*         0x08016d07        0x1 00000000
 .rodata.__FUNCTION__.6955
                0x08016d08        0xf ./rt-thread/components/drivers/serial/serial.o
 *fill*         0x08016d17        0x1 00000000
 .rodata.__FUNCTION__.6887
                0x08016d18       0x10 ./rt-thread/components/drivers/serial/serial.o
 .rodata.__FUNCTION__.7012
                0x08016d28       0x10 ./rt-thread/components/drivers/serial/serial.o
 .rodata.__FUNCTION__.6921
                0x08016d38        0xf ./rt-thread/components/drivers/serial/serial.o
 *fill*         0x08016d47        0x1 00000000
 .rodata.__FUNCTION__.6897
                0x08016d48       0x10 ./rt-thread/components/drivers/serial/serial.o
 .rodata.__FUNCTION__.7020
                0x08016d58       0x12 ./rt-thread/components/drivers/serial/serial.o
 *fill*         0x08016d6a        0x2 00000000
 .rodata.__FUNCTION__.7035
                0x08016d6c       0x16 ./rt-thread/components/drivers/serial/serial.o
 *fill*         0x08016d82        0x2 00000000
 .rodata.__FUNCTION__.7044
                0x08016d84       0x11 ./rt-thread/components/drivers/serial/serial.o
 *fill*         0x08016d95        0x3 00000000
 .rodata.__FUNCTION__.5114
                0x08016d98        0xa ./rt-thread/components/drivers/misc/pin.o
 *fill*         0x08016da2        0x2 00000000
 .rodata.__FUNCTION__.5123
                0x08016da4        0xb ./rt-thread/components/drivers/misc/pin.o
 *fill*         0x08016daf        0x1 00000000
 .rodata.__FUNCTION__.5131
                0x08016db0        0xd ./rt-thread/components/drivers/misc/pin.o
 *fill*         0x08016dbd        0x3 00000000
 .rodata.__FUNCTION__.5158
                0x08016dc0        0xc ./rt-thread/components/drivers/misc/pin.o
 .rodata.__FUNCTION__.5163
                0x08016dcc        0xd ./rt-thread/components/drivers/misc/pin.o
 *fill*         0x08016dd9        0x3 00000000
 .rodata.__FUNCTION__.5171
                0x08016ddc        0xb ./rt-thread/components/drivers/misc/pin.o
 *fill*         0x08016de7        0x1 00000000
 .rodata.name   0x08016de8       0xc8 ./rt-thread/components/drivers/misc/rt_drv_pwm.o
                0x08016de8                __fsym_pwm_enable_name
                0x08016df4                __fsym_pwm_enable_desc
                0x08016e1c                __fsym_pwm_disable_name
                0x08016e28                __fsym_pwm_disable_desc
                0x08016e54                __fsym_pwm_set_name
                0x08016e5c                __fsym_pwm_set_desc
                0x08016e8c                __fsym_pwm_get_name
                0x08016e94                __fsym_pwm_get_desc
 .rodata.name   0x08016eb0       0x17 ./packages/peripheral_samples-latest/led_blink_sample.o
                0x08016eb0                __fsym_led_sample_name
                0x08016ebc                __fsym_led_sample_desc
 *fill*         0x08016ec7        0x1 00000000
 .rodata.name   0x08016ec8       0x27 ./packages/peripheral_samples-latest/uart_dma_sample.o
                0x08016ec8                __fsym_uart_dma_sample_name
                0x08016ed8                __fsym_uart_dma_sample_desc
 *fill*         0x08016eef        0x1 00000000
 .rodata.__FUNCTION__.6909
                0x08016ef0       0x1a ./packages/CmBacktrace-v1.4.0/cm_backtrace.o
 *fill*         0x08016f0a        0x2 00000000
 .rodata.__FUNCTION__.6954
                0x08016f0c       0x14 ./packages/CmBacktrace-v1.4.0/cm_backtrace.o
 .rodata.__FUNCTION__.6975
                0x08016f20       0x13 ./packages/CmBacktrace-v1.4.0/cm_backtrace.o
 *fill*         0x08016f33        0x1 00000000
 .rodata.name   0x08016f34       0x3e ./packages/CmBacktrace-v1.4.0/cmb_port.o
                0x08016f34                __fsym_cmb_test_name
                0x08016f40                __fsym_cmb_test_desc
 *fill*         0x08016f72        0x2 00000000
 .rodata.name   0x08016f74       0x57 ./board/msp/n32_msp.o
                0x08016f74                __fsym_uart_test_name
                0x08016f80                __fsym_uart_test_desc
                0x08016f8c                __fsym_pwm_led_sample_name
                0x08016f9c                __fsym_pwm_led_sample_desc
                0x08016fa8                __fsym_pwm_led_sample_off_name
                0x08016fbc                __fsym_pwm_led_sample_off_desc
 *fill*         0x08016fcb        0x1 00000000
 .rodata.__FUNCTION__.10397
                0x08016fcc        0xd ./board/msp/n32_msp.o
 *fill*         0x08016fd9        0x3 00000000
 .rodata.name   0x08016fdc       0x16 ./Libraries/rt_drivers/drv_common.o
                0x08016fdc                __fsym_reboot_name
                0x08016fe4                __fsym_reboot_desc
 *fill*         0x08016ff2        0x2 00000000
 .rodata.pins   0x08016ff4      0x7e4 ./Libraries/rt_drivers/drv_gpio.o
 .rodata.pin_irq_map
                0x080177d8       0xc0 ./Libraries/rt_drivers/drv_gpio.o
 .rodata._n32_pin_ops
                0x08017898       0x1c ./Libraries/rt_drivers/drv_gpio.o
 .rodata.n32_uart_ops
                0x080178b4       0x14 ./Libraries/rt_drivers/drv_usart.o
 .rodata.__FUNCTION__.10474
                0x080178c8       0x13 ./Libraries/rt_drivers/drv_usart.o
 *fill*         0x080178db        0x1 00000000
 .rodata.__FUNCTION__.10482
                0x080178dc       0x11 ./Libraries/rt_drivers/drv_usart.o
 *fill*         0x080178ed        0x3 00000000
 .rodata.__FUNCTION__.10492
                0x080178f0        0xe ./Libraries/rt_drivers/drv_usart.o
 *fill*         0x080178fe        0x2 00000000
 .rodata.__FUNCTION__.10501
                0x08017900        0xe ./Libraries/rt_drivers/drv_usart.o
 *fill*         0x0801790e        0x2 00000000
 .rodata.__FUNCTION__.10519
                0x08017910        0x9 ./Libraries/rt_drivers/drv_usart.o
 *fill*         0x08017919        0x3 00000000
 .rodata.s_ApbAhbPresTable
                0x0801791c       0x10 ./Libraries/N32_Std_Driver/n32g45x_std_periph_driver/src/n32g45x_rcc.o
 .rodata.s_AdcHclkPresTable
                0x0801792c       0x10 ./Libraries/N32_Std_Driver/n32g45x_std_periph_driver/src/n32g45x_rcc.o
 .rodata.s_AdcPllClkPresTable
                0x0801793c       0x20 ./Libraries/N32_Std_Driver/n32g45x_std_periph_driver/src/n32g45x_rcc.o
 .rodata._global_impure_ptr
                0x0801795c        0x4 c:/rt-threadstudio/repo/extract/toolchain_support_packages/arm/gnu_tools_for_arm_embedded_processors/5.4.1/bin/../lib/gcc/arm-none-eabi/5.4.1/../../../../arm-none-eabi/lib/armv7e-m/fpu\libc.a(lib_a-impure.o)
                0x0801795c                _global_impure_ptr
 .rodata.zeroes.7258
                0x08017960       0x10 c:/rt-threadstudio/repo/extract/toolchain_support_packages/arm/gnu_tools_for_arm_embedded_processors/5.4.1/bin/../lib/gcc/arm-none-eabi/5.4.1/../../../../arm-none-eabi/lib/armv7e-m/fpu\libc.a(lib_a-svfprintf.o)
 .rodata.str1.4
                0x08017970       0x42 c:/rt-threadstudio/repo/extract/toolchain_support_packages/arm/gnu_tools_for_arm_embedded_processors/5.4.1/bin/../lib/gcc/arm-none-eabi/5.4.1/../../../../arm-none-eabi/lib/armv7e-m/fpu\libc.a(lib_a-svfprintf.o)
 *fill*         0x080179b2        0x2 00000000
 .rodata.blanks.7257
                0x080179b4       0x10 c:/rt-threadstudio/repo/extract/toolchain_support_packages/arm/gnu_tools_for_arm_embedded_processors/5.4.1/bin/../lib/gcc/arm-none-eabi/5.4.1/../../../../arm-none-eabi/lib/armv7e-m/fpu\libc.a(lib_a-svfprintf.o)
 .rodata.str1.4
                0x080179c4       0x10 c:/rt-threadstudio/repo/extract/toolchain_support_packages/arm/gnu_tools_for_arm_embedded_processors/5.4.1/bin/../lib/gcc/arm-none-eabi/5.4.1/../../../../arm-none-eabi/lib/armv7e-m/fpu\libc.a(lib_a-dtoa.o)
                                 0x12 (size before relaxing)
 .rodata.str1.4
                0x080179d4       0x10 c:/rt-threadstudio/repo/extract/toolchain_support_packages/arm/gnu_tools_for_arm_embedded_processors/5.4.1/bin/../lib/gcc/arm-none-eabi/5.4.1/../../../../arm-none-eabi/lib/armv7e-m/fpu\libc.a(lib_a-locale.o)
                                 0x12 (size before relaxing)
 *fill*         0x080179e4        0x4 00000000
 .rodata.__mprec_tens
                0x080179e8       0xc8 c:/rt-threadstudio/repo/extract/toolchain_support_packages/arm/gnu_tools_for_arm_embedded_processors/5.4.1/bin/../lib/gcc/arm-none-eabi/5.4.1/../../../../arm-none-eabi/lib/armv7e-m/fpu\libc.a(lib_a-mprec.o)
                0x080179e8                __mprec_tens
 .rodata.__mprec_bigtens
                0x08017ab0       0x28 c:/rt-threadstudio/repo/extract/toolchain_support_packages/arm/gnu_tools_for_arm_embedded_processors/5.4.1/bin/../lib/gcc/arm-none-eabi/5.4.1/../../../../arm-none-eabi/lib/armv7e-m/fpu\libc.a(lib_a-mprec.o)
                0x08017ab0                __mprec_bigtens
 .rodata.p05.6087
                0x08017ad8        0xc c:/rt-threadstudio/repo/extract/toolchain_support_packages/arm/gnu_tools_for_arm_embedded_processors/5.4.1/bin/../lib/gcc/arm-none-eabi/5.4.1/../../../../arm-none-eabi/lib/armv7e-m/fpu\libc.a(lib_a-mprec.o)
 .rodata._ctype_
                0x08017ae4      0x101 c:/rt-threadstudio/repo/extract/toolchain_support_packages/arm/gnu_tools_for_arm_embedded_processors/5.4.1/bin/../lib/gcc/arm-none-eabi/5.4.1/../../../../arm-none-eabi/lib/armv7e-m/fpu\libc.a(lib_a-ctype_.o)
                0x08017ae4                _ctype_
 *(.glue_7)
 .glue_7        0x08017be5        0x0 linker stubs
 *(.glue_7t)
 .glue_7t       0x08017be5        0x0 linker stubs
 *(.gnu.linkonce.t*)
                0x08017be8                . = ALIGN (0x4)
 *fill*         0x08017be5        0x3 00000000
                0x08017be8                __fsymtab_start = .
 *(FSymTab)
 FSymTab        0x08017be8       0x9c ./rt-thread/components/finsh/cmd.o
                0x08017be8                __fsym_hello
                0x08017bf4                __fsym_clear
                0x08017c00                __fsym_version
                0x08017c0c                __fsym_list_thread
                0x08017c18                __fsym_list_sem
                0x08017c24                __fsym_list_event
                0x08017c30                __fsym_list_mutex
                0x08017c3c                __fsym_list_mailbox
                0x08017c48                __fsym_list_msgqueue
                0x08017c54                __fsym_list_mempool
                0x08017c60                __fsym_list_timer
                0x08017c6c                __fsym_list_device
                0x08017c78                __fsym_list
 FSymTab        0x08017c84       0x24 ./rt-thread/components/finsh/msh.o
                0x08017c84                __fsym_help
                0x08017c90                __fsym_ps
                0x08017c9c                __fsym_free
 FSymTab        0x08017ca8       0x30 ./rt-thread/components/drivers/misc/rt_drv_pwm.o
                0x08017ca8                __fsym_pwm_enable
                0x08017cb4                __fsym_pwm_disable
                0x08017cc0                __fsym_pwm_set
                0x08017ccc                __fsym_pwm_get
 FSymTab        0x08017cd8        0xc ./packages/peripheral_samples-latest/led_blink_sample.o
                0x08017cd8                __fsym_led_sample
 FSymTab        0x08017ce4        0xc ./packages/peripheral_samples-latest/uart_dma_sample.o
                0x08017ce4                __fsym_uart_dma_sample
 FSymTab        0x08017cf0        0xc ./packages/CmBacktrace-v1.4.0/cmb_port.o
                0x08017cf0                __fsym_cmb_test
 FSymTab        0x08017cfc       0x24 ./board/msp/n32_msp.o
                0x08017cfc                __fsym_uart_test
                0x08017d08                __fsym_pwm_led_sample
                0x08017d14                __fsym_pwm_led_sample_off
 FSymTab        0x08017d20        0xc ./Libraries/rt_drivers/drv_common.o
                0x08017d20                __fsym_reboot
                0x08017d2c                __fsymtab_end = .
                0x08017d2c                . = ALIGN (0x4)
                0x08017d2c                __vsymtab_start = .
 *(VSymTab)
                0x08017d2c                __vsymtab_end = .
                0x08017d2c                . = ALIGN (0x4)
                0x08017d2c                __rt_init_start = .
 *(SORT(.rti_fn*))
 .rti_fn.0      0x08017d2c        0x4 ./rt-thread/src/components.o
                0x08017d2c                __rt_init_rti_start
 .rti_fn.0.end  0x08017d30        0x4 ./rt-thread/src/components.o
                0x08017d30                __rt_init_rti_board_start
 .rti_fn.1      0x08017d34        0x4 ./rt-thread/components/utilities/ulog/ulog.o
                0x08017d34                __rt_init_ulog_init
 .rti_fn.1      0x08017d38        0x4 ./rt-thread/components/drivers/usb/usbdevice/core/usbdevice.o
                0x08017d38                __rt_init_rt_usbd_class_list_init
 .rti_fn.1      0x08017d3c        0x4 ./Libraries/rt_drivers/drv_gpio.o
                0x08017d3c                __rt_init_n32_hw_pin_init
 .rti_fn.1      0x08017d40        0x4 ./Libraries/rt_drivers/drv_usart.o
                0x08017d40                __rt_init_rt_hw_usart_init
 .rti_fn.1.end  0x08017d44        0x4 ./rt-thread/src/components.o
                0x08017d44                __rt_init_rti_board_end
 .rti_fn.2      0x08017d48        0x4 ./rt-thread/components/utilities/ulog/backend/console_be.o
                0x08017d48                __rt_init_ulog_console_backend_init
 .rti_fn.2      0x08017d4c        0x4 ./rt-thread/components/drivers/usb/usbdevice/class/cdc_vcom.o
                0x08017d4c                __rt_init_rt_usbd_vcom_class_register
 .rti_fn.3      0x08017d50        0x4 ./packages/CmBacktrace-v1.4.0/cmb_port.o
                0x08017d50                __rt_init_rt_cm_backtrace_init
 .rti_fn.4      0x08017d54        0x4 ./rt-thread/components/libc/compilers/gcc/newlib/libc.o
                0x08017d54                __rt_init_libc_system_init
 .rti_fn.6      0x08017d58        0x4 ./rt-thread/components/finsh/shell.o
                0x08017d58                __rt_init_finsh_system_init
 .rti_fn.6.end  0x08017d5c        0x4 ./rt-thread/src/components.o
                0x08017d5c                __rt_init_rti_end
                0x08017d60                __rt_init_end = .
                0x08017d60                . = ALIGN (0x4)
                [!provide]                PROVIDE (__ctors_start__, .)
 *(SORT(.init_array.*))
 .init_array.00000
                0x08017d60        0x4 c:/rt-threadstudio/repo/extract/toolchain_support_packages/arm/gnu_tools_for_arm_embedded_processors/5.4.1/bin/../lib/gcc/arm-none-eabi/5.4.1/../../../../arm-none-eabi/lib/armv7e-m/fpu\libc.a(lib_a-__call_atexit.o)
 *(.init_array)
 .init_array    0x08017d64        0x4 c:/rt-threadstudio/repo/extract/toolchain_support_packages/arm/gnu_tools_for_arm_embedded_processors/5.4.1/bin/../lib/gcc/arm-none-eabi/5.4.1/armv7e-m/fpu/crtbegin.o
                [!provide]                PROVIDE (__ctors_end__, .)
                0x08017d68                . = ALIGN (0x4)
                0x08017d68                _etext = .
                0x08017d68                __exidx_start = .

.vfp11_veneer   0x08017d68        0x0
 .vfp11_veneer  0x08017d68        0x0 linker stubs

.v4_bx          0x08017d68        0x0
 .v4_bx         0x08017d68        0x0 linker stubs

.init           0x08017d68        0x4
 .init          0x08017d68        0x4 c:/rt-threadstudio/repo/extract/toolchain_support_packages/arm/gnu_tools_for_arm_embedded_processors/5.4.1/bin/../lib/gcc/arm-none-eabi/5.4.1/armv7e-m/fpu/crti.o
                0x08017d68                _init

.fini           0x08017d6c        0x4
 .fini          0x08017d6c        0x4 c:/rt-threadstudio/repo/extract/toolchain_support_packages/arm/gnu_tools_for_arm_embedded_processors/5.4.1/bin/../lib/gcc/arm-none-eabi/5.4.1/armv7e-m/fpu/crti.o
                0x08017d6c                _fini

.iplt           0x08017d70        0x0
 .iplt          0x08017d70        0x0 c:/rt-threadstudio/repo/extract/toolchain_support_packages/arm/gnu_tools_for_arm_embedded_processors/5.4.1/bin/../lib/gcc/arm-none-eabi/5.4.1/armv7e-m/fpu/crtbegin.o

.eh_frame       0x08017d70        0x0
 .eh_frame      0x08017d70        0x0 c:/rt-threadstudio/repo/extract/toolchain_support_packages/arm/gnu_tools_for_arm_embedded_processors/5.4.1/bin/../lib/gcc/arm-none-eabi/5.4.1/armv7e-m/fpu/crtbegin.o

.ARM.exidx      0x08017d70        0x8
 *(.ARM.exidx* .gnu.linkonce.armexidx.*)
 .ARM.exidx     0x08017d70        0x8 c:/rt-threadstudio/repo/extract/toolchain_support_packages/arm/gnu_tools_for_arm_embedded_processors/5.4.1/bin/../lib/gcc/arm-none-eabi/5.4.1/armv7e-m/fpu\libgcc.a(_udivmoddi4.o)
                0x08017d78                _sidata = .
                0x08017d78                __exidx_end = .

.rel.dyn        0x08017d78        0x0
 .rel.iplt      0x08017d78        0x0 c:/rt-threadstudio/repo/extract/toolchain_support_packages/arm/gnu_tools_for_arm_embedded_processors/5.4.1/bin/../lib/gcc/arm-none-eabi/5.4.1/armv7e-m/fpu/crtbegin.o

.data           0x20000000      0x7a8 load address 0x08017d78
                0x20000000                . = ALIGN (0x4)
                0x20000000                _sdata = .
 *(.data)
 *(.data.*)
 .data._rt_thread_defunct
                0x20000000        0x8 ./rt-thread/src/idle.o
 .data._object_container
                0x20000008       0x90 ./rt-thread/src/object.o
 .data._soft_timer_status
                0x20000098        0x1 ./rt-thread/src/timer.o
 *fill*         0x20000099        0x3 
 .data.dev_desc
                0x2000009c       0x12 ./rt-thread/components/drivers/usb/usbdevice/class/cdc_vcom.o
 *fill*         0x200000ae        0x2 
 .data.dev_qualifier
                0x200000b0        0xa ./rt-thread/components/drivers/usb/usbdevice/class/cdc_vcom.o
 *fill*         0x200000ba        0x2 
 .data._ustring
                0x200000bc       0x18 ./rt-thread/components/drivers/usb/usbdevice/class/cdc_vcom.o
 .data.ops      0x200000d4        0xc ./rt-thread/components/drivers/usb/usbdevice/class/cdc_vcom.o
 .data.vcom_class
                0x200000e0        0xc ./rt-thread/components/drivers/usb/usbdevice/class/cdc_vcom.o
                0x200000e0                vcom_class
 .data.pin_irq_hdr_tab
                0x200000ec       0xc0 ./Libraries/rt_drivers/drv_gpio.o
                0x200000ec                pin_irq_hdr_tab
 .data.uart1    0x200001ac       0x20 ./Libraries/rt_drivers/drv_usart.o
                0x200001ac                uart1
 .data.uart2    0x200001cc       0x20 ./Libraries/rt_drivers/drv_usart.o
                0x200001cc                uart2
 .data.uart3    0x200001ec       0x20 ./Libraries/rt_drivers/drv_usart.o
                0x200001ec                uart3
 .data.SystemCoreClock
                0x2000020c        0x4 ./Libraries/N32_Std_Driver/CMSIS/device/system_n32g45x.o
                0x2000020c                SystemCoreClock
 .data.impure_data
                0x20000210      0x428 c:/rt-threadstudio/repo/extract/toolchain_support_packages/arm/gnu_tools_for_arm_embedded_processors/5.4.1/bin/../lib/gcc/arm-none-eabi/5.4.1/../../../../arm-none-eabi/lib/armv7e-m/fpu\libc.a(lib_a-impure.o)
 .data._impure_ptr
                0x20000638        0x4 c:/rt-threadstudio/repo/extract/toolchain_support_packages/arm/gnu_tools_for_arm_embedded_processors/5.4.1/bin/../lib/gcc/arm-none-eabi/5.4.1/../../../../arm-none-eabi/lib/armv7e-m/fpu\libc.a(lib_a-impure.o)
                0x20000638                _impure_ptr
 .data.__global_locale
                0x2000063c      0x16c c:/rt-threadstudio/repo/extract/toolchain_support_packages/arm/gnu_tools_for_arm_embedded_processors/5.4.1/bin/../lib/gcc/arm-none-eabi/5.4.1/../../../../arm-none-eabi/lib/armv7e-m/fpu\libc.a(lib_a-locale.o)
                0x2000063c                __global_locale
 *(.gnu.linkonce.d*)
                [!provide]                PROVIDE (__dtors_start__, .)
 *(SORT(.dtors.*))
 *(.dtors)
                [!provide]                PROVIDE (__dtors_end__, .)
                0x200007a8                . = ALIGN (0x4)
                0x200007a8                _edata = .

.jcr            0x200007a8        0x0 load address 0x08018520
 .jcr           0x200007a8        0x0 c:/rt-threadstudio/repo/extract/toolchain_support_packages/arm/gnu_tools_for_arm_embedded_processors/5.4.1/bin/../lib/gcc/arm-none-eabi/5.4.1/armv7e-m/fpu/crtbegin.o

.igot.plt       0x200007a8        0x0 load address 0x08018520
 .igot.plt      0x200007a8        0x0 c:/rt-threadstudio/repo/extract/toolchain_support_packages/arm/gnu_tools_for_arm_embedded_processors/5.4.1/bin/../lib/gcc/arm-none-eabi/5.4.1/armv7e-m/fpu/crtbegin.o

.stack          0x200007a8      0x200 load address 0x08018520
                0x200007a8                . = ALIGN (0x4)
                0x200007a8                _sstack = .
                0x200009a8                . = (. + _system_stack_size)
 *fill*         0x200007a8      0x200 
                0x200009a8                . = ALIGN (0x4)
                0x200009a8                _estack = .
                0x200009a8                __bss_start = .

.bss            0x200009a8     0x11a8 load address 0x08018720
                0x200009a8                . = ALIGN (0x4)
                0x200009a8                _sbss = .
 *(.bss)
 .bss           0x200009a8       0x1c c:/rt-threadstudio/repo/extract/toolchain_support_packages/arm/gnu_tools_for_arm_embedded_processors/5.4.1/bin/../lib/gcc/arm-none-eabi/5.4.1/armv7e-m/fpu/crtbegin.o
 *(.bss.*)
 .bss.rt_tick   0x200009c4        0x4 ./rt-thread/src/clock.o
 .bss.idle      0x200009c8       0x80 ./rt-thread/src/idle.o
 .bss.rt_thread_stack
                0x20000a48      0x100 ./rt-thread/src/idle.o
 .bss.idle_hook_list
                0x20000b48       0x10 ./rt-thread/src/idle.o
 .bss.rt_interrupt_enter_hook
                0x20000b58        0x4 ./rt-thread/src/irq.o
 .bss.rt_interrupt_leave_hook
                0x20000b5c        0x4 ./rt-thread/src/irq.o
 .bss.rt_interrupt_nest
                0x20000b60        0x1 ./rt-thread/src/irq.o
                0x20000b60                rt_interrupt_nest
 *fill*         0x20000b61        0x3 
 .bss.__rt_errno
                0x20000b64        0x4 ./rt-thread/src/kservice.o
 .bss._console_device
                0x20000b68        0x4 ./rt-thread/src/kservice.o
 .bss.rt_log_buf.5397
                0x20000b6c      0x200 ./rt-thread/src/kservice.o
 .bss.rt_malloc_hook
                0x20000d6c        0x4 ./rt-thread/src/mem.o
 .bss.rt_free_hook
                0x20000d70        0x4 ./rt-thread/src/mem.o
 .bss.heap_ptr  0x20000d74        0x4 ./rt-thread/src/mem.o
 .bss.heap_end  0x20000d78        0x4 ./rt-thread/src/mem.o
 .bss.lfree     0x20000d7c        0x4 ./rt-thread/src/mem.o
 .bss.heap_sem  0x20000d80       0x20 ./rt-thread/src/mem.o
 .bss.mem_size_aligned
                0x20000da0        0x4 ./rt-thread/src/mem.o
 .bss.used_mem  0x20000da4        0x4 ./rt-thread/src/mem.o
 .bss.max_mem   0x20000da8        0x4 ./rt-thread/src/mem.o
 .bss.rt_object_attach_hook
                0x20000dac        0x4 ./rt-thread/src/object.o
 .bss.rt_object_detach_hook
                0x20000db0        0x4 ./rt-thread/src/object.o
 .bss.rt_scheduler_lock_nest
                0x20000db4        0x2 ./rt-thread/src/scheduler.o
 *fill*         0x20000db6        0x2 
 .bss.rt_current_thread
                0x20000db8        0x4 ./rt-thread/src/scheduler.o
                0x20000db8                rt_current_thread
 .bss.rt_scheduler_hook
                0x20000dbc        0x4 ./rt-thread/src/scheduler.o
 .bss.rt_scheduler_switch_hook
                0x20000dc0        0x4 ./rt-thread/src/scheduler.o
 .bss.rt_thread_suspend_hook
                0x20000dc4        0x4 ./rt-thread/src/thread.o
 .bss.rt_thread_resume_hook
                0x20000dc8        0x4 ./rt-thread/src/thread.o
 .bss.rt_thread_inited_hook
                0x20000dcc        0x4 ./rt-thread/src/thread.o
 .bss._timer_list
                0x20000dd0        0x8 ./rt-thread/src/timer.o
 .bss._soft_timer_list
                0x20000dd8        0x8 ./rt-thread/src/timer.o
 .bss._timer_thread
                0x20000de0       0x80 ./rt-thread/src/timer.o
 .bss._timer_thread_stack
                0x20000e60      0x200 ./rt-thread/src/timer.o
 .bss.rt_timer_enter_hook
                0x20001060        0x4 ./rt-thread/src/timer.o
 .bss.rt_timer_exit_hook
                0x20001064        0x4 ./rt-thread/src/timer.o
 .bss.random_nr.5195
                0x20001068        0x4 ./rt-thread/src/timer.o
 .bss.rt_exception_hook
                0x2000106c        0x4 ./rt-thread/libcpu/arm/cortex-m4/cpuport.o
 .bss.console   0x20001070       0x24 ./rt-thread/components/utilities/ulog/backend/console_be.o
 .bss.ulog      0x20001094       0xb0 ./rt-thread/components/utilities/ulog/ulog.o
 .bss.log_len.5871
                0x20001144        0x4 ./rt-thread/components/utilities/ulog/ulog.o
 .bss.newline_len.5872
                0x20001148        0x4 ./rt-thread/components/utilities/ulog/ulog.o
 .bss.tick_len.5875
                0x2000114c        0x4 ./rt-thread/components/utilities/ulog/ulog.o
 .bss.fmt_result.5873
                0x20001150        0x4 ./rt-thread/components/utilities/ulog/ulog.o
 .bss._syscall_table_begin
                0x20001154        0x4 ./rt-thread/components/finsh/shell.o
                0x20001154                _syscall_table_begin
 .bss._syscall_table_end
                0x20001158        0x4 ./rt-thread/components/finsh/shell.o
                0x20001158                _syscall_table_end
 .bss.finsh_prompt_custom
                0x2000115c        0x4 ./rt-thread/components/finsh/shell.o
 .bss.finsh_prompt.6340
                0x20001160      0x201 ./rt-thread/components/finsh/shell.o
 *fill*         0x20001361        0x3 
 .bss.class_list
                0x20001364        0x8 ./rt-thread/components/drivers/usb/usbdevice/core/usbdevice.o
 .bss.vcom_thread_stack
                0x2000136c      0x200 ./rt-thread/components/drivers/usb/usbdevice/class/cdc_vcom.o
 .bss.vcom_thread
                0x2000156c       0x80 ./rt-thread/components/drivers/usb/usbdevice/class/cdc_vcom.o
 .bss.line_coding
                0x200015ec        0x7 ./rt-thread/components/drivers/usb/usbdevice/class/cdc_vcom.o
 *fill*         0x200015f3        0x1 
 .bss.serno     0x200015f4        0xf ./rt-thread/components/drivers/usb/usbdevice/class/cdc_vcom.o
 *fill*         0x20001603        0x1 
 .bss.already_output.6928
                0x20001604        0x4 ./rt-thread/components/drivers/serial/serial.o
 .bss._hw_pin   0x20001608       0x44 ./rt-thread/components/drivers/misc/pin.o
 .bss.pin_num   0x2000164c        0x4 ./packages/peripheral_samples-latest/led_blink_sample.o
 .bss.serial    0x20001650        0x4 ./packages/peripheral_samples-latest/uart_dma_sample.o
 .bss.rx_mq     0x20001654       0x3c ./packages/peripheral_samples-latest/uart_dma_sample.o
 .bss.rx_buffer.5054
                0x20001690       0x41 ./packages/peripheral_samples-latest/uart_dma_sample.o
 *fill*         0x200016d1        0x3 
 .bss.msg_pool.5062
                0x200016d4      0x100 ./packages/peripheral_samples-latest/uart_dma_sample.o
 .bss.fw_name   0x200017d4       0x20 ./packages/CmBacktrace-v1.4.0/cm_backtrace.o
 .bss.hw_ver    0x200017f4       0x20 ./packages/CmBacktrace-v1.4.0/cm_backtrace.o
 .bss.sw_ver    0x20001814       0x20 ./packages/CmBacktrace-v1.4.0/cm_backtrace.o
 .bss.main_stack_start_addr
                0x20001834        0x4 ./packages/CmBacktrace-v1.4.0/cm_backtrace.o
 .bss.main_stack_size
                0x20001838        0x4 ./packages/CmBacktrace-v1.4.0/cm_backtrace.o
 .bss.code_start_addr
                0x2000183c        0x4 ./packages/CmBacktrace-v1.4.0/cm_backtrace.o
 .bss.code_size
                0x20001840        0x4 ./packages/CmBacktrace-v1.4.0/cm_backtrace.o
 .bss.init_ok   0x20001844        0x1 ./packages/CmBacktrace-v1.4.0/cm_backtrace.o
 *fill*         0x20001845        0x3 
 .bss.call_stack_info
                0x20001848       0x90 ./packages/CmBacktrace-v1.4.0/cm_backtrace.o
 .bss.on_fault  0x200018d8        0x1 ./packages/CmBacktrace-v1.4.0/cm_backtrace.o
 .bss.stack_is_overflow
                0x200018d9        0x1 ./packages/CmBacktrace-v1.4.0/cm_backtrace.o
 *fill*         0x200018da        0x2 
 .bss.regs      0x200018dc       0x44 ./packages/CmBacktrace-v1.4.0/cm_backtrace.o
 .bss.statck_has_fpu_regs
                0x20001920        0x1 ./packages/CmBacktrace-v1.4.0/cm_backtrace.o
 .bss.on_thread_before_fault
                0x20001921        0x1 ./packages/CmBacktrace-v1.4.0/cm_backtrace.o
 *fill*         0x20001922        0x2 
 .bss.u2.10408  0x20001924        0x4 ./board/msp/n32_msp.o
 .bss.u3.10409  0x20001928        0x4 ./board/msp/n32_msp.o
 *(COMMON)
 COMMON         0x2000192c        0x4 ./rt-thread/src/kservice.o
                0x2000192c                rt_assert_hook
 COMMON         0x20001930        0xc ./rt-thread/src/object.o
                0x20001930                rt_object_put_hook
                0x20001934                rt_object_take_hook
                0x20001938                rt_object_trytake_hook
 COMMON         0x2000193c      0x108 ./rt-thread/src/scheduler.o
                0x2000193c                rt_thread_priority_table
                0x20001a3c                rt_current_priority
                0x20001a40                rt_thread_ready_priority_group
 COMMON         0x20001a44        0xc ./rt-thread/libcpu/arm/cortex-m4/cpuport.o
                0x20001a44                rt_interrupt_to_thread
                0x20001a48                rt_interrupt_from_thread
                0x20001a4c                rt_thread_switch_interrupt_flag
 COMMON         0x20001a50        0x4 ./rt-thread/components/finsh/shell.o
                0x20001a50                shell
 COMMON         0x20001a54       0xfc ./Libraries/rt_drivers/drv_usart.o
                0x20001a54                serial1
                0x20001aa8                serial3
                0x20001afc                serial2
                0x20001b50                . = ALIGN (0x4)
                0x20001b50                _ebss = .
 *(.bss.init)
                0x20001b50                __bss_end = .
                0x20001b50                _end = .

.stab
 *(.stab)

.stabstr
 *(.stabstr)

.stab.excl
 *(.stab.excl)

.stab.exclstr
 *(.stab.exclstr)

.stab.index
 *(.stab.index)

.stab.indexstr
 *(.stab.indexstr)

.comment        0x00000000       0x6e
 *(.comment)
 .comment       0x00000000       0x6e ./rt-thread/src/clock.o
                                 0x6f (size before relaxing)
 .comment       0x0000006e       0x6f ./rt-thread/src/components.o
 .comment       0x0000006e       0x6f ./rt-thread/src/device.o
 .comment       0x0000006e       0x6f ./rt-thread/src/idle.o
 .comment       0x0000006e       0x6f ./rt-thread/src/ipc.o
 .comment       0x0000006e       0x6f ./rt-thread/src/irq.o
 .comment       0x0000006e       0x6f ./rt-thread/src/kservice.o
 .comment       0x0000006e       0x6f ./rt-thread/src/mem.o
 .comment       0x0000006e       0x6f ./rt-thread/src/object.o
 .comment       0x0000006e       0x6f ./rt-thread/src/scheduler.o
 .comment       0x0000006e       0x6f ./rt-thread/src/thread.o
 .comment       0x0000006e       0x6f ./rt-thread/src/timer.o
 .comment       0x0000006e       0x6f ./rt-thread/libcpu/arm/cortex-m4/cpuport.o
 .comment       0x0000006e       0x6f ./rt-thread/components/utilities/ulog/backend/console_be.o
 .comment       0x0000006e       0x6f ./rt-thread/components/utilities/ulog/ulog.o
 .comment       0x0000006e       0x6f ./rt-thread/components/libc/compilers/gcc/newlib/libc.o
 .comment       0x0000006e       0x6f ./rt-thread/components/libc/compilers/gcc/newlib/syscalls.o
 .comment       0x0000006e       0x6f ./rt-thread/components/finsh/cmd.o
 .comment       0x0000006e       0x6f ./rt-thread/components/finsh/msh.o
 .comment       0x0000006e       0x6f ./rt-thread/components/finsh/shell.o
 .comment       0x0000006e       0x6f ./rt-thread/components/drivers/usb/usbdevice/core/usbdevice.o
 .comment       0x0000006e       0x6f ./rt-thread/components/drivers/usb/usbdevice/core/usbdevice_core.o
 .comment       0x0000006e       0x6f ./rt-thread/components/drivers/usb/usbdevice/class/cdc_vcom.o
 .comment       0x0000006e       0x6f ./rt-thread/components/drivers/src/completion.o
 .comment       0x0000006e       0x6f ./rt-thread/components/drivers/src/dataqueue.o
 .comment       0x0000006e       0x6f ./rt-thread/components/drivers/src/ringbuffer.o
 .comment       0x0000006e       0x6f ./rt-thread/components/drivers/serial/serial.o
 .comment       0x0000006e       0x6f ./rt-thread/components/drivers/misc/pin.o
 .comment       0x0000006e       0x6f ./rt-thread/components/drivers/misc/rt_drv_pwm.o
 .comment       0x0000006e       0x6f ./packages/peripheral_samples-latest/led_blink_sample.o
 .comment       0x0000006e       0x6f ./packages/peripheral_samples-latest/uart_dma_sample.o
 .comment       0x0000006e       0x6f ./packages/CmBacktrace-v1.4.0/cm_backtrace.o
 .comment       0x0000006e       0x6f ./packages/CmBacktrace-v1.4.0/cmb_port.o
 .comment       0x0000006e       0x6f ./board/msp/n32_msp.o
 .comment       0x0000006e       0x6f ./board/board.o
 .comment       0x0000006e       0x6f ./applications/main.o
 .comment       0x0000006e       0x6f ./Libraries/rt_drivers/drv_common.o
 .comment       0x0000006e       0x6f ./Libraries/rt_drivers/drv_gpio.o
 .comment       0x0000006e       0x6f ./Libraries/rt_drivers/drv_usart.o
 .comment       0x0000006e       0x6f ./Libraries/N32_Std_Driver/n32g45x_std_periph_driver/src/misc.o
 .comment       0x0000006e       0x6f ./Libraries/N32_Std_Driver/n32g45x_std_periph_driver/src/n32g45x_dma.o
 .comment       0x0000006e       0x6f ./Libraries/N32_Std_Driver/n32g45x_std_periph_driver/src/n32g45x_exti.o
 .comment       0x0000006e       0x6f ./Libraries/N32_Std_Driver/n32g45x_std_periph_driver/src/n32g45x_gpio.o
 .comment       0x0000006e       0x6f ./Libraries/N32_Std_Driver/n32g45x_std_periph_driver/src/n32g45x_rcc.o
 .comment       0x0000006e       0x6f ./Libraries/N32_Std_Driver/n32g45x_std_periph_driver/src/n32g45x_usart.o
 .comment       0x0000006e       0x6f ./Libraries/N32_Std_Driver/CMSIS/device/system_n32g45x.o

.ARM.attributes
                0x00000000       0x30
 .ARM.attributes
                0x00000000       0x22 c:/rt-threadstudio/repo/extract/toolchain_support_packages/arm/gnu_tools_for_arm_embedded_processors/5.4.1/bin/../lib/gcc/arm-none-eabi/5.4.1/armv7e-m/fpu/crti.o
 .ARM.attributes
                0x00000022       0x34 c:/rt-threadstudio/repo/extract/toolchain_support_packages/arm/gnu_tools_for_arm_embedded_processors/5.4.1/bin/../lib/gcc/arm-none-eabi/5.4.1/armv7e-m/fpu/crtbegin.o
 .ARM.attributes
                0x00000056       0x39 ./rt-thread/src/clock.o
 .ARM.attributes
                0x0000008f       0x39 ./rt-thread/src/components.o
 .ARM.attributes
                0x000000c8       0x39 ./rt-thread/src/device.o
 .ARM.attributes
                0x00000101       0x39 ./rt-thread/src/idle.o
 .ARM.attributes
                0x0000013a       0x39 ./rt-thread/src/ipc.o
 .ARM.attributes
                0x00000173       0x39 ./rt-thread/src/irq.o
 .ARM.attributes
                0x000001ac       0x39 ./rt-thread/src/kservice.o
 .ARM.attributes
                0x000001e5       0x39 ./rt-thread/src/mem.o
 .ARM.attributes
                0x0000021e       0x39 ./rt-thread/src/object.o
 .ARM.attributes
                0x00000257       0x39 ./rt-thread/src/scheduler.o
 .ARM.attributes
                0x00000290       0x39 ./rt-thread/src/thread.o
 .ARM.attributes
                0x000002c9       0x39 ./rt-thread/src/timer.o
 .ARM.attributes
                0x00000302       0x25 ./rt-thread/libcpu/arm/cortex-m4/context_gcc.o
 .ARM.attributes
                0x00000327       0x39 ./rt-thread/libcpu/arm/cortex-m4/cpuport.o
 .ARM.attributes
                0x00000360       0x39 ./rt-thread/components/utilities/ulog/backend/console_be.o
 .ARM.attributes
                0x00000399       0x39 ./rt-thread/components/utilities/ulog/ulog.o
 .ARM.attributes
                0x000003d2       0x39 ./rt-thread/components/libc/compilers/gcc/newlib/libc.o
 .ARM.attributes
                0x0000040b       0x39 ./rt-thread/components/libc/compilers/gcc/newlib/syscalls.o
 .ARM.attributes
                0x00000444       0x39 ./rt-thread/components/finsh/cmd.o
 .ARM.attributes
                0x0000047d       0x39 ./rt-thread/components/finsh/msh.o
 .ARM.attributes
                0x000004b6       0x39 ./rt-thread/components/finsh/shell.o
 .ARM.attributes
                0x000004ef       0x39 ./rt-thread/components/drivers/usb/usbdevice/core/usbdevice.o
 .ARM.attributes
                0x00000528       0x39 ./rt-thread/components/drivers/usb/usbdevice/core/usbdevice_core.o
 .ARM.attributes
                0x00000561       0x39 ./rt-thread/components/drivers/usb/usbdevice/class/cdc_vcom.o
 .ARM.attributes
                0x0000059a       0x39 ./rt-thread/components/drivers/src/completion.o
 .ARM.attributes
                0x000005d3       0x39 ./rt-thread/components/drivers/src/dataqueue.o
 .ARM.attributes
                0x0000060c       0x39 ./rt-thread/components/drivers/src/ringbuffer.o
 .ARM.attributes
                0x00000645       0x39 ./rt-thread/components/drivers/serial/serial.o
 .ARM.attributes
                0x0000067e       0x39 ./rt-thread/components/drivers/misc/pin.o
 .ARM.attributes
                0x000006b7       0x39 ./rt-thread/components/drivers/misc/rt_drv_pwm.o
 .ARM.attributes
                0x000006f0       0x39 ./packages/peripheral_samples-latest/led_blink_sample.o
 .ARM.attributes
                0x00000729       0x39 ./packages/peripheral_samples-latest/uart_dma_sample.o
 .ARM.attributes
                0x00000762       0x39 ./packages/CmBacktrace-v1.4.0/cm_backtrace.o
 .ARM.attributes
                0x0000079b       0x39 ./packages/CmBacktrace-v1.4.0/cmb_port.o
 .ARM.attributes
                0x000007d4       0x39 ./board/msp/n32_msp.o
 .ARM.attributes
                0x0000080d       0x39 ./board/board.o
 .ARM.attributes
                0x00000846       0x39 ./applications/main.o
 .ARM.attributes
                0x0000087f       0x39 ./Libraries/rt_drivers/drv_common.o
 .ARM.attributes
                0x000008b8       0x39 ./Libraries/rt_drivers/drv_gpio.o
 .ARM.attributes
                0x000008f1       0x39 ./Libraries/rt_drivers/drv_usart.o
 .ARM.attributes
                0x0000092a       0x39 ./Libraries/N32_Std_Driver/n32g45x_std_periph_driver/src/misc.o
 .ARM.attributes
                0x00000963       0x39 ./Libraries/N32_Std_Driver/n32g45x_std_periph_driver/src/n32g45x_dma.o
 .ARM.attributes
                0x0000099c       0x39 ./Libraries/N32_Std_Driver/n32g45x_std_periph_driver/src/n32g45x_exti.o
 .ARM.attributes
                0x000009d5       0x39 ./Libraries/N32_Std_Driver/n32g45x_std_periph_driver/src/n32g45x_gpio.o
 .ARM.attributes
                0x00000a0e       0x39 ./Libraries/N32_Std_Driver/n32g45x_std_periph_driver/src/n32g45x_rcc.o
 .ARM.attributes
                0x00000a47       0x39 ./Libraries/N32_Std_Driver/n32g45x_std_periph_driver/src/n32g45x_usart.o
 .ARM.attributes
                0x00000a80       0x21 ./Libraries/N32_Std_Driver/CMSIS/device/startup/startup_n32g45x_gcc.o
 .ARM.attributes
                0x00000aa1       0x39 ./Libraries/N32_Std_Driver/CMSIS/device/system_n32g45x.o
 .ARM.attributes
                0x00000ada       0x34 c:/rt-threadstudio/repo/extract/toolchain_support_packages/arm/gnu_tools_for_arm_embedded_processors/5.4.1/bin/../lib/gcc/arm-none-eabi/5.4.1/../../../../arm-none-eabi/lib/armv7e-m/fpu\libc.a(lib_a-atoi.o)
 .ARM.attributes
                0x00000b0e       0x34 c:/rt-threadstudio/repo/extract/toolchain_support_packages/arm/gnu_tools_for_arm_embedded_processors/5.4.1/bin/../lib/gcc/arm-none-eabi/5.4.1/../../../../arm-none-eabi/lib/armv7e-m/fpu\libc.a(lib_a-impure.o)
 .ARM.attributes
                0x00000b42       0x34 c:/rt-threadstudio/repo/extract/toolchain_support_packages/arm/gnu_tools_for_arm_embedded_processors/5.4.1/bin/../lib/gcc/arm-none-eabi/5.4.1/../../../../arm-none-eabi/lib/armv7e-m/fpu\libc.a(lib_a-memcmp.o)
 .ARM.attributes
                0x00000b76       0x20 c:/rt-threadstudio/repo/extract/toolchain_support_packages/arm/gnu_tools_for_arm_embedded_processors/5.4.1/bin/../lib/gcc/arm-none-eabi/5.4.1/../../../../arm-none-eabi/lib/armv7e-m/fpu\libc.a(lib_a-memcpy.o)
 .ARM.attributes
                0x00000b96       0x34 c:/rt-threadstudio/repo/extract/toolchain_support_packages/arm/gnu_tools_for_arm_embedded_processors/5.4.1/bin/../lib/gcc/arm-none-eabi/5.4.1/../../../../arm-none-eabi/lib/armv7e-m/fpu\libc.a(lib_a-memset.o)
 .ARM.attributes
                0x00000bca       0x34 c:/rt-threadstudio/repo/extract/toolchain_support_packages/arm/gnu_tools_for_arm_embedded_processors/5.4.1/bin/../lib/gcc/arm-none-eabi/5.4.1/../../../../arm-none-eabi/lib/armv7e-m/fpu\libc.a(lib_a-sprintf.o)
 .ARM.attributes
                0x00000bfe       0x20 c:/rt-threadstudio/repo/extract/toolchain_support_packages/arm/gnu_tools_for_arm_embedded_processors/5.4.1/bin/../lib/gcc/arm-none-eabi/5.4.1/../../../../arm-none-eabi/lib/armv7e-m/fpu\libc.a(lib_a-strcmp.o)
 .ARM.attributes
                0x00000c1e       0x20 c:/rt-threadstudio/repo/extract/toolchain_support_packages/arm/gnu_tools_for_arm_embedded_processors/5.4.1/bin/../lib/gcc/arm-none-eabi/5.4.1/../../../../arm-none-eabi/lib/armv7e-m/fpu\libc.a(lib_a-strlen.o)
 .ARM.attributes
                0x00000c3e       0x34 c:/rt-threadstudio/repo/extract/toolchain_support_packages/arm/gnu_tools_for_arm_embedded_processors/5.4.1/bin/../lib/gcc/arm-none-eabi/5.4.1/../../../../arm-none-eabi/lib/armv7e-m/fpu\libc.a(lib_a-strncmp.o)
 .ARM.attributes
                0x00000c72       0x34 c:/rt-threadstudio/repo/extract/toolchain_support_packages/arm/gnu_tools_for_arm_embedded_processors/5.4.1/bin/../lib/gcc/arm-none-eabi/5.4.1/../../../../arm-none-eabi/lib/armv7e-m/fpu\libc.a(lib_a-strncpy.o)
 .ARM.attributes
                0x00000ca6       0x34 c:/rt-threadstudio/repo/extract/toolchain_support_packages/arm/gnu_tools_for_arm_embedded_processors/5.4.1/bin/../lib/gcc/arm-none-eabi/5.4.1/../../../../arm-none-eabi/lib/armv7e-m/fpu\libc.a(lib_a-strtol.o)
 .ARM.attributes
                0x00000cda       0x34 c:/rt-threadstudio/repo/extract/toolchain_support_packages/arm/gnu_tools_for_arm_embedded_processors/5.4.1/bin/../lib/gcc/arm-none-eabi/5.4.1/../../../../arm-none-eabi/lib/armv7e-m/fpu\libc.a(lib_a-svfprintf.o)
 .ARM.attributes
                0x00000d0e       0x34 c:/rt-threadstudio/repo/extract/toolchain_support_packages/arm/gnu_tools_for_arm_embedded_processors/5.4.1/bin/../lib/gcc/arm-none-eabi/5.4.1/../../../../arm-none-eabi/lib/armv7e-m/fpu\libc.a(lib_a-__call_atexit.o)
 .ARM.attributes
                0x00000d42       0x34 c:/rt-threadstudio/repo/extract/toolchain_support_packages/arm/gnu_tools_for_arm_embedded_processors/5.4.1/bin/../lib/gcc/arm-none-eabi/5.4.1/../../../../arm-none-eabi/lib/armv7e-m/fpu\libc.a(lib_a-atexit.o)
 .ARM.attributes
                0x00000d76       0x34 c:/rt-threadstudio/repo/extract/toolchain_support_packages/arm/gnu_tools_for_arm_embedded_processors/5.4.1/bin/../lib/gcc/arm-none-eabi/5.4.1/../../../../arm-none-eabi/lib/armv7e-m/fpu\libc.a(lib_a-dtoa.o)
 .ARM.attributes
                0x00000daa       0x34 c:/rt-threadstudio/repo/extract/toolchain_support_packages/arm/gnu_tools_for_arm_embedded_processors/5.4.1/bin/../lib/gcc/arm-none-eabi/5.4.1/../../../../arm-none-eabi/lib/armv7e-m/fpu\libc.a(lib_a-fini.o)
 .ARM.attributes
                0x00000dde       0x34 c:/rt-threadstudio/repo/extract/toolchain_support_packages/arm/gnu_tools_for_arm_embedded_processors/5.4.1/bin/../lib/gcc/arm-none-eabi/5.4.1/../../../../arm-none-eabi/lib/armv7e-m/fpu\libc.a(lib_a-locale.o)
 .ARM.attributes
                0x00000e12       0x34 c:/rt-threadstudio/repo/extract/toolchain_support_packages/arm/gnu_tools_for_arm_embedded_processors/5.4.1/bin/../lib/gcc/arm-none-eabi/5.4.1/../../../../arm-none-eabi/lib/armv7e-m/fpu\libc.a(lib_a-localeconv.o)
 .ARM.attributes
                0x00000e46       0x34 c:/rt-threadstudio/repo/extract/toolchain_support_packages/arm/gnu_tools_for_arm_embedded_processors/5.4.1/bin/../lib/gcc/arm-none-eabi/5.4.1/../../../../arm-none-eabi/lib/armv7e-m/fpu\libc.a(lib_a-malloc.o)
 .ARM.attributes
                0x00000e7a       0x34 c:/rt-threadstudio/repo/extract/toolchain_support_packages/arm/gnu_tools_for_arm_embedded_processors/5.4.1/bin/../lib/gcc/arm-none-eabi/5.4.1/../../../../arm-none-eabi/lib/armv7e-m/fpu\libc.a(lib_a-mbtowc_r.o)
 .ARM.attributes
                0x00000eae       0x20 c:/rt-threadstudio/repo/extract/toolchain_support_packages/arm/gnu_tools_for_arm_embedded_processors/5.4.1/bin/../lib/gcc/arm-none-eabi/5.4.1/../../../../arm-none-eabi/lib/armv7e-m/fpu\libc.a(lib_a-memchr.o)
 .ARM.attributes
                0x00000ece       0x34 c:/rt-threadstudio/repo/extract/toolchain_support_packages/arm/gnu_tools_for_arm_embedded_processors/5.4.1/bin/../lib/gcc/arm-none-eabi/5.4.1/../../../../arm-none-eabi/lib/armv7e-m/fpu\libc.a(lib_a-mprec.o)
 .ARM.attributes
                0x00000f02       0x34 c:/rt-threadstudio/repo/extract/toolchain_support_packages/arm/gnu_tools_for_arm_embedded_processors/5.4.1/bin/../lib/gcc/arm-none-eabi/5.4.1/../../../../arm-none-eabi/lib/armv7e-m/fpu\libc.a(lib_a-svfiprintf.o)
 .ARM.attributes
                0x00000f36       0x34 c:/rt-threadstudio/repo/extract/toolchain_support_packages/arm/gnu_tools_for_arm_embedded_processors/5.4.1/bin/../lib/gcc/arm-none-eabi/5.4.1/../../../../arm-none-eabi/lib/armv7e-m/fpu\libc.a(lib_a-wctomb_r.o)
 .ARM.attributes
                0x00000f6a       0x34 c:/rt-threadstudio/repo/extract/toolchain_support_packages/arm/gnu_tools_for_arm_embedded_processors/5.4.1/bin/../lib/gcc/arm-none-eabi/5.4.1/../../../../arm-none-eabi/lib/armv7e-m/fpu\libc.a(lib_a-__atexit.o)
 .ARM.attributes
                0x00000f9e       0x34 c:/rt-threadstudio/repo/extract/toolchain_support_packages/arm/gnu_tools_for_arm_embedded_processors/5.4.1/bin/../lib/gcc/arm-none-eabi/5.4.1/../../../../arm-none-eabi/lib/armv7e-m/fpu\libc.a(lib_a-ctype_.o)
 .ARM.attributes
                0x00000fd2       0x34 c:/rt-threadstudio/repo/extract/toolchain_support_packages/arm/gnu_tools_for_arm_embedded_processors/5.4.1/bin/../lib/gcc/arm-none-eabi/5.4.1/../../../../arm-none-eabi/lib/armv7e-m/fpu\libc.a(lib_a-memmove.o)
 .ARM.attributes
                0x00001006       0x22 c:/rt-threadstudio/repo/extract/toolchain_support_packages/arm/gnu_tools_for_arm_embedded_processors/5.4.1/bin/../lib/gcc/arm-none-eabi/5.4.1/armv7e-m/fpu\libgcc.a(_arm_addsubdf3.o)
 .ARM.attributes
                0x00001028       0x22 c:/rt-threadstudio/repo/extract/toolchain_support_packages/arm/gnu_tools_for_arm_embedded_processors/5.4.1/bin/../lib/gcc/arm-none-eabi/5.4.1/armv7e-m/fpu\libgcc.a(_arm_muldivdf3.o)
 .ARM.attributes
                0x0000104a       0x22 c:/rt-threadstudio/repo/extract/toolchain_support_packages/arm/gnu_tools_for_arm_embedded_processors/5.4.1/bin/../lib/gcc/arm-none-eabi/5.4.1/armv7e-m/fpu\libgcc.a(_arm_cmpdf2.o)
 .ARM.attributes
                0x0000106c       0x22 c:/rt-threadstudio/repo/extract/toolchain_support_packages/arm/gnu_tools_for_arm_embedded_processors/5.4.1/bin/../lib/gcc/arm-none-eabi/5.4.1/armv7e-m/fpu\libgcc.a(_arm_unorddf2.o)
 .ARM.attributes
                0x0000108e       0x22 c:/rt-threadstudio/repo/extract/toolchain_support_packages/arm/gnu_tools_for_arm_embedded_processors/5.4.1/bin/../lib/gcc/arm-none-eabi/5.4.1/armv7e-m/fpu\libgcc.a(_arm_fixdfsi.o)
 .ARM.attributes
                0x000010b0       0x22 c:/rt-threadstudio/repo/extract/toolchain_support_packages/arm/gnu_tools_for_arm_embedded_processors/5.4.1/bin/../lib/gcc/arm-none-eabi/5.4.1/armv7e-m/fpu\libgcc.a(_aeabi_uldivmod.o)
 .ARM.attributes
                0x000010d2       0x34 c:/rt-threadstudio/repo/extract/toolchain_support_packages/arm/gnu_tools_for_arm_embedded_processors/5.4.1/bin/../lib/gcc/arm-none-eabi/5.4.1/armv7e-m/fpu\libgcc.a(_udivmoddi4.o)
 .ARM.attributes
                0x00001106       0x22 c:/rt-threadstudio/repo/extract/toolchain_support_packages/arm/gnu_tools_for_arm_embedded_processors/5.4.1/bin/../lib/gcc/arm-none-eabi/5.4.1/armv7e-m/fpu\libgcc.a(_dvmd_tls.o)

.debug
 *(.debug)

.line
 *(.line)

.debug_srcinfo
 *(.debug_srcinfo)

.debug_sfnames
 *(.debug_sfnames)

.debug_aranges  0x00000000     0x1a38
 *(.debug_aranges)
 .debug_aranges
                0x00000000       0x40 ./rt-thread/src/clock.o
 .debug_aranges
                0x00000040       0x68 ./rt-thread/src/components.o
 .debug_aranges
                0x000000a8       0x80 ./rt-thread/src/device.o
 .debug_aranges
                0x00000128       0x68 ./rt-thread/src/idle.o
 .debug_aranges
                0x00000190      0x198 ./rt-thread/src/ipc.o
 .debug_aranges
                0x00000328       0x40 ./rt-thread/src/irq.o
 .debug_aranges
                0x00000368      0x120 ./rt-thread/src/kservice.o
 .debug_aranges
                0x00000488       0x68 ./rt-thread/src/mem.o
 .debug_aranges
                0x000004f0       0xa0 ./rt-thread/src/object.o
 .debug_aranges
                0x00000590       0x98 ./rt-thread/src/scheduler.o
 .debug_aranges
                0x00000628       0xd8 ./rt-thread/src/thread.o
 .debug_aranges
                0x00000700       0xc8 ./rt-thread/src/timer.o
 .debug_aranges
                0x000007c8       0x20 ./rt-thread/libcpu/arm/cortex-m4/context_gcc.o
 .debug_aranges
                0x000007e8       0x60 ./rt-thread/libcpu/arm/cortex-m4/cpuport.o
 .debug_aranges
                0x00000848       0x28 ./rt-thread/components/utilities/ulog/backend/console_be.o
 .debug_aranges
                0x00000870       0xd0 ./rt-thread/components/utilities/ulog/ulog.o
 .debug_aranges
                0x00000940       0x20 ./rt-thread/components/libc/compilers/gcc/newlib/libc.o
 .debug_aranges
                0x00000960       0xf0 ./rt-thread/components/libc/compilers/gcc/newlib/syscalls.o
 .debug_aranges
                0x00000a50       0xb0 ./rt-thread/components/finsh/cmd.o
 .debug_aranges
                0x00000b00       0x60 ./rt-thread/components/finsh/msh.o
 .debug_aranges
                0x00000b60       0x98 ./rt-thread/components/finsh/shell.o
 .debug_aranges
                0x00000bf8       0x48 ./rt-thread/components/drivers/usb/usbdevice/core/usbdevice.o
 .debug_aranges
                0x00000c40      0x2b8 ./rt-thread/components/drivers/usb/usbdevice/core/usbdevice_core.o
 .debug_aranges
                0x00000ef8       0xd0 ./rt-thread/components/drivers/usb/usbdevice/class/cdc_vcom.o
 .debug_aranges
                0x00000fc8       0x48 ./rt-thread/components/drivers/src/completion.o
 .debug_aranges
                0x00001010       0x68 ./rt-thread/components/drivers/src/dataqueue.o
 .debug_aranges
                0x00001078       0x80 ./rt-thread/components/drivers/src/ringbuffer.o
 .debug_aranges
                0x000010f8       0xb0 ./rt-thread/components/drivers/serial/serial.o
 .debug_aranges
                0x000011a8       0x70 ./rt-thread/components/drivers/misc/pin.o
 .debug_aranges
                0x00001218       0x78 ./rt-thread/components/drivers/misc/rt_drv_pwm.o
 .debug_aranges
                0x00001290       0x28 ./packages/peripheral_samples-latest/led_blink_sample.o
 .debug_aranges
                0x000012b8       0x30 ./packages/peripheral_samples-latest/uart_dma_sample.o
 .debug_aranges
                0x000012e8       0x78 ./packages/CmBacktrace-v1.4.0/cm_backtrace.o
 .debug_aranges
                0x00001360       0x38 ./packages/CmBacktrace-v1.4.0/cmb_port.o
 .debug_aranges
                0x00001398       0x48 ./board/msp/n32_msp.o
 .debug_aranges
                0x000013e0       0x48 ./board/board.o
 .debug_aranges
                0x00001428       0x20 ./applications/main.o
 .debug_aranges
                0x00001448       0x28 ./Libraries/rt_drivers/drv_common.o
 .debug_aranges
                0x00001470       0xa8 ./Libraries/rt_drivers/drv_gpio.o
 .debug_aranges
                0x00001518       0xa8 ./Libraries/rt_drivers/drv_usart.o
 .debug_aranges
                0x000015c0       0x40 ./Libraries/N32_Std_Driver/n32g45x_std_periph_driver/src/misc.o
 .debug_aranges
                0x00001600       0x78 ./Libraries/N32_Std_Driver/n32g45x_std_periph_driver/src/n32g45x_dma.o
 .debug_aranges
                0x00001678       0x60 ./Libraries/N32_Std_Driver/n32g45x_std_periph_driver/src/n32g45x_exti.o
 .debug_aranges
                0x000016d8       0xb0 ./Libraries/N32_Std_Driver/n32g45x_std_periph_driver/src/n32g45x_gpio.o
 .debug_aranges
                0x00001788      0x168 ./Libraries/N32_Std_Driver/n32g45x_std_periph_driver/src/n32g45x_rcc.o
 .debug_aranges
                0x000018f0       0xf0 ./Libraries/N32_Std_Driver/n32g45x_std_periph_driver/src/n32g45x_usart.o
 .debug_aranges
                0x000019e0       0x28 ./Libraries/N32_Std_Driver/CMSIS/device/startup/startup_n32g45x_gcc.o
 .debug_aranges
                0x00001a08       0x30 ./Libraries/N32_Std_Driver/CMSIS/device/system_n32g45x.o

.debug_pubnames
 *(.debug_pubnames)

.debug_info     0x00000000    0x206cd
 *(.debug_info .gnu.linkonce.wi.*)
 .debug_info    0x00000000      0x450 ./rt-thread/src/clock.o
 .debug_info    0x00000450      0x542 ./rt-thread/src/components.o
 .debug_info    0x00000992      0x8df ./rt-thread/src/device.o
 .debug_info    0x00001271      0x6ad ./rt-thread/src/idle.o
 .debug_info    0x0000191e     0x1c42 ./rt-thread/src/ipc.o
 .debug_info    0x00003560      0x1b4 ./rt-thread/src/irq.o
 .debug_info    0x00003714     0x1285 ./rt-thread/src/kservice.o
 .debug_info    0x00004999      0x6ca ./rt-thread/src/mem.o
 .debug_info    0x00005063      0x88a ./rt-thread/src/object.o
 .debug_info    0x000058ed      0x7f8 ./rt-thread/src/scheduler.o
 .debug_info    0x000060e5      0xc4d ./rt-thread/src/thread.o
 .debug_info    0x00006d32      0xb98 ./rt-thread/src/timer.o
 .debug_info    0x000078ca       0x83 ./rt-thread/libcpu/arm/cortex-m4/context_gcc.o
 .debug_info    0x0000794d      0x41f ./rt-thread/libcpu/arm/cortex-m4/cpuport.o
 .debug_info    0x00007d6c      0x5f6 ./rt-thread/components/utilities/ulog/backend/console_be.o
 .debug_info    0x00008362      0xccc ./rt-thread/components/utilities/ulog/ulog.o
 .debug_info    0x0000902e       0xcd ./rt-thread/components/libc/compilers/gcc/newlib/libc.o
 .debug_info    0x000090fb     0x1424 ./rt-thread/components/libc/compilers/gcc/newlib/syscalls.o
 .debug_info    0x0000a51f     0x1853 ./rt-thread/components/finsh/cmd.o
 .debug_info    0x0000bd72      0x616 ./rt-thread/components/finsh/msh.o
 .debug_info    0x0000c388      0xd0a ./rt-thread/components/finsh/shell.o
 .debug_info    0x0000d092      0xf6c ./rt-thread/components/drivers/usb/usbdevice/core/usbdevice.o
 .debug_info    0x0000dffe     0x36c1 ./rt-thread/components/drivers/usb/usbdevice/core/usbdevice_core.o
 .debug_info    0x000116bf     0x2318 ./rt-thread/components/drivers/usb/usbdevice/class/cdc_vcom.o
 .debug_info    0x000139d7      0x595 ./rt-thread/components/drivers/src/completion.o
 .debug_info    0x00013f6c      0x8df ./rt-thread/components/drivers/src/dataqueue.o
 .debug_info    0x0001484b      0x648 ./rt-thread/components/drivers/src/ringbuffer.o
 .debug_info    0x00014e93     0x1294 ./rt-thread/components/drivers/serial/serial.o
 .debug_info    0x00016127      0xa1d ./rt-thread/components/drivers/misc/pin.o
 .debug_info    0x00016b44      0xba1 ./rt-thread/components/drivers/misc/rt_drv_pwm.o
 .debug_info    0x000176e5      0x4c4 ./packages/peripheral_samples-latest/led_blink_sample.o
 .debug_info    0x00017ba9      0x943 ./packages/peripheral_samples-latest/uart_dma_sample.o
 .debug_info    0x000184ec      0xe2c ./packages/CmBacktrace-v1.4.0/cm_backtrace.o
 .debug_info    0x00019318      0x455 ./packages/CmBacktrace-v1.4.0/cmb_port.o
 .debug_info    0x0001976d      0xb1b ./board/msp/n32_msp.o
 .debug_info    0x0001a288      0x77b ./board/board.o
 .debug_info    0x0001aa03       0xf9 ./applications/main.o
 .debug_info    0x0001aafc      0x2b6 ./Libraries/rt_drivers/drv_common.o
 .debug_info    0x0001adb2     0x10dd ./Libraries/rt_drivers/drv_gpio.o
 .debug_info    0x0001be8f     0x13ee ./Libraries/rt_drivers/drv_usart.o
 .debug_info    0x0001d27d      0x5d5 ./Libraries/N32_Std_Driver/n32g45x_std_periph_driver/src/misc.o
 .debug_info    0x0001d852      0x5c2 ./Libraries/N32_Std_Driver/n32g45x_std_periph_driver/src/n32g45x_dma.o
 .debug_info    0x0001de14      0x3d4 ./Libraries/N32_Std_Driver/n32g45x_std_periph_driver/src/n32g45x_exti.o
 .debug_info    0x0001e1e8      0x81b ./Libraries/N32_Std_Driver/n32g45x_std_periph_driver/src/n32g45x_gpio.o
 .debug_info    0x0001ea03      0xc23 ./Libraries/N32_Std_Driver/n32g45x_std_periph_driver/src/n32g45x_rcc.o
 .debug_info    0x0001f626      0xa57 ./Libraries/N32_Std_Driver/n32g45x_std_periph_driver/src/n32g45x_usart.o
 .debug_info    0x0002007d       0x96 ./Libraries/N32_Std_Driver/CMSIS/device/startup/startup_n32g45x_gcc.o
 .debug_info    0x00020113      0x5ba ./Libraries/N32_Std_Driver/CMSIS/device/system_n32g45x.o

.debug_abbrev   0x00000000     0x5565
 *(.debug_abbrev)
 .debug_abbrev  0x00000000      0x143 ./rt-thread/src/clock.o
 .debug_abbrev  0x00000143      0x166 ./rt-thread/src/components.o
 .debug_abbrev  0x000002a9      0x177 ./rt-thread/src/device.o
 .debug_abbrev  0x00000420      0x1e6 ./rt-thread/src/idle.o
 .debug_abbrev  0x00000606      0x1d2 ./rt-thread/src/ipc.o
 .debug_abbrev  0x000007d8       0xde ./rt-thread/src/irq.o
 .debug_abbrev  0x000008b6      0x2ca ./rt-thread/src/kservice.o
 .debug_abbrev  0x00000b80      0x1ee ./rt-thread/src/mem.o
 .debug_abbrev  0x00000d6e      0x1e2 ./rt-thread/src/object.o
 .debug_abbrev  0x00000f50      0x227 ./rt-thread/src/scheduler.o
 .debug_abbrev  0x00001177      0x1fd ./rt-thread/src/thread.o
 .debug_abbrev  0x00001374      0x275 ./rt-thread/src/timer.o
 .debug_abbrev  0x000015e9       0x14 ./rt-thread/libcpu/arm/cortex-m4/context_gcc.o
 .debug_abbrev  0x000015fd      0x1d6 ./rt-thread/libcpu/arm/cortex-m4/cpuport.o
 .debug_abbrev  0x000017d3      0x178 ./rt-thread/components/utilities/ulog/backend/console_be.o
 .debug_abbrev  0x0000194b      0x2a0 ./rt-thread/components/utilities/ulog/ulog.o
 .debug_abbrev  0x00001beb       0x7d ./rt-thread/components/libc/compilers/gcc/newlib/libc.o
 .debug_abbrev  0x00001c68      0x2d7 ./rt-thread/components/libc/compilers/gcc/newlib/syscalls.o
 .debug_abbrev  0x00001f3f      0x28c ./rt-thread/components/finsh/cmd.o
 .debug_abbrev  0x000021cb      0x208 ./rt-thread/components/finsh/msh.o
 .debug_abbrev  0x000023d3      0x2d9 ./rt-thread/components/finsh/shell.o
 .debug_abbrev  0x000026ac      0x1ee ./rt-thread/components/drivers/usb/usbdevice/core/usbdevice.o
 .debug_abbrev  0x0000289a      0x2f0 ./rt-thread/components/drivers/usb/usbdevice/core/usbdevice_core.o
 .debug_abbrev  0x00002b8a      0x287 ./rt-thread/components/drivers/usb/usbdevice/class/cdc_vcom.o
 .debug_abbrev  0x00002e11      0x182 ./rt-thread/components/drivers/src/completion.o
 .debug_abbrev  0x00002f93      0x201 ./rt-thread/components/drivers/src/dataqueue.o
 .debug_abbrev  0x00003194      0x1ba ./rt-thread/components/drivers/src/ringbuffer.o
 .debug_abbrev  0x0000334e      0x246 ./rt-thread/components/drivers/serial/serial.o
 .debug_abbrev  0x00003594      0x18d ./rt-thread/components/drivers/misc/pin.o
 .debug_abbrev  0x00003721      0x1e9 ./rt-thread/components/drivers/misc/rt_drv_pwm.o
 .debug_abbrev  0x0000390a      0x143 ./packages/peripheral_samples-latest/led_blink_sample.o
 .debug_abbrev  0x00003a4d      0x18b ./packages/peripheral_samples-latest/uart_dma_sample.o
 .debug_abbrev  0x00003bd8      0x29f ./packages/CmBacktrace-v1.4.0/cm_backtrace.o
 .debug_abbrev  0x00003e77      0x1b9 ./packages/CmBacktrace-v1.4.0/cmb_port.o
 .debug_abbrev  0x00004030      0x231 ./board/msp/n32_msp.o
 .debug_abbrev  0x00004261      0x173 ./board/board.o
 .debug_abbrev  0x000043d4       0x71 ./applications/main.o
 .debug_abbrev  0x00004445      0x142 ./Libraries/rt_drivers/drv_common.o
 .debug_abbrev  0x00004587      0x282 ./Libraries/rt_drivers/drv_gpio.o
 .debug_abbrev  0x00004809      0x2be ./Libraries/rt_drivers/drv_usart.o
 .debug_abbrev  0x00004ac7      0x13c ./Libraries/N32_Std_Driver/n32g45x_std_periph_driver/src/misc.o
 .debug_abbrev  0x00004c03      0x16d ./Libraries/N32_Std_Driver/n32g45x_std_periph_driver/src/n32g45x_dma.o
 .debug_abbrev  0x00004d70      0x164 ./Libraries/N32_Std_Driver/n32g45x_std_periph_driver/src/n32g45x_exti.o
 .debug_abbrev  0x00004ed4      0x1d2 ./Libraries/N32_Std_Driver/n32g45x_std_periph_driver/src/n32g45x_gpio.o
 .debug_abbrev  0x000050a6      0x1f8 ./Libraries/N32_Std_Driver/n32g45x_std_periph_driver/src/n32g45x_rcc.o
 .debug_abbrev  0x0000529e      0x16a ./Libraries/N32_Std_Driver/n32g45x_std_periph_driver/src/n32g45x_usart.o
 .debug_abbrev  0x00005408       0x12 ./Libraries/N32_Std_Driver/CMSIS/device/startup/startup_n32g45x_gcc.o
 .debug_abbrev  0x0000541a      0x14b ./Libraries/N32_Std_Driver/CMSIS/device/system_n32g45x.o

.debug_line     0x00000000     0xaf0e
 *(.debug_line)
 .debug_line    0x00000000       0xe4 ./rt-thread/src/clock.o
 .debug_line    0x000000e4      0x170 ./rt-thread/src/components.o
 .debug_line    0x00000254      0x271 ./rt-thread/src/device.o
 .debug_line    0x000004c5      0x1f3 ./rt-thread/src/idle.o
 .debug_line    0x000006b8      0xbe2 ./rt-thread/src/ipc.o
 .debug_line    0x0000129a       0xe8 ./rt-thread/src/irq.o
 .debug_line    0x00001382      0x682 ./rt-thread/src/kservice.o
 .debug_line    0x00001a04      0x2dc ./rt-thread/src/mem.o
 .debug_line    0x00001ce0      0x322 ./rt-thread/src/object.o
 .debug_line    0x00002002      0x275 ./rt-thread/src/scheduler.o
 .debug_line    0x00002277      0x3fd ./rt-thread/src/thread.o
 .debug_line    0x00002674      0x3ee ./rt-thread/src/timer.o
 .debug_line    0x00002a62       0xd5 ./rt-thread/libcpu/arm/cortex-m4/context_gcc.o
 .debug_line    0x00002b37      0x1a9 ./rt-thread/libcpu/arm/cortex-m4/cpuport.o
 .debug_line    0x00002ce0      0x1c0 ./rt-thread/components/utilities/ulog/backend/console_be.o
 .debug_line    0x00002ea0      0x55e ./rt-thread/components/utilities/ulog/ulog.o
 .debug_line    0x000033fe       0xae ./rt-thread/components/libc/compilers/gcc/newlib/libc.o
 .debug_line    0x000034ac      0x557 ./rt-thread/components/libc/compilers/gcc/newlib/syscalls.o
 .debug_line    0x00003a03      0x49c ./rt-thread/components/finsh/cmd.o
 .debug_line    0x00003e9f      0x297 ./rt-thread/components/finsh/msh.o
 .debug_line    0x00004136      0x386 ./rt-thread/components/finsh/shell.o
 .debug_line    0x000044bc      0x1cb ./rt-thread/components/drivers/usb/usbdevice/core/usbdevice.o
 .debug_line    0x00004687     0x10cd ./rt-thread/components/drivers/usb/usbdevice/core/usbdevice_core.o
 .debug_line    0x00005754      0x515 ./rt-thread/components/drivers/usb/usbdevice/class/cdc_vcom.o
 .debug_line    0x00005c69      0x1c6 ./rt-thread/components/drivers/src/completion.o
 .debug_line    0x00005e2f      0x324 ./rt-thread/components/drivers/src/dataqueue.o
 .debug_line    0x00006153      0x2c4 ./rt-thread/components/drivers/src/ringbuffer.o
 .debug_line    0x00006417      0x5cb ./rt-thread/components/drivers/serial/serial.o
 .debug_line    0x000069e2      0x242 ./rt-thread/components/drivers/misc/pin.o
 .debug_line    0x00006c24      0x2a6 ./rt-thread/components/drivers/misc/rt_drv_pwm.o
 .debug_line    0x00006eca      0x13d ./packages/peripheral_samples-latest/led_blink_sample.o
 .debug_line    0x00007007      0x139 ./packages/peripheral_samples-latest/uart_dma_sample.o
 .debug_line    0x00007140      0x512 ./packages/CmBacktrace-v1.4.0/cm_backtrace.o
 .debug_line    0x00007652      0x333 ./packages/CmBacktrace-v1.4.0/cmb_port.o
 .debug_line    0x00007985      0x43c ./board/msp/n32_msp.o
 .debug_line    0x00007dc1      0x2dc ./board/board.o
 .debug_line    0x0000809d      0x1f6 ./applications/main.o
 .debug_line    0x00008293      0x286 ./Libraries/rt_drivers/drv_common.o
 .debug_line    0x00008519      0x56e ./Libraries/rt_drivers/drv_gpio.o
 .debug_line    0x00008a87      0x59f ./Libraries/rt_drivers/drv_usart.o
 .debug_line    0x00009026      0x314 ./Libraries/N32_Std_Driver/n32g45x_std_periph_driver/src/misc.o
 .debug_line    0x0000933a      0x42f ./Libraries/N32_Std_Driver/n32g45x_std_periph_driver/src/n32g45x_dma.o
 .debug_line    0x00009769      0x388 ./Libraries/N32_Std_Driver/n32g45x_std_periph_driver/src/n32g45x_exti.o
 .debug_line    0x00009af1      0x50a ./Libraries/N32_Std_Driver/n32g45x_std_periph_driver/src/n32g45x_gpio.o
 .debug_line    0x00009ffb      0x679 ./Libraries/N32_Std_Driver/n32g45x_std_periph_driver/src/n32g45x_rcc.o
 .debug_line    0x0000a674      0x56b ./Libraries/N32_Std_Driver/n32g45x_std_periph_driver/src/n32g45x_usart.o
 .debug_line    0x0000abdf       0xa1 ./Libraries/N32_Std_Driver/CMSIS/device/startup/startup_n32g45x_gcc.o
 .debug_line    0x0000ac80      0x28e ./Libraries/N32_Std_Driver/CMSIS/device/system_n32g45x.o

.debug_frame    0x00000000     0x70bc
 *(.debug_frame)
 .debug_frame   0x00000000       0xbc ./rt-thread/src/clock.o
 .debug_frame   0x000000bc      0x158 ./rt-thread/src/components.o
 .debug_frame   0x00000214      0x1ec ./rt-thread/src/device.o
 .debug_frame   0x00000400      0x17c ./rt-thread/src/idle.o
 .debug_frame   0x0000057c      0x718 ./rt-thread/src/ipc.o
 .debug_frame   0x00000c94       0xcc ./rt-thread/src/irq.o
 .debug_frame   0x00000d60      0x538 ./rt-thread/src/kservice.o
 .debug_frame   0x00001298      0x180 ./rt-thread/src/mem.o
 .debug_frame   0x00001418      0x2a4 ./rt-thread/src/object.o
 .debug_frame   0x000016bc      0x268 ./rt-thread/src/scheduler.o
 .debug_frame   0x00001924      0x3a4 ./rt-thread/src/thread.o
 .debug_frame   0x00001cc8      0x358 ./rt-thread/src/timer.o
 .debug_frame   0x00002020      0x130 ./rt-thread/libcpu/arm/cortex-m4/cpuport.o
 .debug_frame   0x00002150       0x50 ./rt-thread/components/utilities/ulog/backend/console_be.o
 .debug_frame   0x000021a0      0x380 ./rt-thread/components/utilities/ulog/ulog.o
 .debug_frame   0x00002520       0x30 ./rt-thread/components/libc/compilers/gcc/newlib/libc.o
 .debug_frame   0x00002550      0x418 ./rt-thread/components/libc/compilers/gcc/newlib/syscalls.o
 .debug_frame   0x00002968      0x2e8 ./rt-thread/components/finsh/cmd.o
 .debug_frame   0x00002c50      0x158 ./rt-thread/components/finsh/msh.o
 .debug_frame   0x00002da8      0x234 ./rt-thread/components/finsh/shell.o
 .debug_frame   0x00002fdc       0xec ./rt-thread/components/drivers/usb/usbdevice/core/usbdevice.o
 .debug_frame   0x000030c8      0xbf4 ./rt-thread/components/drivers/usb/usbdevice/core/usbdevice_core.o
